{
  "contractName": "Battleship",
  "abi": [
    {
      "inputs": [
        {
          "internalType": "address",
          "name": "creator",
          "type": "address"
        },
        {
          "internalType": "uint256",
          "name": "bet",
          "type": "uint256"
        }
      ],
      "stateMutability": "nonpayable",
      "type": "constructor"
    },
    {
      "anonymous": false,
      "inputs": [],
      "name": "BetPayed",
      "type": "event"
    },
    {
      "anonymous": false,
      "inputs": [],
      "name": "GameStart",
      "type": "event"
    },
    {
      "anonymous": false,
      "inputs": [],
      "name": "ShotTaken",
      "type": "event"
    },
    {
      "anonymous": false,
      "inputs": [],
      "name": "WinnerVerified",
      "type": "event"
    },
    {
      "anonymous": false,
      "inputs": [],
      "name": "Won",
      "type": "event"
    },
    {
      "inputs": [],
      "name": "agreedBet",
      "outputs": [
        {
          "internalType": "uint256",
          "name": "",
          "type": "uint256"
        }
      ],
      "stateMutability": "view",
      "type": "function"
    },
    {
      "inputs": [],
      "name": "gamePhase",
      "outputs": [
        {
          "internalType": "enum Battleship.Phase",
          "name": "",
          "type": "uint8"
        }
      ],
      "stateMutability": "view",
      "type": "function"
    },
    {
      "inputs": [],
      "name": "playerOne",
      "outputs": [
        {
          "internalType": "address",
          "name": "",
          "type": "address"
        }
      ],
      "stateMutability": "view",
      "type": "function"
    },
    {
      "inputs": [],
      "name": "playerTurn",
      "outputs": [
        {
          "internalType": "address",
          "name": "",
          "type": "address"
        }
      ],
      "stateMutability": "view",
      "type": "function"
    },
    {
      "inputs": [],
      "name": "playerTwo",
      "outputs": [
        {
          "internalType": "address",
          "name": "",
          "type": "address"
        }
      ],
      "stateMutability": "view",
      "type": "function"
    },
    {
      "inputs": [],
      "name": "verifiedWinner",
      "outputs": [
        {
          "internalType": "address",
          "name": "",
          "type": "address"
        }
      ],
      "stateMutability": "view",
      "type": "function"
    },
    {
      "inputs": [],
      "name": "winner",
      "outputs": [
        {
          "internalType": "address",
          "name": "",
          "type": "address"
        }
      ],
      "stateMutability": "view",
      "type": "function"
    },
    {
      "inputs": [
        {
          "internalType": "address",
          "name": "player",
          "type": "address"
        }
      ],
      "name": "addPlayerTwo",
      "outputs": [],
      "stateMutability": "nonpayable",
      "type": "function"
    },
    {
      "inputs": [],
      "name": "depositBet",
      "outputs": [],
      "stateMutability": "payable",
      "type": "function"
    },
    {
      "inputs": [
        {
          "internalType": "bytes32",
          "name": "merkleTreeRoot",
          "type": "bytes32"
        }
      ],
      "name": "commitBoard",
      "outputs": [],
      "stateMutability": "nonpayable",
      "type": "function"
    },
    {
      "inputs": [
        {
          "internalType": "uint8",
          "name": "index",
          "type": "uint8"
        }
      ],
      "name": "shoot",
      "outputs": [],
      "stateMutability": "nonpayable",
      "type": "function"
    },
    {
      "inputs": [
        {
          "internalType": "uint8",
          "name": "index",
          "type": "uint8"
        },
        {
          "internalType": "bool",
          "name": "ship",
          "type": "bool"
        },
        {
          "internalType": "uint256",
          "name": "salt",
          "type": "uint256"
        },
        {
          "internalType": "bytes32[]",
          "name": "proof",
          "type": "bytes32[]"
        },
        {
          "internalType": "uint8",
          "name": "shotIndex",
          "type": "uint8"
        }
      ],
      "name": "confirmAndShoot",
      "outputs": [],
      "stateMutability": "nonpayable",
      "type": "function"
    },
    {
      "inputs": [
        {
          "internalType": "address",
          "name": "player",
          "type": "address"
        }
      ],
      "name": "getPlayerShots",
      "outputs": [
        {
          "components": [
            {
              "internalType": "uint8",
              "name": "index",
              "type": "uint8"
            },
            {
              "internalType": "enum Battleship.Cell",
              "name": "value",
              "type": "uint8"
            }
          ],
          "internalType": "struct Battleship.Shot[]",
          "name": "",
          "type": "tuple[]"
        }
      ],
      "stateMutability": "view",
      "type": "function"
    },
    {
      "inputs": [],
      "name": "report",
      "outputs": [],
      "stateMutability": "nonpayable",
      "type": "function"
    },
    {
      "inputs": [],
      "name": "forfeit",
      "outputs": [],
      "stateMutability": "nonpayable",
      "type": "function"
    },
    {
      "inputs": [],
      "name": "withdraw",
      "outputs": [],
      "stateMutability": "nonpayable",
      "type": "function"
    }
  ],
  "bytecode": "0x60806040523480156200001157600080fd5b5060405162002e6638038062002e66833981810160405281019062000037919062000159565b816000806101000a81548173ffffffffffffffffffffffffffffffffffffffff021916908373ffffffffffffffffffffffffffffffffffffffff160217905550806002819055506000600560146101000a81548160ff02191690836006811115620000a757620000a6620001a0565b5b02179055505050620001cf565b600080fd5b600073ffffffffffffffffffffffffffffffffffffffff82169050919050565b6000620000e682620000b9565b9050919050565b620000f881620000d9565b81146200010457600080fd5b50565b6000815190506200011881620000ed565b92915050565b6000819050919050565b62000133816200011e565b81146200013f57600080fd5b50565b600081519050620001538162000128565b92915050565b60008060408385031215620001735762000172620000b4565b5b6000620001838582860162000107565b9250506020620001968582860162000142565b9150509250929050565b7f4e487b7100000000000000000000000000000000000000000000000000000000600052602160045260246000fd5b612c8780620001df6000396000f3fe6080604052600436106100f35760003560e01c8063993eb6451161008a578063d30074d911610059578063d30074d9146102bf578063dfbf53ae146102ea578063ea66144a14610315578063f3d86e4a1461033e576100f3565b8063993eb64514610217578063bcffcf4114610240578063c807b0ff1461026b578063cab3cae114610296576100f3565b80633fe34727116100c65780633fe347271461017c57806355c51f47146101865780635bc58e6b146101b15780636ff8fd7e146101da576100f3565b80630a9f85dd146100f85780632606a10b146101235780633951be871461013a5780633ccfd60b14610165575b600080fd5b34801561010457600080fd5b5061010d610355565b60405161011a9190611df8565b60405180910390f35b34801561012f57600080fd5b5061013861037b565b005b34801561014657600080fd5b5061014f610463565b60405161015c9190611e8a565b60405180910390f35b34801561017157600080fd5b5061017a610476565b005b6101846105f0565b005b34801561019257600080fd5b5061019b6109c5565b6040516101a89190611df8565b60405180910390f35b3480156101bd57600080fd5b506101d860048036038101906101d391906120ef565b6109eb565b005b3480156101e657600080fd5b5061020160048036038101906101fc91906121b2565b610f70565b60405161020e9190612314565b60405180910390f35b34801561022357600080fd5b5061023e600480360381019061023991906121b2565b611065565b005b34801561024c57600080fd5b5061025561114a565b6040516102629190611df8565b60405180910390f35b34801561027757600080fd5b5061028061116e565b60405161028d9190612345565b60405180910390f35b3480156102a257600080fd5b506102bd60048036038101906102b89190612360565b611174565b005b3480156102cb57600080fd5b506102d4611250565b6040516102e19190611df8565b60405180910390f35b3480156102f657600080fd5b506102ff611276565b60405161030c9190611df8565b60405180910390f35b34801561032157600080fd5b5061033c6004803603810190610337919061238d565b61129c565b005b34801561034a57600080fd5b50610353611664565b005b600160009054906101000a900473ffffffffffffffffffffffffffffffffffffffff1681565b60008054906101000a900473ffffffffffffffffffffffffffffffffffffffff1673ffffffffffffffffffffffffffffffffffffffff163373ffffffffffffffffffffffffffffffffffffffff1614806104225750600160009054906101000a900473ffffffffffffffffffffffffffffffffffffffff1673ffffffffffffffffffffffffffffffffffffffff163373ffffffffffffffffffffffffffffffffffffffff16145b610461576040517f08c379a000000000000000000000000000000000000000000000000000000000815260040161045890612417565b60405180910390fd5b565b600560149054906101000a900460ff1681565b6005600681111561048a57610489611e13565b5b600560149054906101000a900460ff1660068111156104ac576104ab611e13565b5b146104ec576040517f08c379a00000000000000000000000000000000000000000000000000000000081526004016104e3906124a9565b60405180910390fd5b600560009054906101000a900473ffffffffffffffffffffffffffffffffffffffff1673ffffffffffffffffffffffffffffffffffffffff163373ffffffffffffffffffffffffffffffffffffffff161461057c576040517f08c379a00000000000000000000000000000000000000000000000000000000081526004016105739061253b565b60405180910390fd5b6006600560146101000a81548160ff021916908360068111156105a2576105a1611e13565b5b02179055503373ffffffffffffffffffffffffffffffffffffffff166108fc479081150290604051600060405180830381858888f193505050501580156105ed573d6000803e3d6000fd5b50565b60008054906101000a900473ffffffffffffffffffffffffffffffffffffffff1673ffffffffffffffffffffffffffffffffffffffff163373ffffffffffffffffffffffffffffffffffffffff1614806106975750600160009054906101000a900473ffffffffffffffffffffffffffffffffffffffff1673ffffffffffffffffffffffffffffffffffffffff163373ffffffffffffffffffffffffffffffffffffffff16145b6106d6576040517f08c379a00000000000000000000000000000000000000000000000000000000081526004016106cd90612417565b60405180910390fd5b600160068111156106ea576106e9611e13565b5b600560149054906101000a900460ff16600681111561070c5761070b611e13565b5b1461074c576040517f08c379a0000000000000000000000000000000000000000000000000000000008152600401610743906125cd565b60405180910390fd5b600660003373ffffffffffffffffffffffffffffffffffffffff1673ffffffffffffffffffffffffffffffffffffffff16815260200190815260200160002060000160009054906101000a900460ff16156107dc576040517f08c379a00000000000000000000000000000000000000000000000000000000081526004016107d390612639565b60405180910390fd5b6002543414610820576040517f08c379a0000000000000000000000000000000000000000000000000000000008152600401610817906126a5565b60405180910390fd5b6001600660003373ffffffffffffffffffffffffffffffffffffffff1673ffffffffffffffffffffffffffffffffffffffff16815260200190815260200160002060000160006101000a81548160ff021916908315150217905550600660008060009054906101000a900473ffffffffffffffffffffffffffffffffffffffff1673ffffffffffffffffffffffffffffffffffffffff1673ffffffffffffffffffffffffffffffffffffffff16815260200190815260200160002060000160009054906101000a900460ff168015610966575060066000600160009054906101000a900473ffffffffffffffffffffffffffffffffffffffff1673ffffffffffffffffffffffffffffffffffffffff1673ffffffffffffffffffffffffffffffffffffffff16815260200190815260200160002060000160009054906101000a900460ff165b156109c3576002600560146101000a81548160ff0219169083600681111561099157610990611e13565b5b02179055507f27d9a52f95fdd3621a4c52ec37df3801e5b3b2fab733498d482ea2fc2b94b30360405160405180910390a15b565b600560009054906101000a900473ffffffffffffffffffffffffffffffffffffffff1681565b600360009054906101000a900473ffffffffffffffffffffffffffffffffffffffff1673ffffffffffffffffffffffffffffffffffffffff163373ffffffffffffffffffffffffffffffffffffffff1614610a4557600080fd5b60036006811115610a5957610a58611e13565b5b600560149054906101000a900460ff166006811115610a7b57610a7a611e13565b5b14610abb576040517f08c379a0000000000000000000000000000000000000000000000000000000008152600401610ab290612737565b60405180910390fd5b6000610ac633611763565b905060006001600660008473ffffffffffffffffffffffffffffffffffffffff1673ffffffffffffffffffffffffffffffffffffffff16815260200190815260200160002060020180549050610b1c9190612786565b90508660ff16600660008473ffffffffffffffffffffffffffffffffffffffff1673ffffffffffffffffffffffffffffffffffffffff1681526020019081526020016000206002018281548110610b7657610b756127ba565b5b9060005260206000200160000160009054906101000a900460ff1660ff1614610bd4576040517f08c379a0000000000000000000000000000000000000000000000000000000008152600401610bcb9061285b565b60405180910390fd5b60016003811115610be857610be7611e13565b5b600660008473ffffffffffffffffffffffffffffffffffffffff1673ffffffffffffffffffffffffffffffffffffffff1681526020019081526020016000206002018281548110610c3c57610c3b6127ba565b5b9060005260206000200160000160019054906101000a900460ff166003811115610c6957610c68611e13565b5b14610ca9576040517f08c379a0000000000000000000000000000000000000000000000000000000008152600401610ca0906128c7565b60405180910390fd5b610cb58787878761180a565b610cc957610cc2826118b8565b5050610f69565b8515610ed2576002600660008473ffffffffffffffffffffffffffffffffffffffff1673ffffffffffffffffffffffffffffffffffffffff1681526020019081526020016000206002018281548110610d2557610d246127ba565b5b9060005260206000200160000160016101000a81548160ff02191690836003811115610d5457610d53611e13565b5b0217905550600660003373ffffffffffffffffffffffffffffffffffffffff1673ffffffffffffffffffffffffffffffffffffffff168152602001908152602001600020600401600081819054906101000a900460ff1680929190610db8906128e7565b91906101000a81548160ff021916908360ff16021790555050600a60ff16600660003373ffffffffffffffffffffffffffffffffffffffff1673ffffffffffffffffffffffffffffffffffffffff16815260200190815260200160002060040160009054906101000a900460ff1660ff1603610ecd5781600460006101000a81548173ffffffffffffffffffffffffffffffffffffffff021916908373ffffffffffffffffffffffffffffffffffffffff1602179055506004600560146101000a81548160ff02191690836006811115610e9557610e94611e13565b5b02179055507fa96a0414e8f431a794f289d635c13771fe3dd21c1f91265eebd92ae2ee86929b60405160405180910390a15050610f69565b610f5d565b6003600660008473ffffffffffffffffffffffffffffffffffffffff1673ffffffffffffffffffffffffffffffffffffffff1681526020019081526020016000206002018281548110610f2857610f276127ba565b5b9060005260206000200160000160016101000a81548160ff02191690836003811115610f5757610f56611e13565b5b02179055505b610f6683611993565b50505b5050505050565b6060600660008373ffffffffffffffffffffffffffffffffffffffff1673ffffffffffffffffffffffffffffffffffffffff168152602001908152602001600020600201805480602002602001604051908101604052809291908181526020016000905b8282101561105a578382906000526020600020016040518060400160405290816000820160009054906101000a900460ff1660ff1660ff1681526020016000820160019054906101000a900460ff16600381111561103557611034611e13565b5b600381111561104757611046611e13565b5b8152505081526020019060010190610fd4565b505050509050919050565b6000600681111561107957611078611e13565b5b600560149054906101000a900460ff16600681111561109b5761109a611e13565b5b146110db576040517f08c379a00000000000000000000000000000000000000000000000000000000081526004016110d290612982565b60405180910390fd5b80600160006101000a81548173ffffffffffffffffffffffffffffffffffffffff021916908373ffffffffffffffffffffffffffffffffffffffff1602179055506001600560146101000a81548160ff0219169083600681111561114257611141611e13565b5b021790555050565b60008054906101000a900473ffffffffffffffffffffffffffffffffffffffff1681565b60025481565b600360009054906101000a900473ffffffffffffffffffffffffffffffffffffffff1673ffffffffffffffffffffffffffffffffffffffff163373ffffffffffffffffffffffffffffffffffffffff16146111ce57600080fd5b600360068111156111e2576111e1611e13565b5b600560149054906101000a900460ff16600681111561120457611203611e13565b5b14611244576040517f08c379a000000000000000000000000000000000000000000000000000000000815260040161123b90612737565b60405180910390fd5b61124d81611993565b50565b600360009054906101000a900473ffffffffffffffffffffffffffffffffffffffff1681565b600460009054906101000a900473ffffffffffffffffffffffffffffffffffffffff1681565b60008054906101000a900473ffffffffffffffffffffffffffffffffffffffff1673ffffffffffffffffffffffffffffffffffffffff163373ffffffffffffffffffffffffffffffffffffffff1614806113435750600160009054906101000a900473ffffffffffffffffffffffffffffffffffffffff1673ffffffffffffffffffffffffffffffffffffffff163373ffffffffffffffffffffffffffffffffffffffff16145b611382576040517f08c379a000000000000000000000000000000000000000000000000000000000815260040161137990612417565b60405180910390fd5b6002600681111561139657611395611e13565b5b600560149054906101000a900460ff1660068111156113b8576113b7611e13565b5b146113f8576040517f08c379a00000000000000000000000000000000000000000000000000000000081526004016113ef90612a14565b60405180910390fd5b6000801b600660003373ffffffffffffffffffffffffffffffffffffffff1673ffffffffffffffffffffffffffffffffffffffff168152602001908152602001600020600101541461147f576040517f08c379a000000000000000000000000000000000000000000000000000000000815260040161147690612a80565b60405180910390fd5b80600660003373ffffffffffffffffffffffffffffffffffffffff1673ffffffffffffffffffffffffffffffffffffffff168152602001908152602001600020600101819055506000801b600660008060009054906101000a900473ffffffffffffffffffffffffffffffffffffffff1673ffffffffffffffffffffffffffffffffffffffff1673ffffffffffffffffffffffffffffffffffffffff16815260200190815260200160002060010154141580156115a357506000801b60066000600160009054906101000a900473ffffffffffffffffffffffffffffffffffffffff1673ffffffffffffffffffffffffffffffffffffffff1673ffffffffffffffffffffffffffffffffffffffff1681526020019081526020016000206001015414155b15611661576003600560146101000a81548160ff021916908360068111156115ce576115cd611e13565b5b021790555060008054906101000a900473ffffffffffffffffffffffffffffffffffffffff16600360006101000a81548173ffffffffffffffffffffffffffffffffffffffff021916908373ffffffffffffffffffffffffffffffffffffffff1602179055507f4cf2e2dcdeacb2322843921968cb0e6a97a686594cb0a4f29abb65a7ed65195260405160405180910390a15b50565b60008054906101000a900473ffffffffffffffffffffffffffffffffffffffff1673ffffffffffffffffffffffffffffffffffffffff163373ffffffffffffffffffffffffffffffffffffffff16148061170b5750600160009054906101000a900473ffffffffffffffffffffffffffffffffffffffff1673ffffffffffffffffffffffffffffffffffffffff163373ffffffffffffffffffffffffffffffffffffffff16145b61174a576040517f08c379a000000000000000000000000000000000000000000000000000000000815260040161174190612417565b60405180910390fd5b600061175533611763565b9050611760816118b8565b50565b60008060009054906101000a900473ffffffffffffffffffffffffffffffffffffffff1673ffffffffffffffffffffffffffffffffffffffff168273ffffffffffffffffffffffffffffffffffffffff16146117df5760008054906101000a900473ffffffffffffffffffffffffffffffffffffffff16611803565b600160009054906101000a900473ffffffffffffffffffffffffffffffffffffffff165b9050919050565b60008085858560405160200161182293929190612abe565b604051602081830303815290604052805190602001206040516020016118489190612b16565b6040516020818303038152906040528051906020012090506118ad83600660003373ffffffffffffffffffffffffffffffffffffffff1673ffffffffffffffffffffffffffffffffffffffff1681526020019081526020016000206001015483611d08565b915050949350505050565b80600460006101000a81548173ffffffffffffffffffffffffffffffffffffffff021916908373ffffffffffffffffffffffffffffffffffffffff16021790555080600560006101000a81548173ffffffffffffffffffffffffffffffffffffffff021916908373ffffffffffffffffffffffffffffffffffffffff16021790555060058060146101000a81548160ff0219169083600681111561195f5761195e611e13565b5b02179055507f07ac267484df2273e35b6fe5bf62edf0a22f6d2436839af80d2d5ff5028fc35960405160405180910390a150565b600660003373ffffffffffffffffffffffffffffffffffffffff1673ffffffffffffffffffffffffffffffffffffffff16815260200190815260200160002060030160008260ff1660ff16815260200190815260200160002060009054906101000a900460ff1615611a3a576040517f08c379a0000000000000000000000000000000000000000000000000000000008152600401611a3190612b7d565b60405180910390fd5b604060ff168160ff1610611a83576040517f08c379a0000000000000000000000000000000000000000000000000000000008152600401611a7a90612be9565b60405180910390fd5b600660003373ffffffffffffffffffffffffffffffffffffffff1673ffffffffffffffffffffffffffffffffffffffff16815260200190815260200160002060020160405180604001604052808360ff16815260200160016003811115611aed57611aec611e13565b5b8152509080600181540180825580915050600190039060005260206000200160009091909190915060008201518160000160006101000a81548160ff021916908360ff16021790555060208201518160000160016101000a81548160ff02191690836003811115611b6157611b60611e13565b5b021790555050506001600660003373ffffffffffffffffffffffffffffffffffffffff1673ffffffffffffffffffffffffffffffffffffffff16815260200190815260200160002060030160008360ff1660ff16815260200190815260200160002060006101000a81548160ff02191690831515021790555060008054906101000a900473ffffffffffffffffffffffffffffffffffffffff1673ffffffffffffffffffffffffffffffffffffffff16600360009054906101000a900473ffffffffffffffffffffffffffffffffffffffff1673ffffffffffffffffffffffffffffffffffffffff1614611c755760008054906101000a900473ffffffffffffffffffffffffffffffffffffffff16611c99565b600160009054906101000a900473ffffffffffffffffffffffffffffffffffffffff165b600360006101000a81548173ffffffffffffffffffffffffffffffffffffffff021916908373ffffffffffffffffffffffffffffffffffffffff1602179055507f8441454a1a5df9634c4ede24cff9ca643cf1d86f583e47ec26925580342f558f60405160405180910390a150565b600082611d158584611d1f565b1490509392505050565b60008082905060005b8451811015611d6a57611d5582868381518110611d4857611d476127ba565b5b6020026020010151611d75565b91508080611d6290612c09565b915050611d28565b508091505092915050565b6000818310611d8d57611d888284611da0565b611d98565b611d978383611da0565b5b905092915050565b600082600052816020526040600020905092915050565b600073ffffffffffffffffffffffffffffffffffffffff82169050919050565b6000611de282611db7565b9050919050565b611df281611dd7565b82525050565b6000602082019050611e0d6000830184611de9565b92915050565b7f4e487b7100000000000000000000000000000000000000000000000000000000600052602160045260246000fd5b60078110611e5357611e52611e13565b5b50565b6000819050611e6482611e42565b919050565b6000611e7482611e56565b9050919050565b611e8481611e69565b82525050565b6000602082019050611e9f6000830184611e7b565b92915050565b6000604051905090565b600080fd5b600080fd5b600060ff82169050919050565b611ecf81611eb9565b8114611eda57600080fd5b50565b600081359050611eec81611ec6565b92915050565b60008115159050919050565b611f0781611ef2565b8114611f1257600080fd5b50565b600081359050611f2481611efe565b92915050565b6000819050919050565b611f3d81611f2a565b8114611f4857600080fd5b50565b600081359050611f5a81611f34565b92915050565b600080fd5b6000601f19601f8301169050919050565b7f4e487b7100000000000000000000000000000000000000000000000000000000600052604160045260246000fd5b611fae82611f65565b810181811067ffffffffffffffff82111715611fcd57611fcc611f76565b5b80604052505050565b6000611fe0611ea5565b9050611fec8282611fa5565b919050565b600067ffffffffffffffff82111561200c5761200b611f76565b5b602082029050602081019050919050565b600080fd5b6000819050919050565b61203581612022565b811461204057600080fd5b50565b6000813590506120528161202c565b92915050565b600061206b61206684611ff1565b611fd6565b9050808382526020820190506020840283018581111561208e5761208d61201d565b5b835b818110156120b757806120a38882612043565b845260208401935050602081019050612090565b5050509392505050565b600082601f8301126120d6576120d5611f60565b5b81356120e6848260208601612058565b91505092915050565b600080600080600060a0868803121561210b5761210a611eaf565b5b600061211988828901611edd565b955050602061212a88828901611f15565b945050604061213b88828901611f4b565b935050606086013567ffffffffffffffff81111561215c5761215b611eb4565b5b612168888289016120c1565b925050608061217988828901611edd565b9150509295509295909350565b61218f81611dd7565b811461219a57600080fd5b50565b6000813590506121ac81612186565b92915050565b6000602082840312156121c8576121c7611eaf565b5b60006121d68482850161219d565b91505092915050565b600081519050919050565b600082825260208201905092915050565b6000819050602082019050919050565b61221481611eb9565b82525050565b6004811061222b5761222a611e13565b5b50565b600081905061223c8261221a565b919050565b600061224c8261222e565b9050919050565b61225c81612241565b82525050565b604082016000820151612278600085018261220b565b50602082015161228b6020850182612253565b50505050565b600061229d8383612262565b60408301905092915050565b6000602082019050919050565b60006122c1826121df565b6122cb81856121ea565b93506122d6836121fb565b8060005b838110156123075781516122ee8882612291565b97506122f9836122a9565b9250506001810190506122da565b5085935050505092915050565b6000602082019050818103600083015261232e81846122b6565b905092915050565b61233f81611f2a565b82525050565b600060208201905061235a6000830184612336565b92915050565b60006020828403121561237657612375611eaf565b5b600061238484828501611edd565b91505092915050565b6000602082840312156123a3576123a2611eaf565b5b60006123b184828501612043565b91505092915050565b600082825260208201905092915050565b7f596f75206172656e2774206120706c61796572206f6620746869732067616d65600082015250565b60006124016020836123ba565b915061240c826123cb565b602082019050919050565b60006020820190508181036000830152612430816123f4565b9050919050565b7f546869732067616d652069736e277420696e207468652077697468647261772060008201527f7068617365000000000000000000000000000000000000000000000000000000602082015250565b60006124936025836123ba565b915061249e82612437565b604082019050919050565b600060208201905081810360008301526124c281612486565b9050919050565b7f4f6e6c79207468652077696e6e65722063616e2077697468647261772074686560008201527f207072697a650000000000000000000000000000000000000000000000000000602082015250565b60006125256026836123ba565b9150612530826124c9565b604082019050919050565b6000602082019050818103600083015261255481612518565b9050919050565b7f546869732067616d652069736e277420696e2074686520706179696e6720706860008201527f6173650000000000000000000000000000000000000000000000000000000000602082015250565b60006125b76023836123ba565b91506125c28261255b565b604082019050919050565b600060208201905081810360008301526125e6816125aa565b9050919050565b7f42657420616c7265616479206465706f73697465640000000000000000000000600082015250565b60006126236015836123ba565b915061262e826125ed565b602082019050919050565b6000602082019050818103600083015261265281612616565b9050919050565b7f4d75737420706179207468652061677265656420616d6f756e74000000000000600082015250565b600061268f601a836123ba565b915061269a82612659565b602082019050919050565b600060208201905081810360008301526126be81612682565b9050919050565b7f546869732067616d652069736e277420696e2074686520706c6179696e67207060008201527f6861736500000000000000000000000000000000000000000000000000000000602082015250565b60006127216024836123ba565b915061272c826126c5565b604082019050919050565b6000602082019050818103600083015261275081612714565b9050919050565b7f4e487b7100000000000000000000000000000000000000000000000000000000600052601160045260246000fd5b600061279182611f2a565b915061279c83611f2a565b92508282039050818111156127b4576127b3612757565b5b92915050565b7f4e487b7100000000000000000000000000000000000000000000000000000000600052603260045260246000fd5b7f53746f72656420616e642073656e7420696e6465786573206f6620746865207360008201527f686f7420746f20636f6e6669726d20646f6e2774206d61746368000000000000602082015250565b6000612845603a836123ba565b9150612850826127e9565b604082019050919050565b6000602082019050818103600083015261287481612838565b9050919050565b7f496e76616c69642063656c6c2076616c75650000000000000000000000000000600082015250565b60006128b16012836123ba565b91506128bc8261287b565b602082019050919050565b600060208201905081810360008301526128e0816128a4565b9050919050565b60006128f282611eb9565b915060ff820361290557612904612757565b5b600182019050919050565b7f546869732067616d652069736e277420696e207468652077616974696e67207060008201527f6861736500000000000000000000000000000000000000000000000000000000602082015250565b600061296c6024836123ba565b915061297782612910565b604082019050919050565b6000602082019050818103600083015261299b8161295f565b9050919050565b7f546869732067616d652069736e277420696e2074686520706c6163696e67207060008201527f6861736500000000000000000000000000000000000000000000000000000000602082015250565b60006129fe6024836123ba565b9150612a09826129a2565b604082019050919050565b60006020820190508181036000830152612a2d816129f1565b9050919050565b7f426f61726420616c726561647920636f6d6d6974746564000000000000000000600082015250565b6000612a6a6017836123ba565b9150612a7582612a34565b602082019050919050565b60006020820190508181036000830152612a9981612a5d565b9050919050565b612aa981611eb9565b82525050565b612ab881611ef2565b82525050565b6000606082019050612ad36000830186612aa0565b612ae06020830185612aaf565b612aed6040830184612336565b949350505050565b6000819050919050565b612b10612b0b82612022565b612af5565b82525050565b6000612b228284612aff565b60208201915081905092915050565b7f546861742063656c6c2068617320616c7265616479206265656e2073686f7400600082015250565b6000612b67601f836123ba565b9150612b7282612b31565b602082019050919050565b60006020820190508181036000830152612b9681612b5a565b9050919050565b7f496e76616c69642063656c6c20696e6465780000000000000000000000000000600082015250565b6000612bd36012836123ba565b9150612bde82612b9d565b602082019050919050565b60006020820190508181036000830152612c0281612bc6565b9050919050565b6000612c1482611f2a565b91507fffffffffffffffffffffffffffffffffffffffffffffffffffffffffffffffff8203612c4657612c45612757565b5b60018201905091905056fea26469706673582212207fff3ef832e93e41fd8924c2c99ea7252eb068ae7c5b333823b88e30168d75ec64736f6c63430008130033",
  "immutableReferences": {},
  "source": "// SPDX-License-Identifier: MIT\npragma solidity >=0.8.0 <0.9.0;\n\nimport \"@openzeppelin/contracts/utils/cryptography/MerkleProof.sol\";\n\ncontract Battleship {\n    // ---- Local constants\n    // number of cells in the board (default: 8 * 8 = 64)\n    uint8 constant BOARD_SIZE = 64;\n    // number of ships for each player (default: 10)\n    uint8 constant SHIP_COUNT = 10;\n\n    // ---- Local variables\n    address public playerOne;\n    address public playerTwo;\n    uint256 public agreedBet;\n    address public playerTurn;\n    address public winner;\n    address public verifiedWinner;\n\n    // various phases of the game\n    enum Phase {\n        Waiting,\n        Paying,\n        Placing,\n        Playing,\n        Verifying,\n        Withdraw,\n        End\n    }\n\n    // the current phase of the game\n    Phase public gamePhase;\n\n    // possible values of a cell\n    enum Cell {\n        None,\n        Unconfirm,\n        Sunk,\n        Miss\n    }\n\n    struct Shot {\n        uint8 index;\n        Cell value;\n    }\n\n    // player's information\n    struct Player {\n        bool payedBet;\n        bytes32 treeRoot;\n        Shot[] shots;\n        mapping(uint8 => bool) shotsMap;\n        uint8 hits;\n    }\n\n    mapping(address => Player) players;\n\n    // ---- Events\n    // emitted when both players paid the bet\n    event BetPayed();\n    // emitted when both players placed their ships\n    event GameStart();\n    // emitted when a player takes a shot\n    event ShotTaken();\n    // emitted when the game is won by someone\n    event Won();\n    // emitted when the winner is verified\n    event WinnerVerified();\n\n    // ---- Modifiers\n    // checks that the sender is player one or two\n    modifier isPlayer() {\n        require(\n            msg.sender == playerOne || msg.sender == playerTwo,\n            \"You aren't a player of this game\"\n        );\n        _;\n    }\n\n    // checks if it's the message sender's turn\n    modifier isPlayerTurn() {\n        require(msg.sender == playerTurn);\n        _;\n    }\n\n    // checks for the various game's phases\n    modifier waitingPhase() {\n        require(\n            gamePhase == Phase.Waiting,\n            \"This game isn't in the waiting phase\"\n        );\n        _;\n    }\n\n    modifier payingPhase() {\n        require(\n            gamePhase == Phase.Paying,\n            \"This game isn't in the paying phase\"\n        );\n        _;\n    }\n\n    modifier placingPhase() {\n        require(\n            gamePhase == Phase.Placing,\n            \"This game isn't in the placing phase\"\n        );\n        _;\n    }\n\n    modifier playingPhase() {\n        require(\n            gamePhase == Phase.Playing,\n            \"This game isn't in the playing phase\"\n        );\n        _;\n    }\n\n    modifier verifyingPhase() {\n        require(\n            gamePhase == Phase.Verifying,\n            \"This game isn't in the verifying phase\"\n        );\n        _;\n    }\n\n    modifier withdrawPhase() {\n        require(\n            gamePhase == Phase.Withdraw,\n            \"This game isn't in the withdraw phase\"\n        );\n        _;\n    }\n\n    // ---- External functions\n    // contract constructor\n    constructor(address creator, uint256 bet) {\n        playerOne = creator;\n        agreedBet = bet;\n        gamePhase = Phase.Waiting;\n    }\n\n    // adds the second player to the game\n    function addPlayerTwo(address player) external waitingPhase {\n        playerTwo = player;\n        gamePhase = Phase.Paying;\n    }\n\n    // deposits the agreed bet and adds the second player\n    function depositBet() external payable isPlayer payingPhase {\n        require(!players[msg.sender].payedBet, \"Bet already deposited\");\n        require(msg.value == agreedBet, \"Must pay the agreed amount\");\n        players[msg.sender].payedBet = true;\n        if (players[playerOne].payedBet && players[playerTwo].payedBet) {\n            gamePhase = Phase.Placing;\n            emit BetPayed();\n        }\n    }\n\n    // saves the Merkle tree root of the sender\n    function commitBoard(\n        bytes32 merkleTreeRoot\n    ) external isPlayer placingPhase {\n        require(players[msg.sender].treeRoot == 0, \"Board already committed\");\n        players[msg.sender].treeRoot = merkleTreeRoot;\n        if (\n            players[playerOne].treeRoot != 0 && players[playerTwo].treeRoot != 0\n        ) {\n            gamePhase = Phase.Playing;\n            playerTurn = playerOne;\n            emit GameStart();\n        }\n    }\n\n    // first shot, nothing to confirm\n    function shoot(uint8 index) external isPlayerTurn playingPhase {\n        takeShot(index);\n    }\n\n    // confirms a hit/miss of the opponent and then shoots\n    function confirmAndShoot(\n        uint8 index,\n        bool ship,\n        uint256 salt,\n        bytes32[] memory proof,\n        uint8 shotIndex\n    ) external isPlayerTurn playingPhase {\n        address opponent = getOpponent(msg.sender);\n        uint lastIndex = players[opponent].shots.length - 1;\n        require(\n            players[opponent].shots[lastIndex].index == index,\n            \"Stored and sent indexes of the shot to confirm don't match\"\n        );\n        require(\n            players[opponent].shots[lastIndex].value == Cell.Unconfirm,\n            \"Invalid cell value\"\n        );\n        if (!merkleVerify(index, ship, salt, proof)) {\n            declareWinner(opponent);\n            return;\n        }\n        if (ship) {\n            players[opponent].shots[lastIndex].value = Cell.Sunk;\n            players[msg.sender].hits++;\n            if (players[msg.sender].hits == SHIP_COUNT) {\n                winner = opponent;\n                gamePhase = Phase.Verifying;\n                emit Won();\n                return;\n            }\n        } else {\n            players[opponent].shots[lastIndex].value = Cell.Miss;\n        }\n        takeShot(shotIndex);\n    }\n\n    // returns the shots taken by a player\n    function getPlayerShots(\n        address player\n    ) external view returns (Shot[] memory) {\n        return players[player].shots;\n    }\n\n    // reports the opponent\n    function report() external isPlayer {}\n\n    // forfeits the game\n    function forfeit() external isPlayer {\n        address opponent = getOpponent(msg.sender);\n        declareWinner(opponent);\n    }\n\n    // transfers the contract's balance to the winner's wallet\n    function withdraw() external withdrawPhase {\n        require(\n            msg.sender == verifiedWinner,\n            \"Only the winner can withdraw the prize\"\n        );\n        gamePhase = Phase.End;\n        payable(msg.sender).transfer(address(this).balance);\n    }\n\n    // ---- Internal functions\n    // takes a shot given an index\n    function takeShot(uint8 index) internal {\n        require(\n            !players[msg.sender].shotsMap[index],\n            \"That cell has already been shot\"\n        );\n        require(index < BOARD_SIZE, \"Invalid cell index\");\n        players[msg.sender].shots.push(Shot(index, Cell.Unconfirm));\n        players[msg.sender].shotsMap[index] = true;\n        playerTurn = playerTurn == playerOne ? playerTwo : playerOne;\n        emit ShotTaken();\n    }\n\n    // verifies that the value is contained in the tree\n    function merkleVerify(\n        uint8 index,\n        bool ship,\n        uint256 salt,\n        bytes32[] memory proof\n    ) internal view returns (bool) {\n        bytes32 leaf = keccak256(\n            bytes.concat(keccak256(abi.encode(index, ship, salt)))\n        );\n        return MerkleProof.verify(proof, players[msg.sender].treeRoot, leaf);\n    }\n\n    // returns the address of the sender's opponent\n    function getOpponent(address sender) internal view returns (address) {\n        return sender == playerOne ? playerTwo : playerOne;\n    }\n\n    // sets player as the game's winner\n    function declareWinner(address player) internal {\n        winner = player;\n        verifiedWinner = player;\n        gamePhase = Phase.Withdraw;\n        emit WinnerVerified();\n    }\n}\n",
  "sourcePath": "/home/asel/Documents/GitHub/ethereum-battleship/contracts/Battleship.sol",
  "compiler": {
    "name": "solc",
    "version": "0.8.19+commit.7dd6d404.Emscripten.clang"
  },
  "schemaVersion": "3.4.14",
  "updatedAt": "2023-08-18T15:15:18.274Z",
  "devdoc": {
    "kind": "dev",
    "methods": {},
    "version": 1
  },
  "userdoc": {
    "kind": "user",
    "methods": {},
    "version": 1
  }
}