{
  "contractName": "Battleship",
  "abi": [
    {
      "inputs": [
        {
          "internalType": "address",
          "name": "creator",
          "type": "address"
        }
      ],
      "stateMutability": "nonpayable",
      "type": "constructor"
    },
    {
      "inputs": [],
      "name": "playerOne",
      "outputs": [
        {
          "internalType": "address",
          "name": "",
          "type": "address"
        }
      ],
      "stateMutability": "view",
      "type": "function"
    },
    {
      "inputs": [],
      "name": "playerTwo",
      "outputs": [
        {
          "internalType": "address",
          "name": "",
          "type": "address"
        }
      ],
      "stateMutability": "view",
      "type": "function"
    },
    {
      "inputs": [
        {
          "internalType": "address",
          "name": "player",
          "type": "address"
        }
      ],
      "name": "addPlayerTwo",
      "outputs": [],
      "stateMutability": "nonpayable",
      "type": "function"
    }
  ],
  "bytecode": "0x608060405234801561001057600080fd5b50604051610333380380610333833981810160405281019061003291906100db565b806000806101000a81548173ffffffffffffffffffffffffffffffffffffffff021916908373ffffffffffffffffffffffffffffffffffffffff16021790555050610108565b600080fd5b600073ffffffffffffffffffffffffffffffffffffffff82169050919050565b60006100a88261007d565b9050919050565b6100b88161009d565b81146100c357600080fd5b50565b6000815190506100d5816100af565b92915050565b6000602082840312156100f1576100f0610078565b5b60006100ff848285016100c6565b91505092915050565b61021c806101176000396000f3fe608060405234801561001057600080fd5b50600436106100415760003560e01c80630a9f85dd14610046578063993eb64514610064578063bcffcf4114610080575b600080fd5b61004e61009e565b60405161005b919061016d565b60405180910390f35b61007e600480360381019061007991906101b9565b6100c4565b005b610088610108565b604051610095919061016d565b60405180910390f35b600160009054906101000a900473ffffffffffffffffffffffffffffffffffffffff1681565b80600160006101000a81548173ffffffffffffffffffffffffffffffffffffffff021916908373ffffffffffffffffffffffffffffffffffffffff16021790555050565b60008054906101000a900473ffffffffffffffffffffffffffffffffffffffff1681565b600073ffffffffffffffffffffffffffffffffffffffff82169050919050565b60006101578261012c565b9050919050565b6101678161014c565b82525050565b6000602082019050610182600083018461015e565b92915050565b600080fd5b6101968161014c565b81146101a157600080fd5b50565b6000813590506101b38161018d565b92915050565b6000602082840312156101cf576101ce610188565b5b60006101dd848285016101a4565b9150509291505056fea2646970667358221220798802b5c2ea67d3aafb3055297ef4e42b9c53f4c61da5855ec87c1fa0cbb7ac64736f6c63430008130033",
  "immutableReferences": {},
  "source": "// SPDX-License-Identifier: MIT\npragma solidity >=0.8.0 <0.9.0;\n\nimport \"@openzeppelin/contracts/utils/cryptography/MerkleProof.sol\";\n\ncontract Battleship {\n\n  // ---- Local variables\n  address public playerOne;\n  address public playerTwo;\n\n  // ---- External functions\n  constructor(address creator) {\n    playerOne = creator;\n  }\n\n  function addPlayerTwo(address player) external {\n    playerTwo = player;\n  }\n}\n",
  "sourcePath": "/home/asel/Documents/GitHub/ethereum-battleship/contracts/Battleship.sol",
  "compiler": {
    "name": "solc",
    "version": "0.8.19+commit.7dd6d404.Emscripten.clang"
  },
  "schemaVersion": "3.4.14",
  "updatedAt": "2023-08-09T21:11:04.889Z",
  "devdoc": {
    "kind": "dev",
    "methods": {},
    "version": 1
  },
  "userdoc": {
    "kind": "user",
    "methods": {},
    "version": 1
  }
}