{
  "contractName": "Battleship",
  "abi": [
    {
      "inputs": [
        {
          "internalType": "address",
          "name": "creator",
          "type": "address"
        },
        {
          "internalType": "uint256",
          "name": "bet",
          "type": "uint256"
        }
      ],
      "stateMutability": "nonpayable",
      "type": "constructor"
    },
    {
      "anonymous": false,
      "inputs": [],
      "name": "BetPayed",
      "type": "event"
    },
    {
      "anonymous": false,
      "inputs": [],
      "name": "GameStart",
      "type": "event"
    },
    {
      "anonymous": false,
      "inputs": [],
      "name": "GameWon",
      "type": "event"
    },
    {
      "anonymous": false,
      "inputs": [
        {
          "indexed": true,
          "internalType": "address",
          "name": "player",
          "type": "address"
        }
      ],
      "name": "PlayerMoved",
      "type": "event"
    },
    {
      "anonymous": false,
      "inputs": [
        {
          "indexed": true,
          "internalType": "address",
          "name": "player",
          "type": "address"
        }
      ],
      "name": "PlayerReported",
      "type": "event"
    },
    {
      "anonymous": false,
      "inputs": [],
      "name": "ShotTaken",
      "type": "event"
    },
    {
      "anonymous": false,
      "inputs": [],
      "name": "WinnerVerified",
      "type": "event"
    },
    {
      "inputs": [],
      "name": "agreedBet",
      "outputs": [
        {
          "internalType": "uint256",
          "name": "",
          "type": "uint256"
        }
      ],
      "stateMutability": "view",
      "type": "function"
    },
    {
      "inputs": [],
      "name": "gamePhase",
      "outputs": [
        {
          "internalType": "enum Battleship.Phase",
          "name": "",
          "type": "uint8"
        }
      ],
      "stateMutability": "view",
      "type": "function"
    },
    {
      "inputs": [],
      "name": "playerOne",
      "outputs": [
        {
          "internalType": "address",
          "name": "",
          "type": "address"
        }
      ],
      "stateMutability": "view",
      "type": "function"
    },
    {
      "inputs": [],
      "name": "playerTurn",
      "outputs": [
        {
          "internalType": "address",
          "name": "",
          "type": "address"
        }
      ],
      "stateMutability": "view",
      "type": "function"
    },
    {
      "inputs": [],
      "name": "playerTwo",
      "outputs": [
        {
          "internalType": "address",
          "name": "",
          "type": "address"
        }
      ],
      "stateMutability": "view",
      "type": "function"
    },
    {
      "inputs": [],
      "name": "verifiedWinner",
      "outputs": [
        {
          "internalType": "address",
          "name": "",
          "type": "address"
        }
      ],
      "stateMutability": "view",
      "type": "function"
    },
    {
      "inputs": [],
      "name": "winner",
      "outputs": [
        {
          "internalType": "address",
          "name": "",
          "type": "address"
        }
      ],
      "stateMutability": "view",
      "type": "function"
    },
    {
      "inputs": [
        {
          "internalType": "address",
          "name": "player",
          "type": "address"
        }
      ],
      "name": "addPlayerTwo",
      "outputs": [],
      "stateMutability": "nonpayable",
      "type": "function"
    },
    {
      "inputs": [],
      "name": "depositBet",
      "outputs": [],
      "stateMutability": "payable",
      "type": "function"
    },
    {
      "inputs": [
        {
          "internalType": "bytes32",
          "name": "merkleTreeRoot",
          "type": "bytes32"
        }
      ],
      "name": "commitBoard",
      "outputs": [],
      "stateMutability": "nonpayable",
      "type": "function"
    },
    {
      "inputs": [
        {
          "internalType": "uint8",
          "name": "index",
          "type": "uint8"
        }
      ],
      "name": "shoot",
      "outputs": [],
      "stateMutability": "nonpayable",
      "type": "function"
    },
    {
      "inputs": [
        {
          "internalType": "uint8",
          "name": "index",
          "type": "uint8"
        },
        {
          "internalType": "bool",
          "name": "ship",
          "type": "bool"
        },
        {
          "internalType": "uint256",
          "name": "salt",
          "type": "uint256"
        },
        {
          "internalType": "bytes32[]",
          "name": "proof",
          "type": "bytes32[]"
        },
        {
          "internalType": "uint8",
          "name": "shotIndex",
          "type": "uint8"
        }
      ],
      "name": "confirmAndShoot",
      "outputs": [],
      "stateMutability": "nonpayable",
      "type": "function"
    },
    {
      "inputs": [
        {
          "internalType": "uint8[]",
          "name": "indexes",
          "type": "uint8[]"
        },
        {
          "internalType": "bool[]",
          "name": "cells",
          "type": "bool[]"
        },
        {
          "internalType": "uint256[]",
          "name": "salts",
          "type": "uint256[]"
        },
        {
          "internalType": "bytes32[]",
          "name": "proof",
          "type": "bytes32[]"
        },
        {
          "internalType": "bool[]",
          "name": "proofFlags",
          "type": "bool[]"
        }
      ],
      "name": "boardCheck",
      "outputs": [],
      "stateMutability": "nonpayable",
      "type": "function"
    },
    {
      "inputs": [
        {
          "internalType": "address",
          "name": "player",
          "type": "address"
        }
      ],
      "name": "getPlayerShots",
      "outputs": [
        {
          "components": [
            {
              "internalType": "uint8",
              "name": "index",
              "type": "uint8"
            },
            {
              "internalType": "enum Battleship.Cell",
              "name": "value",
              "type": "uint8"
            }
          ],
          "internalType": "struct Battleship.Shot[]",
          "name": "",
          "type": "tuple[]"
        }
      ],
      "stateMutability": "view",
      "type": "function"
    },
    {
      "inputs": [],
      "name": "report",
      "outputs": [],
      "stateMutability": "nonpayable",
      "type": "function"
    },
    {
      "inputs": [],
      "name": "verifyReport",
      "outputs": [],
      "stateMutability": "nonpayable",
      "type": "function"
    },
    {
      "inputs": [],
      "name": "forfeit",
      "outputs": [],
      "stateMutability": "nonpayable",
      "type": "function"
    },
    {
      "inputs": [],
      "name": "withdraw",
      "outputs": [],
      "stateMutability": "nonpayable",
      "type": "function"
    }
  ],
  "bytecode": "0x60806040523480156200001157600080fd5b506040516200267e3803806200267e833981016040819052620000349162000068565b600080546001600160a01b0319166001600160a01b0393909316929092179091556002556007805460ff19169055620000a4565b600080604083850312156200007c57600080fd5b82516001600160a01b03811681146200009457600080fd5b6020939093015192949293505050565b6125ca80620000b46000396000f3fe6080604052600436106101095760003560e01c8063993eb64511610095578063d30074d911610064578063d30074d9146102ac578063d925339a146102cc578063dfbf53ae146102ec578063ea66144a1461030c578063f3d86e4a1461032c57600080fd5b8063993eb64514610228578063bcffcf4114610248578063c807b0ff14610268578063cab3cae11461028c57600080fd5b80633fe34727116100dc5780633fe347271461019e57806344f72ab3146101a657806355c51f47146101bb5780635bc58e6b146101db5780636ff8fd7e146101fb57600080fd5b80630a9f85dd1461010e5780632606a10b1461014b5780633951be87146101625780633ccfd60b14610189575b600080fd5b34801561011a57600080fd5b5060015461012e906001600160a01b031681565b6040516001600160a01b0390911681526020015b60405180910390f35b34801561015757600080fd5b50610160610341565b005b34801561016e57600080fd5b5060075461017c9060ff1681565b604051610142919061204e565b34801561019557600080fd5b50610160610488565b6101606105a3565b3480156101b257600080fd5b50610160610797565b3480156101c757600080fd5b5060055461012e906001600160a01b031681565b3480156101e757600080fd5b506101606101f6366004612164565b6108d0565b34801561020757600080fd5b5061021b6102163660046121dd565b610ca7565b6040516101429190612206565b34801561023457600080fd5b506101606102433660046121dd565b610d5a565b34801561025457600080fd5b5060005461012e906001600160a01b031681565b34801561027457600080fd5b5061027e60025481565b604051908152602001610142565b34801561029857600080fd5b506101606102a7366004612268565b610df9565b3480156102b857600080fd5b5060035461012e906001600160a01b031681565b3480156102d857600080fd5b506101606102e7366004612347565b610e8f565b3480156102f857600080fd5b5060045461012e906001600160a01b031681565b34801561031857600080fd5b50610160610327366004612419565b611209565b34801561033857600080fd5b506101606113d3565b6000546001600160a01b031633148061036457506001546001600160a01b031633145b6103895760405162461bcd60e51b815260040161038090612432565b60405180910390fd5b610391611443565b600061039c336117d8565b6001600160a01b038116600090815260086020526040902060040154909150610100900460ff161561041b5760405162461bcd60e51b815260206004820152602260248201527f596f7520616c7265616479207265706f7274656420796f7572206f70706f6e656044820152611b9d60f21b6064820152608401610380565b6001600160a01b0381166000908152600860205260409020600401805461ff00191661010017905561044e60054361247d565b6006556040516001600160a01b038216907fa1ca43c06f569a62120bbf3d45561e5580e23352bf28954f734d6cd9901aed9e90600090a250565b600560075460ff1660068111156104a1576104a1612038565b146104fc5760405162461bcd60e51b815260206004820152602560248201527f546869732067616d652069736e277420696e2074686520776974686472617720604482015264706861736560d81b6064820152608401610380565b6005546001600160a01b031633146105655760405162461bcd60e51b815260206004820152602660248201527f4f6e6c79207468652077696e6e65722063616e20776974686472617720746865604482015265207072697a6560d01b6064820152608401610380565b60078054600660ff1990911617905560405133904780156108fc02916000818181858888f193505050501580156105a0573d6000803e3d6000fd5b50565b6000546001600160a01b03163314806105c657506001546001600160a01b031633145b6105e25760405162461bcd60e51b815260040161038090612432565b600160075460ff1660068111156105fb576105fb612038565b146106545760405162461bcd60e51b815260206004820152602360248201527f546869732067616d652069736e277420696e2074686520706179696e6720706860448201526261736560e81b6064820152608401610380565b61065c611812565b3360009081526008602052604090205460ff16156106b45760405162461bcd60e51b815260206004820152601560248201527410995d08185b1c9958591e4819195c1bdcda5d1959605a1b6044820152606401610380565b60025434146107055760405162461bcd60e51b815260206004820152601a60248201527f4d75737420706179207468652061677265656420616d6f756e740000000000006044820152606401610380565b33600090815260086020526040808220805460ff1916600117905581546001600160a01b0316825290205460ff16801561075957506001546001600160a01b031660009081526008602052604090205460ff165b15610795576007805460ff191660021790556040517f27d9a52f95fdd3621a4c52ec37df3801e5b3b2fab733498d482ea2fc2b94b30390600090a15b565b6000546001600160a01b03163314806107ba57506001546001600160a01b031633145b6107d65760405162461bcd60e51b815260040161038090612432565b6107de611443565b60006107e9336117d8565b6001600160a01b038116600090815260086020526040902060040154909150610100900460ff1661085c5760405162461bcd60e51b815260206004820152601f60248201527f596f75206469646e2774207265706f727420796f7572206f70706f6e656e74006044820152606401610380565b600654431061088357600480546001600160a01b031916339081179091556105a0906118dc565b6001600160a01b038116600081815260086020526040808220600401805461ff0019169055517f625ba646f05ab036edd0f8d88cd3926fe26722c0b6717841fcb9334334a4d0959190a250565b6003546001600160a01b0316331461091f5760405162461bcd60e51b815260206004820152601260248201527124ba13b9903737ba103cb7bab9103a3ab93760711b6044820152606401610380565b600360075460ff16600681111561093857610938612038565b146109555760405162461bcd60e51b815260040161038090612490565b61095d611812565b6000610968336117d8565b6001600160a01b03811660009081526008602052604081206002015491925090610994906001906124d4565b6001600160a01b0383166000908152600860205260409020600201805491925060ff891691839081106109c9576109c96124e7565b60009182526020909120015460ff1614610a4b5760405162461bcd60e51b815260206004820152603a60248201527f53746f72656420616e642073656e7420696e6465786573206f6620746865207360448201527f686f7420746f20636f6e6669726d20646f6e2774206d617463680000000000006064820152608401610380565b60016001600160a01b0383166000908152600860205260409020600201805483908110610a7a57610a7a6124e7565b600091825260209091200154610100900460ff166003811115610a9f57610a9f612038565b14610ae15760405162461bcd60e51b8152602060048201526012602482015271496e76616c69642063656c6c2076616c756560701b6044820152606401610380565b610aed87878787611933565b610b1c57600480546001600160a01b0319166001600160a01b038416179055610b15826118dc565b5050610ca0565b8515610c36576001600160a01b03821660009081526008602052604090206002908101805483908110610b5157610b516124e7565b6000918252602090912001805461ff001916610100836003811115610b7857610b78612038565b0217905550336000908152600860205260408120600401805460ff1691610b9e836124fd565b82546101009290920a60ff8181021990931691831602179091553360009081526008602052604090206004015416600919019050610c3157600480546001600160a01b0319166001600160a01b0384161781556007805460ff191660018302179055506040517fd97b93932fb19b110a4bdb280c92d957b09506af4eb00c0bfe43f9e28488408290600090a15050610ca0565b610c94565b6001600160a01b038216600090815260086020526040902060020180546003919083908110610c6757610c676124e7565b6000918252602090912001805461ff001916610100836003811115610c8e57610c8e612038565b02179055505b610c9d836119b8565b50505b5050505050565b6001600160a01b0381166000908152600860209081526040808320600201805482518185028101850190935280835260609492939192909184015b82821015610d4f57600084815260209081902060408051808201909152908401805460ff80821684529293919291840191610100909104166003811115610d2b57610d2b612038565b6003811115610d3c57610d3c612038565b8152505081526020019060010190610ce2565b505050509050919050565b600060075460ff166006811115610d7357610d73612038565b14610dcc5760405162461bcd60e51b8152602060048201526024808201527f546869732067616d652069736e277420696e207468652077616974696e6720706044820152636861736560e01b6064820152608401610380565b600180546001600160a01b0319166001600160a01b0383161781556007805460ff19168280021790555050565b6003546001600160a01b03163314610e485760405162461bcd60e51b815260206004820152601260248201527124ba13b9903737ba103cb7bab9103a3ab93760711b6044820152606401610380565b600360075460ff166006811115610e6157610e61612038565b14610e7e5760405162461bcd60e51b815260040161038090612490565b610e86611812565b6105a0816119b8565b600460075460ff166006811115610ea857610ea8612038565b14610f045760405162461bcd60e51b815260206004820152602660248201527f546869732067616d652069736e277420696e2074686520766572696679696e6760448201526520706861736560d01b6064820152608401610380565b610f0c611812565b6004546001600160a01b03163314610f715760405162461bcd60e51b815260206004820152602260248201527f4f6e6c79207468652077696e6e65722063616e2073656e642074686520626f616044820152611c9960f21b6064820152608401610380565b8351855114610f925760405162461bcd60e51b81526004016103809061251c565b8251855114610fb35760405162461bcd60e51b81526004016103809061251c565b6000610fbe336117d8565b33600090815260086020526040902060010154909150610fe49084908490898989611b9a565b610ff757610ff1816118dc565b50610ca0565b6000805b87518160ff16101561116757604060ff16888260ff1681518110611021576110216124e7565b602002602001015160ff16106110425761103a836118dc565b505050610ca0565b60086000846001600160a01b03166001600160a01b031681526020019081526020016000206003016000898360ff1681518110611081576110816124e7565b60209081029190910181015160ff9081168352908201929092526040016000205416156110b15761103a836118dc565b600160086000856001600160a01b03166001600160a01b0316815260200190815260200160002060030160008a8460ff16815181106110f2576110f26124e7565b602002602001015160ff1660ff16815260200190815260200160002060006101000a81548160ff021916908315150217905550868160ff168151811061113a5761113a6124e7565b6020026020010151156111555781611151816124fd565b9250505b8061115f816124fd565b915050610ffb565b5060005b604060ff821610156111c5576001600160a01b038316600090815260086020908152604080832060ff8086168552600390910190925290912054166111b35761103a836118dc565b806111bd816124fd565b91505061116b565b5033600090815260086020526040902060040154600a906111ea90839060ff16612562565b60ff1603611200576111fb336118dc565b610c9d565b610c9d826118dc565b6000546001600160a01b031633148061122c57506001546001600160a01b031633145b6112485760405162461bcd60e51b815260040161038090612432565b600260075460ff16600681111561126157611261612038565b146112ba5760405162461bcd60e51b8152602060048201526024808201527f546869732067616d652069736e277420696e2074686520706c6163696e6720706044820152636861736560e01b6064820152608401610380565b6112c2611812565b33600090815260086020526040902060010154156113225760405162461bcd60e51b815260206004820152601760248201527f426f61726420616c726561647920636f6d6d69747465640000000000000000006044820152606401610380565b33600090815260086020526040808220600190810184905582546001600160a01b0316835291200154158015906113745750600180546001600160a01b03166000908152600860205260409020015415155b156105a05760078054600360ff1990911681179091556000805482546001600160a01b0319166001600160a01b03909116179091556040517f4cf2e2dcdeacb2322843921968cb0e6a97a686594cb0a4f29abb65a7ed6519529190a150565b6000546001600160a01b03163314806113f657506001546001600160a01b031633145b6114125760405162461bcd60e51b815260040161038090612432565b600061141d336117d8565b600480546001600160a01b0319166001600160a01b03831617905590506105a0816118dc565b600061144e336117d8565b33600090815260086020526040902060040154909150610100900460ff16156114ca5760405162461bcd60e51b815260206004820152602860248201527f43616e2774207265706f727420696620796f75277265207265706f72746564206044820152673cb7bab939b2b63360c11b6064820152608401610380565b600060075460ff1660068111156114e3576114e3612038565b141580156115085750600560075460ff16600681111561150557611505612038565b14155b801561152b5750600660075460ff16600681111561152857611528612038565b14155b6115865760405162461bcd60e51b815260206004820152602660248201527f43616e2774207265706f727420696e2074686973207068617365206f66207468604482015265652067616d6560d01b6064820152608401610380565b600160075460ff16600681111561159f5761159f612038565b03611623576001600160a01b03811660009081526008602052604090205460ff16156105a05760405162461bcd60e51b815260206004820152602d60248201527f43616e2774207265706f72742c20796f7572206f70706f6e656e7420616c726560448201526c18591e4819195c1bdcda5d1959609a1b6064820152608401610380565b600260075460ff16600681111561163c5761163c612038565b036116d0576001600160a01b038116600090815260086020526040902060010154156105a05760405162461bcd60e51b815260206004820152603960248201527f43616e2774207265706f72742c20796f7572206f70706f6e656e74277320626f60448201527f6172642077617320616c726561647920636f6d6d6974746564000000000000006064820152608401610380565b600360075460ff1660068111156116e9576116e9612038565b0361174b576003546001600160a01b038281169116146105a05760405162461bcd60e51b815260206004820152601c60248201527f43616e2774207265706f72742c206974277320796f7572207475726e000000006044820152606401610380565b600460075460ff16600681111561176457611764612038565b036105a0576004546001600160a01b038281169116146105a05760405162461bcd60e51b815260206004820152602960248201527f43616e2774207265706f72742c20796f75206861766520746f2073656e6420796044820152681bdd5c88189bd85c9960ba1b6064820152608401610380565b600080546001600160a01b038381169116146117ff576000546001600160a01b031661180c565b6001546001600160a01b03165b92915050565b33600090815260086020526040902060040154610100900460ff16156107955760065443101561187f5733600081815260086020526040808220600401805461ff0019169055517f625ba646f05ab036edd0f8d88cd3926fe26722c0b6717841fcb9334334a4d0959190a2565b6006544310610795576000546001600160a01b031633146118ab576000546001600160a01b03166118b8565b6001546001600160a01b03165b600480546001600160a01b0319166001600160a01b03929092169182179055610795905b600580546001600160a01b0319166001600160a01b0383161781556007805460ff191660018302179055506040517f07ac267484df2273e35b6fe5bf62edf0a22f6d2436839af80d2d5ff5028fc35990600090a150565b6040805160ff861660208201528415159181019190915260608101839052600090819060800160408051601f198184030181528282528051602091820120908301520160408051601f19818403018152918152815160209283012033600090815260089093529120600101549091506119ae90849083611cef565b9695505050505050565b33600090815260086020908152604080832060ff80861685526003909101909252909120541615611a2b5760405162461bcd60e51b815260206004820152601f60248201527f546861742063656c6c2068617320616c7265616479206265656e2073686f74006044820152606401610380565b604060ff821610611a735760405162461bcd60e51b8152602060048201526012602482015271092dcecc2d8d2c840c6cad8d840d2dcc8caf60731b6044820152606401610380565b336000908152600860209081526040808320815180830190925260ff858116835260018385018181526002909301805491820181558652939094208251930180549390941660ff198416811785559051919392839161ffff1990911617610100836003811115611ae557611ae5612038565b02179055505033600090815260086020908152604080832060ff8616845260039081019092528220805460ff19166001179055905490546001600160a01b039081169116149050611b41576000546001600160a01b0316611b4e565b6001546001600160a01b03165b600380546001600160a01b0319166001600160a01b03929092169190911790556040517f8441454a1a5df9634c4ede24cff9ca643cf1d86f583e47ec26925580342f558f90600090a150565b600080845167ffffffffffffffff811115611bb757611bb761208e565b604051908082528060200260200182016040528015611be0578160200160208202803683370190505b50905060005b81518160ff161015611cd657858160ff1681518110611c0757611c076124e7565b6020026020010151858260ff1681518110611c2457611c246124e7565b6020026020010151858360ff1681518110611c4157611c416124e7565b6020026020010151604051602001611c719392919060ff9390931683529015156020830152604082015260600190565b60408051601f198184030181528282528051602091820120908301520160405160208183030381529060405280519060200120828260ff1681518110611cb957611cb96124e7565b602090810291909101015280611cce816124fd565b915050611be6565b50611ce388888884611d07565b98975050505050505050565b600082611cfc8584611d1f565b1490505b9392505050565b600082611d15868685611d6c565b1495945050505050565b600081815b8451811015611d6457611d5082868381518110611d4357611d436124e7565b602002602001015161200c565b915080611d5c8161257b565b915050611d24565b509392505050565b8051835183516000929190806001611d84848661247d565b611d8e91906124d4565b14611ddb5760405162461bcd60e51b815260206004820152601f60248201527f4d65726b6c6550726f6f663a20696e76616c6964206d756c746970726f6f66006044820152606401610380565b60008167ffffffffffffffff811115611df657611df661208e565b604051908082528060200260200182016040528015611e1f578160200160208202803683370190505b5090506000806000805b85811015611f5f576000888510611e64578584611e458161257b565b955081518110611e5757611e576124e7565b6020026020010151611e8a565b8a85611e6f8161257b565b965081518110611e8157611e816124e7565b60200260200101515b905060008c8381518110611ea057611ea06124e7565b6020026020010151611ed6578d84611eb78161257b565b955081518110611ec957611ec96124e7565b6020026020010151611f20565b898610611efa578685611ee88161257b565b965081518110611ec957611ec96124e7565b8b86611f058161257b565b975081518110611f1757611f176124e7565b60200260200101515b9050611f2c828261200c565b878481518110611f3e57611f3e6124e7565b60200260200101818152505050508080611f579061257b565b915050611e29565b508415611fe057858114611fb55760405162461bcd60e51b815260206004820152601f60248201527f4d65726b6c6550726f6f663a20696e76616c6964206d756c746970726f6f66006044820152606401610380565b836001860381518110611fca57611fca6124e7565b6020026020010151975050505050505050611d00565b8615611ff95788600081518110611fca57611fca6124e7565b8a600081518110611fca57611fca6124e7565b6000818310612028576000828152602084905260409020611d00565b5060009182526020526040902090565b634e487b7160e01b600052602160045260246000fd5b602081016007831061206257612062612038565b91905290565b803560ff8116811461207957600080fd5b919050565b8035801515811461207957600080fd5b634e487b7160e01b600052604160045260246000fd5b604051601f8201601f1916810167ffffffffffffffff811182821017156120cd576120cd61208e565b604052919050565b600067ffffffffffffffff8211156120ef576120ef61208e565b5060051b60200190565b600082601f83011261210a57600080fd5b8135602061211f61211a836120d5565b6120a4565b82815260059290921b8401810191818101908684111561213e57600080fd5b8286015b848110156121595780358352918301918301612142565b509695505050505050565b600080600080600060a0868803121561217c57600080fd5b61218586612068565b94506121936020870161207e565b935060408601359250606086013567ffffffffffffffff8111156121b657600080fd5b6121c2888289016120f9565b9250506121d160808701612068565b90509295509295909350565b6000602082840312156121ef57600080fd5b81356001600160a01b0381168114611d0057600080fd5b602080825282518282018190526000919060409081850190868401855b8281101561225b578151805160ff1685528601516004811061224757612247612038565b848701529284019290850190600101612223565b5091979650505050505050565b60006020828403121561227a57600080fd5b611d0082612068565b600082601f83011261229457600080fd5b813560206122a461211a836120d5565b82815260059290921b840181019181810190868411156122c357600080fd5b8286015b84811015612159576122d881612068565b83529183019183016122c7565b600082601f8301126122f657600080fd5b8135602061230661211a836120d5565b82815260059290921b8401810191818101908684111561232557600080fd5b8286015b848110156121595761233a8161207e565b8352918301918301612329565b600080600080600060a0868803121561235f57600080fd5b853567ffffffffffffffff8082111561237757600080fd5b61238389838a01612283565b9650602088013591508082111561239957600080fd5b6123a589838a016122e5565b955060408801359150808211156123bb57600080fd5b6123c789838a016120f9565b945060608801359150808211156123dd57600080fd5b6123e989838a016120f9565b935060808801359150808211156123ff57600080fd5b5061240c888289016122e5565b9150509295509295909350565b60006020828403121561242b57600080fd5b5035919050565b6020808252818101527f596f75206172656e2774206120706c61796572206f6620746869732067616d65604082015260600190565b634e487b7160e01b600052601160045260246000fd5b8082018082111561180c5761180c612467565b60208082526024908201527f546869732067616d652069736e277420696e2074686520706c6179696e6720706040820152636861736560e01b606082015260800190565b8181038181111561180c5761180c612467565b634e487b7160e01b600052603260045260246000fd5b600060ff821660ff810361251357612513612467565b60010192915050565b60208082526026908201527f4d7573742073656e6420616c6c20696e64657865732c2063656c6c7320616e646040820152652073616c747360d01b606082015260800190565b60ff818116838216019081111561180c5761180c612467565b60006001820161258d5761258d612467565b506001019056fea2646970667358221220795bd350023500e8e791bb5bbeb38aa8409fde8ab8b6730d64f350d63bc91dd264736f6c63430008130033",
  "immutableReferences": {},
  "source": "// SPDX-License-Identifier: MIT\npragma solidity 0.8.19;\n\nimport \"@openzeppelin/contracts/utils/cryptography/MerkleProof.sol\";\n\ncontract Battleship {\n    // ---- Local constants\n    // number of cells in the board (default: 8 * 8 = 64)\n    uint8 constant BOARD_SIZE = 64;\n    // number of ships for each player (default: 10)\n    uint8 constant SHIP_COUNT = 10;\n    // number of mined blocks before a reported player loses\n    uint8 constant DELAY = 5;\n\n    // ---- Local variables\n    address public playerOne;\n    address public playerTwo;\n    uint256 public agreedBet;\n    address public playerTurn;\n    address public winner;\n    address public verifiedWinner;\n    uint256 timeout;\n\n    // various phases of the game\n    enum Phase {\n        Waiting,\n        Paying,\n        Placing,\n        Playing,\n        Verifying,\n        Withdraw,\n        End\n    }\n\n    // the current phase of the game\n    Phase public gamePhase;\n\n    // possible values of a cell\n    enum Cell {\n        None,\n        Unconfirm,\n        Sunk,\n        Miss\n    }\n\n    struct Shot {\n        uint8 index;\n        Cell value;\n    }\n\n    // player's information\n    struct Player {\n        bool payedBet;\n        bytes32 treeRoot;\n        Shot[] shots;\n        mapping(uint8 => bool) shotsMap;\n        uint8 hits;\n        bool reported;\n    }\n\n    mapping(address => Player) players;\n\n    // ---- Events\n    // emitted when both players paid the bet\n    event BetPayed();\n    // emitted when both players placed their ships\n    event GameStart();\n    // emitted when a player takes a shot\n    event ShotTaken();\n    // emitted when the game is won by someone\n    event GameWon();\n    // emitted when the winner is verified\n    event WinnerVerified();\n    // emitted when a player is reported\n    event PlayerReported(address indexed player);\n    // emitted when a reported player made a move in time\n    event PlayerMoved(address indexed player);\n\n    // ---- Modifiers\n    // checks that the sender is player one or two\n    modifier isPlayer() {\n        require(\n            msg.sender == playerOne || msg.sender == playerTwo,\n            \"You aren't a player of this game\"\n        );\n        _;\n    }\n\n    // checks if it's the message sender's turn\n    modifier isPlayerTurn() {\n        require(msg.sender == playerTurn, \"It's not your turn\");\n        _;\n    }\n\n    // checks if you can report your opponent at this time\n    modifier canReport() {\n        _canReport();\n        _;\n    }\n\n    // checks if a reported player made a move before the timeout\n    modifier makeMove() {\n        _makeMove();\n        _;\n    }\n\n    // checks for the various game's phases\n    modifier waitingPhase() {\n        require(\n            gamePhase == Phase.Waiting,\n            \"This game isn't in the waiting phase\"\n        );\n        _;\n    }\n\n    modifier payingPhase() {\n        require(\n            gamePhase == Phase.Paying,\n            \"This game isn't in the paying phase\"\n        );\n        _;\n    }\n\n    modifier placingPhase() {\n        require(\n            gamePhase == Phase.Placing,\n            \"This game isn't in the placing phase\"\n        );\n        _;\n    }\n\n    modifier playingPhase() {\n        require(\n            gamePhase == Phase.Playing,\n            \"This game isn't in the playing phase\"\n        );\n        _;\n    }\n\n    modifier verifyingPhase() {\n        require(\n            gamePhase == Phase.Verifying,\n            \"This game isn't in the verifying phase\"\n        );\n        _;\n    }\n\n    modifier withdrawPhase() {\n        require(\n            gamePhase == Phase.Withdraw,\n            \"This game isn't in the withdraw phase\"\n        );\n        _;\n    }\n\n    // ---- External functions\n    // contract constructor\n    constructor(address creator, uint256 bet) {\n        playerOne = creator;\n        agreedBet = bet;\n        gamePhase = Phase.Waiting;\n    }\n\n    // adds the second player to the game\n    function addPlayerTwo(address player) external waitingPhase {\n        playerTwo = player;\n        gamePhase = Phase.Paying;\n    }\n\n    // deposits the agreed bet and adds the second player\n    function depositBet() external payable isPlayer payingPhase makeMove {\n        require(!players[msg.sender].payedBet, \"Bet already deposited\");\n        require(msg.value == agreedBet, \"Must pay the agreed amount\");\n        players[msg.sender].payedBet = true;\n        if (players[playerOne].payedBet && players[playerTwo].payedBet) {\n            gamePhase = Phase.Placing;\n            emit BetPayed();\n        }\n    }\n\n    // saves the Merkle tree root of the sender\n    function commitBoard(\n        bytes32 merkleTreeRoot\n    ) external isPlayer placingPhase makeMove {\n        require(players[msg.sender].treeRoot == 0, \"Board already committed\");\n        players[msg.sender].treeRoot = merkleTreeRoot;\n        if (\n            players[playerOne].treeRoot != 0 && players[playerTwo].treeRoot != 0\n        ) {\n            gamePhase = Phase.Playing;\n            playerTurn = playerOne;\n            emit GameStart();\n        }\n    }\n\n    // first shot, nothing to confirm\n    function shoot(uint8 index) external isPlayerTurn playingPhase makeMove {\n        takeShot(index);\n    }\n\n    // confirms a hit/miss of the opponent and then shoots\n    function confirmAndShoot(\n        uint8 index,\n        bool ship,\n        uint256 salt,\n        bytes32[] memory proof,\n        uint8 shotIndex\n    ) external isPlayerTurn playingPhase makeMove {\n        address opponent = getOpponent(msg.sender);\n        uint256 lastIndex = players[opponent].shots.length - 1;\n        require(\n            players[opponent].shots[lastIndex].index == index,\n            \"Stored and sent indexes of the shot to confirm don't match\"\n        );\n        require(\n            players[opponent].shots[lastIndex].value == Cell.Unconfirm,\n            \"Invalid cell value\"\n        );\n        if (!merkleVerify(index, ship, salt, proof)) {\n            winner = opponent;\n            declareWinner(opponent);\n            return;\n        }\n        if (ship) {\n            players[opponent].shots[lastIndex].value = Cell.Sunk;\n            players[msg.sender].hits++;\n            if (players[msg.sender].hits == SHIP_COUNT) {\n                winner = opponent;\n                gamePhase = Phase.Verifying;\n                emit GameWon();\n                return;\n            }\n        } else {\n            players[opponent].shots[lastIndex].value = Cell.Miss;\n        }\n        takeShot(shotIndex);\n    }\n\n    // verifies the cells of the winner's board that haven't been shot\n    function boardCheck(\n        uint8[] memory indexes,\n        bool[] memory cells,\n        uint256[] memory salts,\n        bytes32[] memory proof,\n        bool[] memory proofFlags\n    ) external verifyingPhase makeMove {\n        require(msg.sender == winner, \"Only the winner can send the board\");\n        require(\n            indexes.length == cells.length,\n            \"Must send all indexes, cells and salts\"\n        );\n        require(\n            indexes.length == salts.length,\n            \"Must send all indexes, cells and salts\"\n        );\n        address opponent = getOpponent(msg.sender);\n        if (\n            !merkleMultiVerify(\n                proof,\n                proofFlags,\n                players[msg.sender].treeRoot,\n                indexes,\n                cells,\n                salts\n            )\n        ) {\n            declareWinner(opponent);\n            return;\n        }\n        // board checks, if something is wrong the opponent wins by default\n        uint8 ships = 0;\n        for (uint8 i = 0; i < indexes.length; i++) {\n            // checks the validity of the indexes\n            if (indexes[i] >= BOARD_SIZE) {\n                declareWinner(opponent);\n                return;\n            }\n            // checks that all the opponent's shots have been registered\n            if (players[opponent].shotsMap[indexes[i]]) {\n                declareWinner(opponent);\n                return;\n            }\n            // ticks the verified cells\n            players[opponent].shotsMap[indexes[i]] = true;\n            // counts the ships missed by the opponent\n            if (cells[i]) {\n                ships++;\n            }\n        }\n        // checks that every cell has been verified\n        for (uint8 i = 0; i < BOARD_SIZE; i++) {\n            if (!players[opponent].shotsMap[i]) {\n                declareWinner(opponent);\n                return;\n            }\n        }\n        // checks that the correct number of ships was placed\n        if (players[msg.sender].hits + ships == SHIP_COUNT) {\n            declareWinner(msg.sender);\n        } else {\n            declareWinner(opponent);\n        }\n    }\n\n    // returns the shots taken by a player\n    function getPlayerShots(\n        address player\n    ) external view returns (Shot[] memory) {\n        return players[player].shots;\n    }\n\n    // reports the opponent for inactivity\n    function report() external isPlayer canReport {\n        address opponent = getOpponent(msg.sender);\n        require(\n            !players[opponent].reported,\n            \"You already reported your opponent\"\n        );\n        players[opponent].reported = true;\n        timeout = block.number + DELAY;\n        emit PlayerReported(opponent);\n    }\n\n    // checks if the reported player made a move\n    function verifyReport() external isPlayer canReport {\n        address opponent = getOpponent(msg.sender);\n        require(players[opponent].reported, \"You didn't report your opponent\");\n        if (block.number >= timeout) {\n            winner = msg.sender;\n            declareWinner(msg.sender);\n        } else {\n            players[opponent].reported = false;\n            emit PlayerMoved(opponent);\n        }\n    }\n\n    // forfeits the game\n    function forfeit() external isPlayer {\n        address opponent = getOpponent(msg.sender);\n        winner = opponent;\n        declareWinner(opponent);\n    }\n\n    // transfers the contract's balance to the winner's wallet\n    function withdraw() external withdrawPhase {\n        require(\n            msg.sender == verifiedWinner,\n            \"Only the winner can withdraw the prize\"\n        );\n        gamePhase = Phase.End;\n        payable(msg.sender).transfer(address(this).balance);\n    }\n\n    // ---- Internal functions\n    // takes a shot given an index\n    function takeShot(uint8 index) internal {\n        require(\n            !players[msg.sender].shotsMap[index],\n            \"That cell has already been shot\"\n        );\n        require(index < BOARD_SIZE, \"Invalid cell index\");\n        players[msg.sender].shots.push(Shot(index, Cell.Unconfirm));\n        players[msg.sender].shotsMap[index] = true;\n        playerTurn = playerTurn == playerOne ? playerTwo : playerOne;\n        emit ShotTaken();\n    }\n\n    // verifies that the value is contained in the tree\n    function merkleVerify(\n        uint8 index,\n        bool ship,\n        uint256 salt,\n        bytes32[] memory proof\n    ) internal view returns (bool) {\n        bytes32 leaf = keccak256(\n            bytes.concat(keccak256(abi.encode(index, ship, salt)))\n        );\n        return MerkleProof.verify(proof, players[msg.sender].treeRoot, leaf);\n    }\n\n    // multiproof that verifies the values are contained in the tree\n    function merkleMultiVerify(\n        bytes32[] memory proof,\n        bool[] memory proofFlags,\n        bytes32 root,\n        uint8[] memory indexes,\n        bool[] memory cells,\n        uint256[] memory salts\n    ) internal pure returns (bool) {\n        bytes32[] memory leaves = new bytes32[](indexes.length);\n        for (uint8 i = 0; i < leaves.length; i++) {\n            leaves[i] = keccak256(\n                bytes.concat(\n                    keccak256(abi.encode(indexes[i], cells[i], salts[i]))\n                )\n            );\n        }\n        return MerkleProof.multiProofVerify(proof, proofFlags, root, leaves);\n    }\n\n    // returns the address of the sender's opponent\n    function getOpponent(address sender) internal view returns (address) {\n        return sender == playerOne ? playerTwo : playerOne;\n    }\n\n    // sets player as the game's winner\n    function declareWinner(address player) internal {\n        verifiedWinner = player;\n        gamePhase = Phase.Withdraw;\n        emit WinnerVerified();\n    }\n\n    // wrapped the modifiers with internal functions to reduce code size when deploying\n    function _canReport() private view {\n        address opponent = getOpponent(msg.sender);\n        require(\n            !players[msg.sender].reported,\n            \"Can't report if you're reported yourself\"\n        );\n        require(\n            gamePhase != Phase.Waiting &&\n                gamePhase != Phase.Withdraw &&\n                gamePhase != Phase.End,\n            \"Can't report in this phase of the game\"\n        );\n        if (gamePhase == Phase.Paying) {\n            require(\n                !players[opponent].payedBet,\n                \"Can't report, your opponent already deposited\"\n            );\n        } else if (gamePhase == Phase.Placing) {\n            require(\n                players[opponent].treeRoot == 0,\n                \"Can't report, your opponent's board was already committed\"\n            );\n        } else if (gamePhase == Phase.Playing) {\n            require(playerTurn == opponent, \"Can't report, it's your turn\");\n        } else if (gamePhase == Phase.Verifying) {\n            require(\n                winner == opponent,\n                \"Can't report, you have to send your board\"\n            );\n        }\n    }\n\n    function _makeMove() private {\n        if (players[msg.sender].reported) {\n            if (block.number < timeout) {\n                players[msg.sender].reported = false;\n                emit PlayerMoved(msg.sender);\n            } else if (block.number >= timeout) {\n                winner = msg.sender == playerOne ? playerTwo : playerOne;\n                declareWinner(winner);\n                return;\n            }\n        }\n    }\n}\n",
  "sourcePath": "/home/asel/Documents/GitHub/ethereum-battleship/contracts/Battleship.sol",
  "compiler": {
    "name": "solc",
    "version": "0.8.19+commit.7dd6d404.Emscripten.clang"
  },
  "schemaVersion": "3.4.15",
  "updatedAt": "2023-08-19T21:46:58.979Z",
  "devdoc": {
    "kind": "dev",
    "methods": {},
    "version": 1
  },
  "userdoc": {
    "kind": "user",
    "methods": {},
    "version": 1
  }
}