{
  "contractName": "Battleship",
  "abi": [
    {
      "inputs": [
        {
          "internalType": "address",
          "name": "creator",
          "type": "address"
        },
        {
          "internalType": "uint256",
          "name": "bet",
          "type": "uint256"
        }
      ],
      "stateMutability": "nonpayable",
      "type": "constructor"
    },
    {
      "anonymous": false,
      "inputs": [],
      "name": "BetPayed",
      "type": "event"
    },
    {
      "anonymous": false,
      "inputs": [],
      "name": "GameStart",
      "type": "event"
    },
    {
      "anonymous": false,
      "inputs": [
        {
          "indexed": true,
          "internalType": "address",
          "name": "player",
          "type": "address"
        }
      ],
      "name": "ShotTaken",
      "type": "event"
    },
    {
      "inputs": [],
      "name": "agreedBet",
      "outputs": [
        {
          "internalType": "uint256",
          "name": "",
          "type": "uint256"
        }
      ],
      "stateMutability": "view",
      "type": "function"
    },
    {
      "inputs": [],
      "name": "gamePhase",
      "outputs": [
        {
          "internalType": "enum Battleship.Phase",
          "name": "",
          "type": "uint8"
        }
      ],
      "stateMutability": "view",
      "type": "function"
    },
    {
      "inputs": [],
      "name": "playerOne",
      "outputs": [
        {
          "internalType": "address",
          "name": "",
          "type": "address"
        }
      ],
      "stateMutability": "view",
      "type": "function"
    },
    {
      "inputs": [],
      "name": "playerTurn",
      "outputs": [
        {
          "internalType": "address",
          "name": "",
          "type": "address"
        }
      ],
      "stateMutability": "view",
      "type": "function"
    },
    {
      "inputs": [],
      "name": "playerTwo",
      "outputs": [
        {
          "internalType": "address",
          "name": "",
          "type": "address"
        }
      ],
      "stateMutability": "view",
      "type": "function"
    },
    {
      "inputs": [
        {
          "internalType": "address",
          "name": "player",
          "type": "address"
        }
      ],
      "name": "addPlayerTwo",
      "outputs": [],
      "stateMutability": "nonpayable",
      "type": "function"
    },
    {
      "inputs": [],
      "name": "depositBet",
      "outputs": [],
      "stateMutability": "payable",
      "type": "function"
    },
    {
      "inputs": [
        {
          "internalType": "bytes32",
          "name": "merkleTreeRoot",
          "type": "bytes32"
        }
      ],
      "name": "commitBoard",
      "outputs": [],
      "stateMutability": "nonpayable",
      "type": "function"
    },
    {
      "inputs": [
        {
          "internalType": "uint8",
          "name": "index",
          "type": "uint8"
        }
      ],
      "name": "shoot",
      "outputs": [],
      "stateMutability": "nonpayable",
      "type": "function"
    },
    {
      "inputs": [
        {
          "internalType": "uint8",
          "name": "index",
          "type": "uint8"
        },
        {
          "internalType": "bool",
          "name": "ship",
          "type": "bool"
        },
        {
          "internalType": "uint256",
          "name": "salt",
          "type": "uint256"
        },
        {
          "internalType": "bytes32[]",
          "name": "proof",
          "type": "bytes32[]"
        },
        {
          "internalType": "uint8",
          "name": "shotIndex",
          "type": "uint8"
        }
      ],
      "name": "confirmAndShoot",
      "outputs": [],
      "stateMutability": "nonpayable",
      "type": "function"
    },
    {
      "inputs": [
        {
          "internalType": "address",
          "name": "player",
          "type": "address"
        }
      ],
      "name": "getPlayerShots",
      "outputs": [
        {
          "components": [
            {
              "internalType": "uint8",
              "name": "index",
              "type": "uint8"
            },
            {
              "internalType": "enum Battleship.Cell",
              "name": "value",
              "type": "uint8"
            }
          ],
          "internalType": "struct Battleship.Shot[]",
          "name": "",
          "type": "tuple[]"
        }
      ],
      "stateMutability": "view",
      "type": "function"
    },
    {
      "inputs": [],
      "name": "report",
      "outputs": [],
      "stateMutability": "nonpayable",
      "type": "function"
    }
  ],
  "bytecode": "0x60806040523480156200001157600080fd5b506040516200280a3803806200280a833981810160405281019062000037919062000159565b816000806101000a81548173ffffffffffffffffffffffffffffffffffffffff021916908373ffffffffffffffffffffffffffffffffffffffff160217905550806002819055506000600560146101000a81548160ff02191690836003811115620000a757620000a6620001a0565b5b02179055505050620001cf565b600080fd5b600073ffffffffffffffffffffffffffffffffffffffff82169050919050565b6000620000e682620000b9565b9050919050565b620000f881620000d9565b81146200010457600080fd5b50565b6000815190506200011881620000ed565b92915050565b6000819050919050565b62000133816200011e565b81146200013f57600080fd5b50565b600081519050620001538162000128565b92915050565b60008060408385031215620001735762000172620000b4565b5b6000620001838582860162000107565b9250506020620001968582860162000142565b9150509250929050565b7f4e487b7100000000000000000000000000000000000000000000000000000000600052602160045260246000fd5b61262b80620001df6000396000f3fe6080604052600436106100a75760003560e01c8063993eb64511610064578063993eb64514610189578063bcffcf41146101b2578063c807b0ff146101dd578063cab3cae114610208578063d30074d914610231578063ea66144a1461025c576100a7565b80630a9f85dd146100ac5780632606a10b146100d75780633951be87146100ee5780633fe34727146101195780635bc58e6b146101235780636ff8fd7e1461014c575b600080fd5b3480156100b857600080fd5b506100c1610285565b6040516100ce91906118c0565b60405180910390f35b3480156100e357600080fd5b506100ec6102ab565b005b3480156100fa57600080fd5b50610103610393565b6040516101109190611952565b60405180910390f35b6101216103a6565b005b34801561012f57600080fd5b5061014a60048036038101906101459190611bb7565b61076f565b005b34801561015857600080fd5b50610173600480360381019061016e9190611c7a565b610c3d565b6040516101809190611ddc565b60405180910390f35b34801561019557600080fd5b506101b060048036038101906101ab9190611c7a565b610d2f565b005b3480156101be57600080fd5b506101c7610e14565b6040516101d491906118c0565b60405180910390f35b3480156101e957600080fd5b506101f2610e38565b6040516101ff9190611e0d565b60405180910390f35b34801561021457600080fd5b5061022f600480360381019061022a9190611e28565b610e3e565b005b34801561023d57600080fd5b50610246610f19565b60405161025391906118c0565b60405180910390f35b34801561026857600080fd5b50610283600480360381019061027e9190611e55565b610f3f565b005b600160009054906101000a900473ffffffffffffffffffffffffffffffffffffffff1681565b60008054906101000a900473ffffffffffffffffffffffffffffffffffffffff1673ffffffffffffffffffffffffffffffffffffffff163373ffffffffffffffffffffffffffffffffffffffff1614806103525750600160009054906101000a900473ffffffffffffffffffffffffffffffffffffffff1673ffffffffffffffffffffffffffffffffffffffff163373ffffffffffffffffffffffffffffffffffffffff16145b610391576040517f08c379a000000000000000000000000000000000000000000000000000000000815260040161038890611edf565b60405180910390fd5b565b600560149054906101000a900460ff1681565b60008054906101000a900473ffffffffffffffffffffffffffffffffffffffff1673ffffffffffffffffffffffffffffffffffffffff163373ffffffffffffffffffffffffffffffffffffffff16148061044d5750600160009054906101000a900473ffffffffffffffffffffffffffffffffffffffff1673ffffffffffffffffffffffffffffffffffffffff163373ffffffffffffffffffffffffffffffffffffffff16145b61048c576040517f08c379a000000000000000000000000000000000000000000000000000000000815260040161048390611edf565b60405180910390fd5b600160038111156104a05761049f6118db565b5b600560149054906101000a900460ff1660038111156104c2576104c16118db565b5b14610502576040517f08c379a00000000000000000000000000000000000000000000000000000000081526004016104f990611f71565b60405180910390fd5b600360003373ffffffffffffffffffffffffffffffffffffffff1673ffffffffffffffffffffffffffffffffffffffff16815260200190815260200160002060009054906101000a900460ff161561058f576040517f08c379a000000000000000000000000000000000000000000000000000000000815260040161058690611fdd565b60405180910390fd5b60025434146105d3576040517f08c379a00000000000000000000000000000000000000000000000000000000081526004016105ca90612049565b60405180910390fd5b6001600360003373ffffffffffffffffffffffffffffffffffffffff1673ffffffffffffffffffffffffffffffffffffffff16815260200190815260200160002060006101000a81548160ff021916908315150217905550600360008060009054906101000a900473ffffffffffffffffffffffffffffffffffffffff1673ffffffffffffffffffffffffffffffffffffffff1673ffffffffffffffffffffffffffffffffffffffff16815260200190815260200160002060009054906101000a900460ff168015610710575060036000600160009054906101000a900473ffffffffffffffffffffffffffffffffffffffff1673ffffffffffffffffffffffffffffffffffffffff1673ffffffffffffffffffffffffffffffffffffffff16815260200190815260200160002060009054906101000a900460ff165b1561076d576002600560146101000a81548160ff0219169083600381111561073b5761073a6118db565b5b02179055507f27d9a52f95fdd3621a4c52ec37df3801e5b3b2fab733498d482ea2fc2b94b30360405160405180910390a15b565b600560009054906101000a900473ffffffffffffffffffffffffffffffffffffffff1673ffffffffffffffffffffffffffffffffffffffff163373ffffffffffffffffffffffffffffffffffffffff16146107c957600080fd5b6003808111156107dc576107db6118db565b5b600560149054906101000a900460ff1660038111156107fe576107fd6118db565b5b1461083e576040517f08c379a0000000000000000000000000000000000000000000000000000000008152600401610835906120db565b60405180910390fd5b6000610849336112fb565b905060006001600660008473ffffffffffffffffffffffffffffffffffffffff1673ffffffffffffffffffffffffffffffffffffffff1681526020019081526020016000208054905061089c919061212a565b90508660ff16600660008473ffffffffffffffffffffffffffffffffffffffff1673ffffffffffffffffffffffffffffffffffffffff16815260200190815260200160002082815481106108f3576108f261215e565b5b9060005260206000200160000160009054906101000a900460ff1660ff1614610951576040517f08c379a0000000000000000000000000000000000000000000000000000000008152600401610948906121ff565b60405180910390fd5b60016003811115610965576109646118db565b5b600660008473ffffffffffffffffffffffffffffffffffffffff1673ffffffffffffffffffffffffffffffffffffffff16815260200190815260200160002082815481106109b6576109b561215e565b5b9060005260206000200160000160019054906101000a900460ff1660038111156109e3576109e26118db565b5b14610a23576040517f08c379a0000000000000000000000000000000000000000000000000000000008152600401610a1a9061226b565b60405180910390fd5b610a2f878787876113a2565b610a3a575050610c36565b8515610ba2576002600660008473ffffffffffffffffffffffffffffffffffffffff1673ffffffffffffffffffffffffffffffffffffffff1681526020019081526020016000208281548110610a9357610a9261215e565b5b9060005260206000200160000160016101000a81548160ff02191690836003811115610ac257610ac16118db565b5b0217905550600860003373ffffffffffffffffffffffffffffffffffffffff1673ffffffffffffffffffffffffffffffffffffffff168152602001908152602001600020600081819054906101000a900460ff1680929190610b239061228b565b91906101000a81548160ff021916908360ff16021790555050600a60ff16600860003373ffffffffffffffffffffffffffffffffffffffff1673ffffffffffffffffffffffffffffffffffffffff16815260200190815260200160002060009054906101000a900460ff1660ff1603610b9d575050610c36565b610c2a565b6003600660008473ffffffffffffffffffffffffffffffffffffffff1673ffffffffffffffffffffffffffffffffffffffff1681526020019081526020016000208281548110610bf557610bf461215e565b5b9060005260206000200160000160016101000a81548160ff02191690836003811115610c2457610c236118db565b5b02179055505b610c338361144d565b50505b5050505050565b6060600660008373ffffffffffffffffffffffffffffffffffffffff1673ffffffffffffffffffffffffffffffffffffffff168152602001908152602001600020805480602002602001604051908101604052809291908181526020016000905b82821015610d24578382906000526020600020016040518060400160405290816000820160009054906101000a900460ff1660ff1660ff1681526020016000820160019054906101000a900460ff166003811115610cff57610cfe6118db565b5b6003811115610d1157610d106118db565b5b8152505081526020019060010190610c9e565b505050509050919050565b60006003811115610d4357610d426118db565b5b600560149054906101000a900460ff166003811115610d6557610d646118db565b5b14610da5576040517f08c379a0000000000000000000000000000000000000000000000000000000008152600401610d9c90612326565b60405180910390fd5b80600160006101000a81548173ffffffffffffffffffffffffffffffffffffffff021916908373ffffffffffffffffffffffffffffffffffffffff1602179055506001600560146101000a81548160ff02191690836003811115610e0c57610e0b6118db565b5b021790555050565b60008054906101000a900473ffffffffffffffffffffffffffffffffffffffff1681565b60025481565b600560009054906101000a900473ffffffffffffffffffffffffffffffffffffffff1673ffffffffffffffffffffffffffffffffffffffff163373ffffffffffffffffffffffffffffffffffffffff1614610e9857600080fd5b600380811115610eab57610eaa6118db565b5b600560149054906101000a900460ff166003811115610ecd57610ecc6118db565b5b14610f0d576040517f08c379a0000000000000000000000000000000000000000000000000000000008152600401610f04906120db565b60405180910390fd5b610f168161144d565b50565b600560009054906101000a900473ffffffffffffffffffffffffffffffffffffffff1681565b60008054906101000a900473ffffffffffffffffffffffffffffffffffffffff1673ffffffffffffffffffffffffffffffffffffffff163373ffffffffffffffffffffffffffffffffffffffff161480610fe65750600160009054906101000a900473ffffffffffffffffffffffffffffffffffffffff1673ffffffffffffffffffffffffffffffffffffffff163373ffffffffffffffffffffffffffffffffffffffff16145b611025576040517f08c379a000000000000000000000000000000000000000000000000000000000815260040161101c90611edf565b60405180910390fd5b60026003811115611039576110386118db565b5b600560149054906101000a900460ff16600381111561105b5761105a6118db565b5b1461109b576040517f08c379a0000000000000000000000000000000000000000000000000000000008152600401611092906123b8565b60405180910390fd5b6000801b600460003373ffffffffffffffffffffffffffffffffffffffff1673ffffffffffffffffffffffffffffffffffffffff168152602001908152602001600020541461111f576040517f08c379a000000000000000000000000000000000000000000000000000000000815260040161111690612424565b60405180910390fd5b80600460003373ffffffffffffffffffffffffffffffffffffffff1673ffffffffffffffffffffffffffffffffffffffff168152602001908152602001600020819055506000801b600460008060009054906101000a900473ffffffffffffffffffffffffffffffffffffffff1673ffffffffffffffffffffffffffffffffffffffff1673ffffffffffffffffffffffffffffffffffffffff168152602001908152602001600020541415801561123a57506000801b60046000600160009054906101000a900473ffffffffffffffffffffffffffffffffffffffff1673ffffffffffffffffffffffffffffffffffffffff1673ffffffffffffffffffffffffffffffffffffffff1681526020019081526020016000205414155b156112f8576003600560146101000a81548160ff02191690836003811115611265576112646118db565b5b021790555060008054906101000a900473ffffffffffffffffffffffffffffffffffffffff16600560006101000a81548173ffffffffffffffffffffffffffffffffffffffff021916908373ffffffffffffffffffffffffffffffffffffffff1602179055507f4cf2e2dcdeacb2322843921968cb0e6a97a686594cb0a4f29abb65a7ed65195260405160405180910390a15b50565b60008060009054906101000a900473ffffffffffffffffffffffffffffffffffffffff1673ffffffffffffffffffffffffffffffffffffffff168273ffffffffffffffffffffffffffffffffffffffff16146113775760008054906101000a900473ffffffffffffffffffffffffffffffffffffffff1661139b565b600160009054906101000a900473ffffffffffffffffffffffffffffffffffffffff165b9050919050565b6000808585856040516020016113ba93929190612462565b604051602081830303815290604052805190602001206040516020016113e091906124ba565b60405160208183030381529060405280519060200120905061144283600460003373ffffffffffffffffffffffffffffffffffffffff1673ffffffffffffffffffffffffffffffffffffffff16815260200190815260200160002054836117d0565b915050949350505050565b600760003373ffffffffffffffffffffffffffffffffffffffff1673ffffffffffffffffffffffffffffffffffffffff16815260200190815260200160002060008260ff1660ff16815260200190815260200160002060009054906101000a900460ff16156114f1576040517f08c379a00000000000000000000000000000000000000000000000000000000081526004016114e890612521565b60405180910390fd5b604060ff168160ff161061153a576040517f08c379a00000000000000000000000000000000000000000000000000000000081526004016115319061258d565b60405180910390fd5b600660003373ffffffffffffffffffffffffffffffffffffffff1673ffffffffffffffffffffffffffffffffffffffff16815260200190815260200160002060405180604001604052808360ff168152602001600160038111156115a1576115a06118db565b5b8152509080600181540180825580915050600190039060005260206000200160009091909190915060008201518160000160006101000a81548160ff021916908360ff16021790555060208201518160000160016101000a81548160ff02191690836003811115611615576116146118db565b5b021790555050506001600760003373ffffffffffffffffffffffffffffffffffffffff1673ffffffffffffffffffffffffffffffffffffffff16815260200190815260200160002060008360ff1660ff16815260200190815260200160002060006101000a81548160ff02191690831515021790555060008054906101000a900473ffffffffffffffffffffffffffffffffffffffff1673ffffffffffffffffffffffffffffffffffffffff16600560009054906101000a900473ffffffffffffffffffffffffffffffffffffffff1673ffffffffffffffffffffffffffffffffffffffff16146117265760008054906101000a900473ffffffffffffffffffffffffffffffffffffffff1661174a565b600160009054906101000a900473ffffffffffffffffffffffffffffffffffffffff165b600560006101000a81548173ffffffffffffffffffffffffffffffffffffffff021916908373ffffffffffffffffffffffffffffffffffffffff1602179055503373ffffffffffffffffffffffffffffffffffffffff167f94fd0e2d035764d5dfc0c35ea698ab01611ce2c49924bf14e64fb0841513ed2160405160405180910390a250565b6000826117dd85846117e7565b1490509392505050565b60008082905060005b84518110156118325761181d828683815181106118105761180f61215e565b5b602002602001015161183d565b9150808061182a906125ad565b9150506117f0565b508091505092915050565b6000818310611855576118508284611868565b611860565b61185f8383611868565b5b905092915050565b600082600052816020526040600020905092915050565b600073ffffffffffffffffffffffffffffffffffffffff82169050919050565b60006118aa8261187f565b9050919050565b6118ba8161189f565b82525050565b60006020820190506118d560008301846118b1565b92915050565b7f4e487b7100000000000000000000000000000000000000000000000000000000600052602160045260246000fd5b6004811061191b5761191a6118db565b5b50565b600081905061192c8261190a565b919050565b600061193c8261191e565b9050919050565b61194c81611931565b82525050565b60006020820190506119676000830184611943565b92915050565b6000604051905090565b600080fd5b600080fd5b600060ff82169050919050565b61199781611981565b81146119a257600080fd5b50565b6000813590506119b48161198e565b92915050565b60008115159050919050565b6119cf816119ba565b81146119da57600080fd5b50565b6000813590506119ec816119c6565b92915050565b6000819050919050565b611a05816119f2565b8114611a1057600080fd5b50565b600081359050611a22816119fc565b92915050565b600080fd5b6000601f19601f8301169050919050565b7f4e487b7100000000000000000000000000000000000000000000000000000000600052604160045260246000fd5b611a7682611a2d565b810181811067ffffffffffffffff82111715611a9557611a94611a3e565b5b80604052505050565b6000611aa861196d565b9050611ab48282611a6d565b919050565b600067ffffffffffffffff821115611ad457611ad3611a3e565b5b602082029050602081019050919050565b600080fd5b6000819050919050565b611afd81611aea565b8114611b0857600080fd5b50565b600081359050611b1a81611af4565b92915050565b6000611b33611b2e84611ab9565b611a9e565b90508083825260208201905060208402830185811115611b5657611b55611ae5565b5b835b81811015611b7f5780611b6b8882611b0b565b845260208401935050602081019050611b58565b5050509392505050565b600082601f830112611b9e57611b9d611a28565b5b8135611bae848260208601611b20565b91505092915050565b600080600080600060a08688031215611bd357611bd2611977565b5b6000611be1888289016119a5565b9550506020611bf2888289016119dd565b9450506040611c0388828901611a13565b935050606086013567ffffffffffffffff811115611c2457611c2361197c565b5b611c3088828901611b89565b9250506080611c41888289016119a5565b9150509295509295909350565b611c578161189f565b8114611c6257600080fd5b50565b600081359050611c7481611c4e565b92915050565b600060208284031215611c9057611c8f611977565b5b6000611c9e84828501611c65565b91505092915050565b600081519050919050565b600082825260208201905092915050565b6000819050602082019050919050565b611cdc81611981565b82525050565b60048110611cf357611cf26118db565b5b50565b6000819050611d0482611ce2565b919050565b6000611d1482611cf6565b9050919050565b611d2481611d09565b82525050565b604082016000820151611d406000850182611cd3565b506020820151611d536020850182611d1b565b50505050565b6000611d658383611d2a565b60408301905092915050565b6000602082019050919050565b6000611d8982611ca7565b611d938185611cb2565b9350611d9e83611cc3565b8060005b83811015611dcf578151611db68882611d59565b9750611dc183611d71565b925050600181019050611da2565b5085935050505092915050565b60006020820190508181036000830152611df68184611d7e565b905092915050565b611e07816119f2565b82525050565b6000602082019050611e226000830184611dfe565b92915050565b600060208284031215611e3e57611e3d611977565b5b6000611e4c848285016119a5565b91505092915050565b600060208284031215611e6b57611e6a611977565b5b6000611e7984828501611b0b565b91505092915050565b600082825260208201905092915050565b7f596f75206172656e2774206120706c61796572206f6620746869732067616d65600082015250565b6000611ec9602083611e82565b9150611ed482611e93565b602082019050919050565b60006020820190508181036000830152611ef881611ebc565b9050919050565b7f546869732067616d652069736e277420696e2074686520706179696e6720706860008201527f6173650000000000000000000000000000000000000000000000000000000000602082015250565b6000611f5b602383611e82565b9150611f6682611eff565b604082019050919050565b60006020820190508181036000830152611f8a81611f4e565b9050919050565b7f42657420616c7265616479206465706f73697465640000000000000000000000600082015250565b6000611fc7601583611e82565b9150611fd282611f91565b602082019050919050565b60006020820190508181036000830152611ff681611fba565b9050919050565b7f4d75737420706179207468652061677265656420616d6f756e74000000000000600082015250565b6000612033601a83611e82565b915061203e82611ffd565b602082019050919050565b6000602082019050818103600083015261206281612026565b9050919050565b7f546869732067616d652069736e277420696e2074686520706c6179696e67207060008201527f6861736500000000000000000000000000000000000000000000000000000000602082015250565b60006120c5602483611e82565b91506120d082612069565b604082019050919050565b600060208201905081810360008301526120f4816120b8565b9050919050565b7f4e487b7100000000000000000000000000000000000000000000000000000000600052601160045260246000fd5b6000612135826119f2565b9150612140836119f2565b9250828203905081811115612158576121576120fb565b5b92915050565b7f4e487b7100000000000000000000000000000000000000000000000000000000600052603260045260246000fd5b7f53746f72656420616e642073656e7420696e6465786573206f6620746865207360008201527f686f7420746f20636f6e6669726d20646f6e2774206d61746368000000000000602082015250565b60006121e9603a83611e82565b91506121f48261218d565b604082019050919050565b60006020820190508181036000830152612218816121dc565b9050919050565b7f496e76616c69642063656c6c2076616c75650000000000000000000000000000600082015250565b6000612255601283611e82565b91506122608261221f565b602082019050919050565b6000602082019050818103600083015261228481612248565b9050919050565b600061229682611981565b915060ff82036122a9576122a86120fb565b5b600182019050919050565b7f546869732067616d652069736e277420696e207468652077616974696e67207060008201527f6861736500000000000000000000000000000000000000000000000000000000602082015250565b6000612310602483611e82565b915061231b826122b4565b604082019050919050565b6000602082019050818103600083015261233f81612303565b9050919050565b7f546869732067616d652069736e277420696e2074686520706c6163696e67207060008201527f6861736500000000000000000000000000000000000000000000000000000000602082015250565b60006123a2602483611e82565b91506123ad82612346565b604082019050919050565b600060208201905081810360008301526123d181612395565b9050919050565b7f426f61726420616c726561647920636f6d6d6974746564000000000000000000600082015250565b600061240e601783611e82565b9150612419826123d8565b602082019050919050565b6000602082019050818103600083015261243d81612401565b9050919050565b61244d81611981565b82525050565b61245c816119ba565b82525050565b60006060820190506124776000830186612444565b6124846020830185612453565b6124916040830184611dfe565b949350505050565b6000819050919050565b6124b46124af82611aea565b612499565b82525050565b60006124c682846124a3565b60208201915081905092915050565b7f546861742063656c6c2068617320616c7265616479206265656e2073686f7400600082015250565b600061250b601f83611e82565b9150612516826124d5565b602082019050919050565b6000602082019050818103600083015261253a816124fe565b9050919050565b7f496e76616c69642063656c6c20696e6465780000000000000000000000000000600082015250565b6000612577601283611e82565b915061258282612541565b602082019050919050565b600060208201905081810360008301526125a68161256a565b9050919050565b60006125b8826119f2565b91507fffffffffffffffffffffffffffffffffffffffffffffffffffffffffffffffff82036125ea576125e96120fb565b5b60018201905091905056fea264697066735822122046dd5fe3208b92c6294485825c1c26b684cf7221199a34e5b1b3f8f678545f0464736f6c63430008130033",
  "immutableReferences": {},
  "source": "// SPDX-License-Identifier: MIT\npragma solidity >=0.8.0 <0.9.0;\n\nimport \"@openzeppelin/contracts/utils/cryptography/MerkleProof.sol\";\n\ncontract Battleship {\n    // ---- Local constants\n    // number of cells in the board (default: 8 * 8 = 64)\n    uint8 constant BOARD_SIZE = 64;\n    // number of ships for each player (default: 10)\n    uint8 constant SHIP_COUNT = 10;\n\n    // ---- Local variables\n    address public playerOne;\n    address public playerTwo;\n    uint256 public agreedBet;\n    mapping(address => bool) payedBet;\n    mapping(address => bytes32) playerTreeRoot;\n    address public playerTurn;\n\n    // various phases of the game\n    enum Phase {\n        Waiting,\n        Paying,\n        Placing,\n        Playing\n    }\n\n    // the current phase of the game\n    Phase public gamePhase;\n\n    // possible values of a cell\n    enum Cell {\n        None,\n        Unconfirm,\n        Sunk,\n        Miss\n    }\n\n    struct Shot {\n        uint8 index;\n        Cell value;\n    }\n\n    mapping(address => Shot[]) playerShots;\n    mapping(address => mapping(uint8 => bool)) playerShotsMap;\n    mapping(address => uint8) playerHits;\n\n    // ---- Events\n    // emitted when both players paid the bet\n    event BetPayed();\n    // emitted when both players placed their ships\n    event GameStart();\n    // emitted when a player takes a shot\n    event ShotTaken(address indexed player);\n\n    // ---- Modifiers\n    // checks that the sender is player one or two\n    modifier players() {\n        require(\n            msg.sender == playerOne || msg.sender == playerTwo,\n            \"You aren't a player of this game\"\n        );\n        _;\n    }\n\n    // checks if it's the message sender's turn\n    modifier isPlayerTurn() {\n        require(msg.sender == playerTurn);\n        _;\n    }\n\n    // checks for the various game's phases\n    modifier waitingPhase() {\n        require(\n            gamePhase == Phase.Waiting,\n            \"This game isn't in the waiting phase\"\n        );\n        _;\n    }\n\n    modifier payingPhase() {\n        require(\n            gamePhase == Phase.Paying,\n            \"This game isn't in the paying phase\"\n        );\n        _;\n    }\n\n    modifier placingPhase() {\n        require(\n            gamePhase == Phase.Placing,\n            \"This game isn't in the placing phase\"\n        );\n        _;\n    }\n\n    modifier playingPhase() {\n        require(\n            gamePhase == Phase.Playing,\n            \"This game isn't in the playing phase\"\n        );\n        _;\n    }\n\n    // ---- External functions\n    // contract constructor\n    constructor(address creator, uint256 bet) {\n        playerOne = creator;\n        agreedBet = bet;\n        gamePhase = Phase.Waiting;\n    }\n\n    // adds the second player to the game\n    function addPlayerTwo(address player) external waitingPhase {\n        playerTwo = player;\n        gamePhase = Phase.Paying;\n    }\n\n    // deposits the agreed bet and adds the second player\n    function depositBet() external payable players payingPhase {\n        require(!payedBet[msg.sender], \"Bet already deposited\");\n        require(msg.value == agreedBet, \"Must pay the agreed amount\");\n        payedBet[msg.sender] = true;\n        if (payedBet[playerOne] && payedBet[playerTwo]) {\n            gamePhase = Phase.Placing;\n            emit BetPayed();\n        }\n    }\n\n    // saves the Merkle tree root of the sender\n    function commitBoard(bytes32 merkleTreeRoot) external players placingPhase {\n        require(playerTreeRoot[msg.sender] == 0, \"Board already committed\");\n        playerTreeRoot[msg.sender] = merkleTreeRoot;\n        if (playerTreeRoot[playerOne] != 0 && playerTreeRoot[playerTwo] != 0) {\n            gamePhase = Phase.Playing;\n            playerTurn = playerOne;\n            emit GameStart();\n        }\n    }\n\n    // first shot, nothing to confirm\n    function shoot(uint8 index) external isPlayerTurn playingPhase {\n        takeShot(index);\n    }\n\n    // confirms a hit/miss of the opponent and then shoots\n    function confirmAndShoot(\n        uint8 index,\n        bool ship,\n        uint256 salt,\n        bytes32[] memory proof,\n        uint8 shotIndex\n    ) external isPlayerTurn playingPhase {\n        address opponent = getOpponent(msg.sender);\n        uint lastIndex = playerShots[opponent].length - 1;\n        require(\n            playerShots[opponent][lastIndex].index == index,\n            \"Stored and sent indexes of the shot to confirm don't match\"\n        );\n        require(\n            playerShots[opponent][lastIndex].value == Cell.Unconfirm,\n            \"Invalid cell value\"\n        );\n        if (!merkleVerify(index, ship, salt, proof)) {\n            // TODO: proof not verified, opponent wins\n            return;\n        }\n        if (ship) {\n            playerShots[opponent][lastIndex].value = Cell.Sunk;\n            playerHits[msg.sender]++;\n            if (playerHits[msg.sender] == SHIP_COUNT) {\n                // TODO: all ships sunk, opponent wins\n                return;\n            }\n        } else {\n            playerShots[opponent][lastIndex].value = Cell.Miss;\n        }\n        takeShot(shotIndex);\n    }\n\n    // returns the shots taken by a player\n    function getPlayerShots(\n        address player\n    ) external view returns (Shot[] memory) {\n        return playerShots[player];\n    }\n\n    // reports the opponent\n    function report() external players {}\n\n    // ---- Internal functions\n    // takes a shot given an index\n    function takeShot(uint8 index) internal {\n        require(\n            !playerShotsMap[msg.sender][index],\n            \"That cell has already been shot\"\n        );\n        require(index < BOARD_SIZE, \"Invalid cell index\");\n        playerShots[msg.sender].push(Shot(index, Cell.Unconfirm));\n        playerShotsMap[msg.sender][index] = true;\n        playerTurn = playerTurn == playerOne ? playerTwo : playerOne;\n        emit ShotTaken(msg.sender);\n    }\n\n    // verifies that the value is contained in the tree\n    function merkleVerify(\n        uint8 index,\n        bool ship,\n        uint256 salt,\n        bytes32[] memory proof\n    ) internal view returns (bool) {\n        bytes32 leaf = keccak256(\n            bytes.concat(keccak256(abi.encode(index, ship, salt)))\n        );\n        return MerkleProof.verify(proof, playerTreeRoot[msg.sender], leaf);\n    }\n\n    // returns the address of the sender's opponent\n    function getOpponent(address sender) internal view returns (address) {\n        return sender == playerOne ? playerTwo : playerOne;\n    }\n}\n",
  "sourcePath": "/home/asel/Documents/GitHub/ethereum-battleship/contracts/Battleship.sol",
  "compiler": {
    "name": "solc",
    "version": "0.8.19+commit.7dd6d404.Emscripten.clang"
  },
  "schemaVersion": "3.4.14",
  "updatedAt": "2023-08-18T11:07:24.515Z",
  "devdoc": {
    "kind": "dev",
    "methods": {},
    "version": 1
  },
  "userdoc": {
    "kind": "user",
    "methods": {},
    "version": 1
  }
}