{
  "contractName": "Battleship",
  "abi": [
    {
      "inputs": [
        {
          "internalType": "address",
          "name": "creator",
          "type": "address"
        }
      ],
      "stateMutability": "nonpayable",
      "type": "constructor"
    },
    {
      "inputs": [],
      "name": "playerOne",
      "outputs": [
        {
          "internalType": "address",
          "name": "",
          "type": "address"
        }
      ],
      "stateMutability": "view",
      "type": "function"
    },
    {
      "inputs": [],
      "name": "playerTwo",
      "outputs": [
        {
          "internalType": "address",
          "name": "",
          "type": "address"
        }
      ],
      "stateMutability": "view",
      "type": "function"
    },
    {
      "inputs": [
        {
          "internalType": "address",
          "name": "player",
          "type": "address"
        }
      ],
      "name": "addPlayerTwo",
      "outputs": [],
      "stateMutability": "nonpayable",
      "type": "function"
    }
  ],
  "bytecode": "0x608060405234801561000f575f80fd5b50604051610319380380610319833981810160405281019061003191906100d4565b805f806101000a81548173ffffffffffffffffffffffffffffffffffffffff021916908373ffffffffffffffffffffffffffffffffffffffff160217905550506100ff565b5f80fd5b5f73ffffffffffffffffffffffffffffffffffffffff82169050919050565b5f6100a38261007a565b9050919050565b6100b381610099565b81146100bd575f80fd5b50565b5f815190506100ce816100aa565b92915050565b5f602082840312156100e9576100e8610076565b5b5f6100f6848285016100c0565b91505092915050565b61020d8061010c5f395ff3fe608060405234801561000f575f80fd5b506004361061003f575f3560e01c80630a9f85dd14610043578063993eb64514610061578063bcffcf411461007d575b5f80fd5b61004b61009b565b6040516100589190610165565b60405180910390f35b61007b600480360381019061007691906101ac565b6100c0565b005b610085610103565b6040516100929190610165565b60405180910390f35b60015f9054906101000a900473ffffffffffffffffffffffffffffffffffffffff1681565b8060015f6101000a81548173ffffffffffffffffffffffffffffffffffffffff021916908373ffffffffffffffffffffffffffffffffffffffff16021790555050565b5f8054906101000a900473ffffffffffffffffffffffffffffffffffffffff1681565b5f73ffffffffffffffffffffffffffffffffffffffff82169050919050565b5f61014f82610126565b9050919050565b61015f81610145565b82525050565b5f6020820190506101785f830184610156565b92915050565b5f80fd5b61018b81610145565b8114610195575f80fd5b50565b5f813590506101a681610182565b92915050565b5f602082840312156101c1576101c061017e565b5b5f6101ce84828501610198565b9150509291505056fea2646970667358221220579cb307b78db345d30e4eacc26fa6b94c434fc525d81e092d248650d9f2a69d64736f6c63430008140033",
  "immutableReferences": {},
  "source": "// SPDX-License-Identifier: MIT\npragma solidity >=0.8.0 <0.9.0;\n\nimport \"@openzeppelin/contracts/utils/cryptography/MerkleProof.sol\";\n\ncontract Battleship {\n  // ---- Local variables\n  address public playerOne;\n  address public playerTwo;\n\n  // ---- External functions\n  constructor(address creator) {\n    playerOne = creator;\n  }\n\n  function addPlayerTwo(address player) external {\n    playerTwo = player;\n  }\n}\n",
  "sourcePath": "/home/asel/Documents/GitHub/ethereum-battleship/contracts/Battleship.sol",
  "compiler": {
    "name": "solc",
    "version": "0.8.20+commit.a1b79de6.Emscripten.clang"
  },
  "schemaVersion": "3.4.14",
  "updatedAt": "2023-08-08T15:19:04.051Z",
  "devdoc": {
    "kind": "dev",
    "methods": {},
    "version": 1
  },
  "userdoc": {
    "kind": "user",
    "methods": {},
    "version": 1
  }
}