{
  "contractName": "Battleship",
  "abi": [
    {
      "inputs": [
        {
          "internalType": "address",
          "name": "creator",
          "type": "address"
        },
        {
          "internalType": "uint256",
          "name": "bet",
          "type": "uint256"
        }
      ],
      "stateMutability": "nonpayable",
      "type": "constructor"
    },
    {
      "anonymous": false,
      "inputs": [],
      "name": "BetPayed",
      "type": "event"
    },
    {
      "anonymous": false,
      "inputs": [
        {
          "indexed": false,
          "internalType": "string",
          "name": "error",
          "type": "string"
        }
      ],
      "name": "Error",
      "type": "event"
    },
    {
      "anonymous": false,
      "inputs": [],
      "name": "GameStart",
      "type": "event"
    },
    {
      "inputs": [],
      "name": "agreedBet",
      "outputs": [
        {
          "internalType": "uint256",
          "name": "",
          "type": "uint256"
        }
      ],
      "stateMutability": "view",
      "type": "function"
    },
    {
      "inputs": [],
      "name": "gamePhase",
      "outputs": [
        {
          "internalType": "enum Battleship.Phase",
          "name": "",
          "type": "uint8"
        }
      ],
      "stateMutability": "view",
      "type": "function"
    },
    {
      "inputs": [],
      "name": "playerOne",
      "outputs": [
        {
          "internalType": "address",
          "name": "",
          "type": "address"
        }
      ],
      "stateMutability": "view",
      "type": "function"
    },
    {
      "inputs": [],
      "name": "playerTwo",
      "outputs": [
        {
          "internalType": "address",
          "name": "",
          "type": "address"
        }
      ],
      "stateMutability": "view",
      "type": "function"
    },
    {
      "inputs": [],
      "name": "getGameCreator",
      "outputs": [
        {
          "internalType": "address",
          "name": "",
          "type": "address"
        }
      ],
      "stateMutability": "view",
      "type": "function"
    },
    {
      "inputs": [],
      "name": "getGameBet",
      "outputs": [
        {
          "internalType": "uint256",
          "name": "",
          "type": "uint256"
        }
      ],
      "stateMutability": "view",
      "type": "function"
    },
    {
      "inputs": [
        {
          "internalType": "address",
          "name": "player",
          "type": "address"
        }
      ],
      "name": "addPlayerTwo",
      "outputs": [],
      "stateMutability": "nonpayable",
      "type": "function"
    },
    {
      "inputs": [],
      "name": "depositBet",
      "outputs": [],
      "stateMutability": "payable",
      "type": "function"
    },
    {
      "inputs": [
        {
          "internalType": "bytes32",
          "name": "merkleTreeRoot",
          "type": "bytes32"
        }
      ],
      "name": "commitBoard",
      "outputs": [],
      "stateMutability": "nonpayable",
      "type": "function"
    },
    {
      "inputs": [],
      "name": "report",
      "outputs": [],
      "stateMutability": "nonpayable",
      "type": "function"
    }
  ],
  "bytecode": "0x60806040523480156200001157600080fd5b50604051620013ea380380620013ea833981810160405281019062000037919062000159565b816000806101000a81548173ffffffffffffffffffffffffffffffffffffffff021916908373ffffffffffffffffffffffffffffffffffffffff160217905550806002819055506000600560006101000a81548160ff02191690836003811115620000a757620000a6620001a0565b5b02179055505050620001cf565b600080fd5b600073ffffffffffffffffffffffffffffffffffffffff82169050919050565b6000620000e682620000b9565b9050919050565b620000f881620000d9565b81146200010457600080fd5b50565b6000815190506200011881620000ed565b92915050565b6000819050919050565b62000133816200011e565b81146200013f57600080fd5b50565b600081519050620001538162000128565b92915050565b60008060408385031215620001735762000172620000b4565b5b6000620001838582860162000107565b9250506020620001968582860162000142565b9150509250929050565b7f4e487b7100000000000000000000000000000000000000000000000000000000600052602160045260246000fd5b61120b80620001df6000396000f3fe6080604052600436106100915760003560e01c80633fe34727116100595780633fe3472714610159578063993eb64514610163578063bcffcf411461018c578063c807b0ff146101b7578063ea66144a146101e257610091565b80630a9f85dd146100965780632606a10b146100c15780632d2267fc146100d8578063359de51a146101035780633951be871461012e575b600080fd5b3480156100a257600080fd5b506100ab61020b565b6040516100b89190610cbc565b60405180910390f35b3480156100cd57600080fd5b506100d6610231565b005b3480156100e457600080fd5b506100ed610319565b6040516100fa9190610cbc565b60405180910390f35b34801561010f57600080fd5b506101186103b6565b6040516101259190610cf0565b60405180910390f35b34801561013a57600080fd5b50610143610435565b6040516101509190610d82565b60405180910390f35b610161610448565b005b34801561016f57600080fd5b5061018a60048036038101906101859190610dce565b610811565b005b34801561019857600080fd5b506101a16108f6565b6040516101ae9190610cbc565b60405180910390f35b3480156101c357600080fd5b506101cc61091a565b6040516101d99190610cf0565b60405180910390f35b3480156101ee57600080fd5b5061020960048036038101906102049190610e31565b610920565b005b600160009054906101000a900473ffffffffffffffffffffffffffffffffffffffff1681565b60008054906101000a900473ffffffffffffffffffffffffffffffffffffffff1673ffffffffffffffffffffffffffffffffffffffff163373ffffffffffffffffffffffffffffffffffffffff1614806102d85750600160009054906101000a900473ffffffffffffffffffffffffffffffffffffffff1673ffffffffffffffffffffffffffffffffffffffff163373ffffffffffffffffffffffffffffffffffffffff16145b610317576040517f08c379a000000000000000000000000000000000000000000000000000000000815260040161030e90610ebb565b60405180910390fd5b565b600080600381111561032e5761032d610d0b565b5b600560009054906101000a900460ff1660038111156103505761034f610d0b565b5b14610390576040517f08c379a000000000000000000000000000000000000000000000000000000000815260040161038790610f4d565b60405180910390fd5b60008054906101000a900473ffffffffffffffffffffffffffffffffffffffff16905090565b60008060038111156103cb576103ca610d0b565b5b600560009054906101000a900460ff1660038111156103ed576103ec610d0b565b5b1461042d576040517f08c379a000000000000000000000000000000000000000000000000000000000815260040161042490610f4d565b60405180910390fd5b600254905090565b600560009054906101000a900460ff1681565b60008054906101000a900473ffffffffffffffffffffffffffffffffffffffff1673ffffffffffffffffffffffffffffffffffffffff163373ffffffffffffffffffffffffffffffffffffffff1614806104ef5750600160009054906101000a900473ffffffffffffffffffffffffffffffffffffffff1673ffffffffffffffffffffffffffffffffffffffff163373ffffffffffffffffffffffffffffffffffffffff16145b61052e576040517f08c379a000000000000000000000000000000000000000000000000000000000815260040161052590610ebb565b60405180910390fd5b6001600381111561054257610541610d0b565b5b600560009054906101000a900460ff16600381111561056457610563610d0b565b5b146105a4576040517f08c379a000000000000000000000000000000000000000000000000000000000815260040161059b90610fdf565b60405180910390fd5b600360003373ffffffffffffffffffffffffffffffffffffffff1673ffffffffffffffffffffffffffffffffffffffff16815260200190815260200160002060009054906101000a900460ff1615610631576040517f08c379a00000000000000000000000000000000000000000000000000000000081526004016106289061104b565b60405180910390fd5b6002543414610675576040517f08c379a000000000000000000000000000000000000000000000000000000000815260040161066c906110b7565b60405180910390fd5b6001600360003373ffffffffffffffffffffffffffffffffffffffff1673ffffffffffffffffffffffffffffffffffffffff16815260200190815260200160002060006101000a81548160ff021916908315150217905550600360008060009054906101000a900473ffffffffffffffffffffffffffffffffffffffff1673ffffffffffffffffffffffffffffffffffffffff1673ffffffffffffffffffffffffffffffffffffffff16815260200190815260200160002060009054906101000a900460ff1680156107b2575060036000600160009054906101000a900473ffffffffffffffffffffffffffffffffffffffff1673ffffffffffffffffffffffffffffffffffffffff1673ffffffffffffffffffffffffffffffffffffffff16815260200190815260200160002060009054906101000a900460ff165b1561080f576002600560006101000a81548160ff021916908360038111156107dd576107dc610d0b565b5b02179055507f27d9a52f95fdd3621a4c52ec37df3801e5b3b2fab733498d482ea2fc2b94b30360405160405180910390a15b565b6000600381111561082557610824610d0b565b5b600560009054906101000a900460ff16600381111561084757610846610d0b565b5b14610887576040517f08c379a000000000000000000000000000000000000000000000000000000000815260040161087e90610f4d565b60405180910390fd5b80600160006101000a81548173ffffffffffffffffffffffffffffffffffffffff021916908373ffffffffffffffffffffffffffffffffffffffff1602179055506001600560006101000a81548160ff021916908360038111156108ee576108ed610d0b565b5b021790555050565b60008054906101000a900473ffffffffffffffffffffffffffffffffffffffff1681565b60025481565b60008054906101000a900473ffffffffffffffffffffffffffffffffffffffff1673ffffffffffffffffffffffffffffffffffffffff163373ffffffffffffffffffffffffffffffffffffffff1614806109c75750600160009054906101000a900473ffffffffffffffffffffffffffffffffffffffff1673ffffffffffffffffffffffffffffffffffffffff163373ffffffffffffffffffffffffffffffffffffffff16145b610a06576040517f08c379a00000000000000000000000000000000000000000000000000000000081526004016109fd90610ebb565b60405180910390fd5b60026003811115610a1a57610a19610d0b565b5b600560009054906101000a900460ff166003811115610a3c57610a3b610d0b565b5b14610a7c576040517f08c379a0000000000000000000000000000000000000000000000000000000008152600401610a7390611149565b60405180910390fd5b6000801b600460003373ffffffffffffffffffffffffffffffffffffffff1673ffffffffffffffffffffffffffffffffffffffff1681526020019081526020016000205414610b00576040517f08c379a0000000000000000000000000000000000000000000000000000000008152600401610af7906111b5565b60405180910390fd5b80600460003373ffffffffffffffffffffffffffffffffffffffff1673ffffffffffffffffffffffffffffffffffffffff168152602001908152602001600020819055506000801b600460008060009054906101000a900473ffffffffffffffffffffffffffffffffffffffff1673ffffffffffffffffffffffffffffffffffffffff1673ffffffffffffffffffffffffffffffffffffffff1681526020019081526020016000205414158015610c1b57506000801b60046000600160009054906101000a900473ffffffffffffffffffffffffffffffffffffffff1673ffffffffffffffffffffffffffffffffffffffff1673ffffffffffffffffffffffffffffffffffffffff1681526020019081526020016000205414155b15610c78576003600560006101000a81548160ff02191690836003811115610c4657610c45610d0b565b5b02179055507f4cf2e2dcdeacb2322843921968cb0e6a97a686594cb0a4f29abb65a7ed65195260405160405180910390a15b50565b600073ffffffffffffffffffffffffffffffffffffffff82169050919050565b6000610ca682610c7b565b9050919050565b610cb681610c9b565b82525050565b6000602082019050610cd16000830184610cad565b92915050565b6000819050919050565b610cea81610cd7565b82525050565b6000602082019050610d056000830184610ce1565b92915050565b7f4e487b7100000000000000000000000000000000000000000000000000000000600052602160045260246000fd5b60048110610d4b57610d4a610d0b565b5b50565b6000819050610d5c82610d3a565b919050565b6000610d6c82610d4e565b9050919050565b610d7c81610d61565b82525050565b6000602082019050610d976000830184610d73565b92915050565b600080fd5b610dab81610c9b565b8114610db657600080fd5b50565b600081359050610dc881610da2565b92915050565b600060208284031215610de457610de3610d9d565b5b6000610df284828501610db9565b91505092915050565b6000819050919050565b610e0e81610dfb565b8114610e1957600080fd5b50565b600081359050610e2b81610e05565b92915050565b600060208284031215610e4757610e46610d9d565b5b6000610e5584828501610e1c565b91505092915050565b600082825260208201905092915050565b7f596f75206172656e2774206120706c61796572206f6620746869732067616d65600082015250565b6000610ea5602083610e5e565b9150610eb082610e6f565b602082019050919050565b60006020820190508181036000830152610ed481610e98565b9050919050565b7f546869732067616d652069736e277420696e207468652077616974696e67207060008201527f6861736500000000000000000000000000000000000000000000000000000000602082015250565b6000610f37602483610e5e565b9150610f4282610edb565b604082019050919050565b60006020820190508181036000830152610f6681610f2a565b9050919050565b7f546869732067616d652069736e277420696e2074686520706179696e6720706860008201527f6173650000000000000000000000000000000000000000000000000000000000602082015250565b6000610fc9602383610e5e565b9150610fd482610f6d565b604082019050919050565b60006020820190508181036000830152610ff881610fbc565b9050919050565b7f42657420616c7265616479206465706f73697465640000000000000000000000600082015250565b6000611035601583610e5e565b915061104082610fff565b602082019050919050565b6000602082019050818103600083015261106481611028565b9050919050565b7f4d75737420706179207468652061677265656420616d6f756e74000000000000600082015250565b60006110a1601a83610e5e565b91506110ac8261106b565b602082019050919050565b600060208201905081810360008301526110d081611094565b9050919050565b7f546869732067616d652069736e277420696e2074686520706c6163696e67207060008201527f6861736500000000000000000000000000000000000000000000000000000000602082015250565b6000611133602483610e5e565b915061113e826110d7565b604082019050919050565b6000602082019050818103600083015261116281611126565b9050919050565b7f426f61726420616c726561647920636f6d6d6974746564000000000000000000600082015250565b600061119f601783610e5e565b91506111aa82611169565b602082019050919050565b600060208201905081810360008301526111ce81611192565b905091905056fea2646970667358221220682b86bfdd588d0d72395ce9096ab88e681e93d217c5ca98e66ac98fc89b50b664736f6c63430008130033",
  "immutableReferences": {},
  "source": "// SPDX-License-Identifier: MIT\npragma solidity >=0.8.0 <0.9.0;\n\nimport \"@openzeppelin/contracts/utils/cryptography/MerkleProof.sol\";\n\ncontract Battleship {\n    // ---- Local variables\n    address public playerOne;\n    address public playerTwo;\n    uint256 public agreedBet;\n    mapping(address => bool) payedBet;\n    mapping(address => bytes32) playerTreeRoot;\n\n    // various phases of the game\n    enum Phase {\n        Waiting,\n        Paying,\n        Placing,\n        Playing\n    }\n\n    // the current phase of the game\n    Phase public gamePhase;\n\n    // ---- Events\n    // emitted when both players paid the bet\n    event BetPayed();\n    // emitted when both players placed their ships\n    event GameStart();\n    // emitted when there is an error\n    event Error(string error);\n\n    // ---- Modifiers\n    // checks that the sender is player one or two\n    modifier players() {\n        require(\n            msg.sender == playerOne || msg.sender == playerTwo,\n            \"You aren't a player of this game\"\n        );\n        _;\n    }\n\n    // checks for the various game's phases\n    modifier waitingPhase() {\n        require(\n            gamePhase == Phase.Waiting,\n            \"This game isn't in the waiting phase\"\n        );\n        _;\n    }\n\n    modifier payingPhase() {\n        require(\n            gamePhase == Phase.Paying,\n            \"This game isn't in the paying phase\"\n        );\n        _;\n    }\n\n    modifier placingPhase() {\n        require(\n            gamePhase == Phase.Placing,\n            \"This game isn't in the placing phase\"\n        );\n        _;\n    }\n\n    modifier playingPhase() {\n        require(\n            gamePhase == Phase.Playing,\n            \"This game isn't in the playing phase\"\n        );\n        _;\n    }\n\n    // ---- External functions\n    constructor(address creator, uint256 bet) {\n        playerOne = creator;\n        agreedBet = bet;\n        gamePhase = Phase.Waiting;\n    }\n\n    // return the game's creator\n    function getGameCreator() external view waitingPhase returns (address) {\n        return playerOne;\n    }\n\n    // return the game's agreed bet\n    function getGameBet() external view waitingPhase returns (uint256) {\n        return agreedBet;\n    }\n\n    // adds the second player to the game\n    function addPlayerTwo(address player) external waitingPhase {\n        playerTwo = player;\n        gamePhase = Phase.Paying;\n    }\n\n    // deposits the agreed bet and adds the second player\n    function depositBet() external payable players payingPhase {\n        require(!payedBet[msg.sender], \"Bet already deposited\");\n        require(msg.value == agreedBet, \"Must pay the agreed amount\");\n        payedBet[msg.sender] = true;\n        if (payedBet[playerOne] && payedBet[playerTwo]) {\n            gamePhase = Phase.Placing;\n            emit BetPayed();\n        }\n    }\n\n    // saves the Merkle tree root of the sender\n    function commitBoard(bytes32 merkleTreeRoot) external players placingPhase {\n        require(playerTreeRoot[msg.sender] == 0, \"Board already committed\");\n        playerTreeRoot[msg.sender] = merkleTreeRoot;\n        if (playerTreeRoot[playerOne] != 0 && playerTreeRoot[playerTwo] != 0) {\n            gamePhase = Phase.Playing;\n            emit GameStart();\n        }\n    }\n\n    // reports the opponent\n    function report() external players {}\n}\n",
  "sourcePath": "/home/asel/Documents/GitHub/ethereum-battleship/contracts/Battleship.sol",
  "compiler": {
    "name": "solc",
    "version": "0.8.19+commit.7dd6d404.Emscripten.clang"
  },
  "schemaVersion": "3.4.14",
  "updatedAt": "2023-08-14T20:20:44.242Z",
  "devdoc": {
    "kind": "dev",
    "methods": {},
    "version": 1
  },
  "userdoc": {
    "kind": "user",
    "methods": {},
    "version": 1
  }
}