{
  "contractName": "Battleship",
  "abi": [
    {
      "inputs": [
        {
          "internalType": "address",
          "name": "creator",
          "type": "address"
        },
        {
          "internalType": "uint256",
          "name": "bet",
          "type": "uint256"
        }
      ],
      "stateMutability": "nonpayable",
      "type": "constructor"
    },
    {
      "anonymous": false,
      "inputs": [],
      "name": "BetPayed",
      "type": "event"
    },
    {
      "anonymous": false,
      "inputs": [],
      "name": "GameStart",
      "type": "event"
    },
    {
      "anonymous": false,
      "inputs": [],
      "name": "GameWon",
      "type": "event"
    },
    {
      "anonymous": false,
      "inputs": [
        {
          "indexed": true,
          "internalType": "address",
          "name": "player",
          "type": "address"
        }
      ],
      "name": "PlayerMoved",
      "type": "event"
    },
    {
      "anonymous": false,
      "inputs": [
        {
          "indexed": true,
          "internalType": "address",
          "name": "player",
          "type": "address"
        }
      ],
      "name": "PlayerReported",
      "type": "event"
    },
    {
      "anonymous": false,
      "inputs": [],
      "name": "ShotTaken",
      "type": "event"
    },
    {
      "anonymous": false,
      "inputs": [],
      "name": "WinnerVerified",
      "type": "event"
    },
    {
      "inputs": [],
      "name": "agreedBet",
      "outputs": [
        {
          "internalType": "uint256",
          "name": "",
          "type": "uint256"
        }
      ],
      "stateMutability": "view",
      "type": "function"
    },
    {
      "inputs": [],
      "name": "gamePhase",
      "outputs": [
        {
          "internalType": "enum Battleship.Phase",
          "name": "",
          "type": "uint8"
        }
      ],
      "stateMutability": "view",
      "type": "function"
    },
    {
      "inputs": [],
      "name": "playerOne",
      "outputs": [
        {
          "internalType": "address",
          "name": "",
          "type": "address"
        }
      ],
      "stateMutability": "view",
      "type": "function"
    },
    {
      "inputs": [],
      "name": "playerTurn",
      "outputs": [
        {
          "internalType": "address",
          "name": "",
          "type": "address"
        }
      ],
      "stateMutability": "view",
      "type": "function"
    },
    {
      "inputs": [],
      "name": "playerTwo",
      "outputs": [
        {
          "internalType": "address",
          "name": "",
          "type": "address"
        }
      ],
      "stateMutability": "view",
      "type": "function"
    },
    {
      "inputs": [],
      "name": "verifiedWinner",
      "outputs": [
        {
          "internalType": "address",
          "name": "",
          "type": "address"
        }
      ],
      "stateMutability": "view",
      "type": "function"
    },
    {
      "inputs": [],
      "name": "winner",
      "outputs": [
        {
          "internalType": "address",
          "name": "",
          "type": "address"
        }
      ],
      "stateMutability": "view",
      "type": "function"
    },
    {
      "inputs": [
        {
          "internalType": "address",
          "name": "player",
          "type": "address"
        }
      ],
      "name": "addPlayerTwo",
      "outputs": [],
      "stateMutability": "nonpayable",
      "type": "function"
    },
    {
      "inputs": [],
      "name": "depositBet",
      "outputs": [],
      "stateMutability": "payable",
      "type": "function"
    },
    {
      "inputs": [
        {
          "internalType": "bytes32",
          "name": "merkleTreeRoot",
          "type": "bytes32"
        }
      ],
      "name": "commitBoard",
      "outputs": [],
      "stateMutability": "nonpayable",
      "type": "function"
    },
    {
      "inputs": [
        {
          "internalType": "uint8",
          "name": "index",
          "type": "uint8"
        }
      ],
      "name": "shoot",
      "outputs": [],
      "stateMutability": "nonpayable",
      "type": "function"
    },
    {
      "inputs": [
        {
          "internalType": "uint8",
          "name": "index",
          "type": "uint8"
        },
        {
          "internalType": "bool",
          "name": "ship",
          "type": "bool"
        },
        {
          "internalType": "uint256",
          "name": "salt",
          "type": "uint256"
        },
        {
          "internalType": "bytes32[]",
          "name": "proof",
          "type": "bytes32[]"
        },
        {
          "internalType": "uint8",
          "name": "shotIndex",
          "type": "uint8"
        }
      ],
      "name": "confirmAndShoot",
      "outputs": [],
      "stateMutability": "nonpayable",
      "type": "function"
    },
    {
      "inputs": [
        {
          "internalType": "uint8[]",
          "name": "indexes",
          "type": "uint8[]"
        },
        {
          "internalType": "bool[]",
          "name": "cells",
          "type": "bool[]"
        },
        {
          "internalType": "uint256[]",
          "name": "salts",
          "type": "uint256[]"
        },
        {
          "internalType": "bytes32[]",
          "name": "proof",
          "type": "bytes32[]"
        },
        {
          "internalType": "bool[]",
          "name": "proofFlags",
          "type": "bool[]"
        }
      ],
      "name": "boardCheck",
      "outputs": [],
      "stateMutability": "nonpayable",
      "type": "function"
    },
    {
      "inputs": [
        {
          "internalType": "address",
          "name": "player",
          "type": "address"
        }
      ],
      "name": "getPlayerShots",
      "outputs": [
        {
          "components": [
            {
              "internalType": "uint8",
              "name": "index",
              "type": "uint8"
            },
            {
              "internalType": "enum Battleship.Cell",
              "name": "value",
              "type": "uint8"
            }
          ],
          "internalType": "struct Battleship.Shot[]",
          "name": "",
          "type": "tuple[]"
        }
      ],
      "stateMutability": "view",
      "type": "function"
    },
    {
      "inputs": [],
      "name": "report",
      "outputs": [],
      "stateMutability": "nonpayable",
      "type": "function"
    },
    {
      "inputs": [],
      "name": "verifyReport",
      "outputs": [],
      "stateMutability": "nonpayable",
      "type": "function"
    },
    {
      "inputs": [],
      "name": "forfeit",
      "outputs": [],
      "stateMutability": "nonpayable",
      "type": "function"
    },
    {
      "inputs": [],
      "name": "withdraw",
      "outputs": [],
      "stateMutability": "nonpayable",
      "type": "function"
    }
  ],
  "bytecode": "0x60806040523480156200001157600080fd5b5060405162004d4738038062004d47833981810160405281019062000037919062000159565b816000806101000a81548173ffffffffffffffffffffffffffffffffffffffff021916908373ffffffffffffffffffffffffffffffffffffffff160217905550806002819055506000600760006101000a81548160ff02191690836006811115620000a757620000a6620001a0565b5b02179055505050620001cf565b600080fd5b600073ffffffffffffffffffffffffffffffffffffffff82169050919050565b6000620000e682620000b9565b9050919050565b620000f881620000d9565b81146200010457600080fd5b50565b6000815190506200011881620000ed565b92915050565b6000819050919050565b62000133816200011e565b81146200013f57600080fd5b50565b600081519050620001538162000128565b92915050565b60008060408385031215620001735762000172620000b4565b5b6000620001838582860162000107565b9250506020620001968582860162000142565b9150509250929050565b7f4e487b7100000000000000000000000000000000000000000000000000000000600052602160045260246000fd5b614b6880620001df6000396000f3fe6080604052600436106101095760003560e01c8063993eb64511610095578063d30074d911610064578063d30074d9146102ec578063d925339a14610317578063dfbf53ae14610340578063ea66144a1461036b578063f3d86e4a1461039457610109565b8063993eb64514610244578063bcffcf411461026d578063c807b0ff14610298578063cab3cae1146102c357610109565b80633fe34727116100dc5780633fe347271461019257806344f72ab31461019c57806355c51f47146101b35780635bc58e6b146101de5780636ff8fd7e1461020757610109565b80630a9f85dd1461010e5780632606a10b146101395780633951be87146101505780633ccfd60b1461017b575b600080fd5b34801561011a57600080fd5b506101236103ab565b60405161013091906132ba565b60405180910390f35b34801561014557600080fd5b5061014e6103d1565b005b34801561015c57600080fd5b50610165610613565b604051610172919061334c565b60405180910390f35b34801561018757600080fd5b50610190610626565b005b61019a6107a0565b005b3480156101a857600080fd5b506101b1610b7d565b005b3480156101bf57600080fd5b506101c8610e01565b6040516101d591906132ba565b60405180910390f35b3480156101ea57600080fd5b50610205600480360381019061020091906135b1565b610e27565b005b34801561021357600080fd5b5061022e60048036038101906102299190613674565b6113f5565b60405161023b91906137d6565b60405180910390f35b34801561025057600080fd5b5061026b60048036038101906102669190613674565b6114ea565b005b34801561027957600080fd5b506102826115cf565b60405161028f91906132ba565b60405180910390f35b3480156102a457600080fd5b506102ad6115f3565b6040516102ba9190613807565b60405180910390f35b3480156102cf57600080fd5b506102ea60048036038101906102e59190613822565b6115f9565b005b3480156102f857600080fd5b506103016116dd565b60405161030e91906132ba565b60405180910390f35b34801561032357600080fd5b5061033e60048036038101906103399190613a98565b611703565b005b34801561034c57600080fd5b50610355611bf0565b60405161036291906132ba565b60405180910390f35b34801561037757600080fd5b50610392600480360381019061038d9190613b9f565b611c16565b005b3480156103a057600080fd5b506103a9611fe6565b005b600160009054906101000a900473ffffffffffffffffffffffffffffffffffffffff1681565b60008054906101000a900473ffffffffffffffffffffffffffffffffffffffff1673ffffffffffffffffffffffffffffffffffffffff163373ffffffffffffffffffffffffffffffffffffffff1614806104785750600160009054906101000a900473ffffffffffffffffffffffffffffffffffffffff1673ffffffffffffffffffffffffffffffffffffffff163373ffffffffffffffffffffffffffffffffffffffff16145b6104b7576040517f08c379a00000000000000000000000000000000000000000000000000000000081526004016104ae90613c29565b60405180910390fd5b6104bf612126565b60006104ca336125f2565b9050600860008273ffffffffffffffffffffffffffffffffffffffff1673ffffffffffffffffffffffffffffffffffffffff16815260200190815260200160002060040160019054906101000a900460ff161561055c576040517f08c379a000000000000000000000000000000000000000000000000000000000815260040161055390613cbb565b60405180910390fd5b6001600860008373ffffffffffffffffffffffffffffffffffffffff1673ffffffffffffffffffffffffffffffffffffffff16815260200190815260200160002060040160016101000a81548160ff021916908315150217905550600560ff16436105c79190613d0a565b6006819055508073ffffffffffffffffffffffffffffffffffffffff167fa1ca43c06f569a62120bbf3d45561e5580e23352bf28954f734d6cd9901aed9e60405160405180910390a250565b600760009054906101000a900460ff1681565b6005600681111561063a576106396132d5565b5b600760009054906101000a900460ff16600681111561065c5761065b6132d5565b5b1461069c576040517f08c379a000000000000000000000000000000000000000000000000000000000815260040161069390613db0565b60405180910390fd5b600560009054906101000a900473ffffffffffffffffffffffffffffffffffffffff1673ffffffffffffffffffffffffffffffffffffffff163373ffffffffffffffffffffffffffffffffffffffff161461072c576040517f08c379a000000000000000000000000000000000000000000000000000000000815260040161072390613e42565b60405180910390fd5b6006600760006101000a81548160ff02191690836006811115610752576107516132d5565b5b02179055503373ffffffffffffffffffffffffffffffffffffffff166108fc479081150290604051600060405180830381858888f1935050505015801561079d573d6000803e3d6000fd5b50565b60008054906101000a900473ffffffffffffffffffffffffffffffffffffffff1673ffffffffffffffffffffffffffffffffffffffff163373ffffffffffffffffffffffffffffffffffffffff1614806108475750600160009054906101000a900473ffffffffffffffffffffffffffffffffffffffff1673ffffffffffffffffffffffffffffffffffffffff163373ffffffffffffffffffffffffffffffffffffffff16145b610886576040517f08c379a000000000000000000000000000000000000000000000000000000000815260040161087d90613c29565b60405180910390fd5b6001600681111561089a576108996132d5565b5b600760009054906101000a900460ff1660068111156108bc576108bb6132d5565b5b146108fc576040517f08c379a00000000000000000000000000000000000000000000000000000000081526004016108f390613ed4565b60405180910390fd5b610904612699565b600860003373ffffffffffffffffffffffffffffffffffffffff1673ffffffffffffffffffffffffffffffffffffffff16815260200190815260200160002060000160009054906101000a900460ff1615610994576040517f08c379a000000000000000000000000000000000000000000000000000000000815260040161098b90613f40565b60405180910390fd5b60025434146109d8576040517f08c379a00000000000000000000000000000000000000000000000000000000081526004016109cf90613fac565b60405180910390fd5b6001600860003373ffffffffffffffffffffffffffffffffffffffff1673ffffffffffffffffffffffffffffffffffffffff16815260200190815260200160002060000160006101000a81548160ff021916908315150217905550600860008060009054906101000a900473ffffffffffffffffffffffffffffffffffffffff1673ffffffffffffffffffffffffffffffffffffffff1673ffffffffffffffffffffffffffffffffffffffff16815260200190815260200160002060000160009054906101000a900460ff168015610b1e575060086000600160009054906101000a900473ffffffffffffffffffffffffffffffffffffffff1673ffffffffffffffffffffffffffffffffffffffff1673ffffffffffffffffffffffffffffffffffffffff16815260200190815260200160002060000160009054906101000a900460ff165b15610b7b576002600760006101000a81548160ff02191690836006811115610b4957610b486132d5565b5b02179055507f27d9a52f95fdd3621a4c52ec37df3801e5b3b2fab733498d482ea2fc2b94b30360405160405180910390a15b565b60008054906101000a900473ffffffffffffffffffffffffffffffffffffffff1673ffffffffffffffffffffffffffffffffffffffff163373ffffffffffffffffffffffffffffffffffffffff161480610c245750600160009054906101000a900473ffffffffffffffffffffffffffffffffffffffff1673ffffffffffffffffffffffffffffffffffffffff163373ffffffffffffffffffffffffffffffffffffffff16145b610c63576040517f08c379a0000000000000000000000000000000000000000000000000000000008152600401610c5a90613c29565b60405180910390fd5b610c6b612126565b6000610c76336125f2565b9050600860008273ffffffffffffffffffffffffffffffffffffffff1673ffffffffffffffffffffffffffffffffffffffff16815260200190815260200160002060040160019054906101000a900460ff16610d07576040517f08c379a0000000000000000000000000000000000000000000000000000000008152600401610cfe90614018565b60405180910390fd5b6006544310610d5f5733600460006101000a81548173ffffffffffffffffffffffffffffffffffffffff021916908373ffffffffffffffffffffffffffffffffffffffff160217905550610d5a336128b6565b610dfe565b6000600860008373ffffffffffffffffffffffffffffffffffffffff1673ffffffffffffffffffffffffffffffffffffffff16815260200190815260200160002060040160016101000a81548160ff0219169083151502179055508073ffffffffffffffffffffffffffffffffffffffff167f625ba646f05ab036edd0f8d88cd3926fe26722c0b6717841fcb9334334a4d09560405160405180910390a25b50565b600560009054906101000a900473ffffffffffffffffffffffffffffffffffffffff1681565b600360009054906101000a900473ffffffffffffffffffffffffffffffffffffffff1673ffffffffffffffffffffffffffffffffffffffff163373ffffffffffffffffffffffffffffffffffffffff1614610e8157600080fd5b60036006811115610e9557610e946132d5565b5b600760009054906101000a900460ff166006811115610eb757610eb66132d5565b5b14610ef7576040517f08c379a0000000000000000000000000000000000000000000000000000000008152600401610eee906140aa565b60405180910390fd5b610eff612699565b6000610f0a336125f2565b905060006001600860008473ffffffffffffffffffffffffffffffffffffffff1673ffffffffffffffffffffffffffffffffffffffff16815260200190815260200160002060020180549050610f6091906140ca565b90508660ff16600860008473ffffffffffffffffffffffffffffffffffffffff1673ffffffffffffffffffffffffffffffffffffffff1681526020019081526020016000206002018281548110610fba57610fb96140fe565b5b9060005260206000200160000160009054906101000a900460ff1660ff1614611018576040517f08c379a000000000000000000000000000000000000000000000000000000000815260040161100f9061419f565b60405180910390fd5b6001600381111561102c5761102b6132d5565b5b600860008473ffffffffffffffffffffffffffffffffffffffff1673ffffffffffffffffffffffffffffffffffffffff16815260200190815260200160002060020182815481106110805761107f6140fe565b5b9060005260206000200160000160019054906101000a900460ff1660038111156110ad576110ac6132d5565b5b146110ed576040517f08c379a00000000000000000000000000000000000000000000000000000000081526004016110e49061420b565b60405180910390fd5b6110f987878787612951565b61114e5781600460006101000a81548173ffffffffffffffffffffffffffffffffffffffff021916908373ffffffffffffffffffffffffffffffffffffffff160217905550611147826128b6565b50506113ee565b8515611357576002600860008473ffffffffffffffffffffffffffffffffffffffff1673ffffffffffffffffffffffffffffffffffffffff16815260200190815260200160002060020182815481106111aa576111a96140fe565b5b9060005260206000200160000160016101000a81548160ff021916908360038111156111d9576111d86132d5565b5b0217905550600860003373ffffffffffffffffffffffffffffffffffffffff1673ffffffffffffffffffffffffffffffffffffffff168152602001908152602001600020600401600081819054906101000a900460ff168092919061123d9061422b565b91906101000a81548160ff021916908360ff16021790555050600a60ff16600860003373ffffffffffffffffffffffffffffffffffffffff1673ffffffffffffffffffffffffffffffffffffffff16815260200190815260200160002060040160009054906101000a900460ff1660ff16036113525781600460006101000a81548173ffffffffffffffffffffffffffffffffffffffff021916908373ffffffffffffffffffffffffffffffffffffffff1602179055506004600760006101000a81548160ff0219169083600681111561131a576113196132d5565b5b02179055507fd97b93932fb19b110a4bdb280c92d957b09506af4eb00c0bfe43f9e28488408260405160405180910390a150506113ee565b6113e2565b6003600860008473ffffffffffffffffffffffffffffffffffffffff1673ffffffffffffffffffffffffffffffffffffffff16815260200190815260200160002060020182815481106113ad576113ac6140fe565b5b9060005260206000200160000160016101000a81548160ff021916908360038111156113dc576113db6132d5565b5b02179055505b6113eb836129ff565b50505b5050505050565b6060600860008373ffffffffffffffffffffffffffffffffffffffff1673ffffffffffffffffffffffffffffffffffffffff168152602001908152602001600020600201805480602002602001604051908101604052809291908181526020016000905b828210156114df578382906000526020600020016040518060400160405290816000820160009054906101000a900460ff1660ff1660ff1681526020016000820160019054906101000a900460ff1660038111156114ba576114b96132d5565b5b60038111156114cc576114cb6132d5565b5b8152505081526020019060010190611459565b505050509050919050565b600060068111156114fe576114fd6132d5565b5b600760009054906101000a900460ff1660068111156115205761151f6132d5565b5b14611560576040517f08c379a0000000000000000000000000000000000000000000000000000000008152600401611557906142c6565b60405180910390fd5b80600160006101000a81548173ffffffffffffffffffffffffffffffffffffffff021916908373ffffffffffffffffffffffffffffffffffffffff1602179055506001600760006101000a81548160ff021916908360068111156115c7576115c66132d5565b5b021790555050565b60008054906101000a900473ffffffffffffffffffffffffffffffffffffffff1681565b60025481565b600360009054906101000a900473ffffffffffffffffffffffffffffffffffffffff1673ffffffffffffffffffffffffffffffffffffffff163373ffffffffffffffffffffffffffffffffffffffff161461165357600080fd5b60036006811115611667576116666132d5565b5b600760009054906101000a900460ff166006811115611689576116886132d5565b5b146116c9576040517f08c379a00000000000000000000000000000000000000000000000000000000081526004016116c0906140aa565b60405180910390fd5b6116d1612699565b6116da816129ff565b50565b600360009054906101000a900473ffffffffffffffffffffffffffffffffffffffff1681565b60046006811115611717576117166132d5565b5b600760009054906101000a900460ff166006811115611739576117386132d5565b5b14611779576040517f08c379a000000000000000000000000000000000000000000000000000000000815260040161177090614358565b60405180910390fd5b611781612699565b600460009054906101000a900473ffffffffffffffffffffffffffffffffffffffff1673ffffffffffffffffffffffffffffffffffffffff163373ffffffffffffffffffffffffffffffffffffffff1614611811576040517f08c379a0000000000000000000000000000000000000000000000000000000008152600401611808906143ea565b60405180910390fd5b8351855114611855576040517f08c379a000000000000000000000000000000000000000000000000000000000815260040161184c9061447c565b60405180910390fd5b8251855114611899576040517f08c379a00000000000000000000000000000000000000000000000000000000081526004016118909061447c565b60405180910390fd5b60006118a4336125f2565b90506118f68383600860003373ffffffffffffffffffffffffffffffffffffffff1673ffffffffffffffffffffffffffffffffffffffff16815260200190815260200160002060010154898989612d74565b61190957611903816128b6565b50611be9565b6000805b87518160ff161015611ac357604060ff16888260ff1681518110611934576119336140fe565b5b602002602001015160ff16106119555761194d836128b6565b505050611be9565b600860008473ffffffffffffffffffffffffffffffffffffffff1673ffffffffffffffffffffffffffffffffffffffff1681526020019081526020016000206003016000898360ff16815181106119af576119ae6140fe565b5b602002602001015160ff1660ff16815260200190815260200160002060009054906101000a900460ff16156119ef576119e7836128b6565b505050611be9565b6001600860008573ffffffffffffffffffffffffffffffffffffffff1673ffffffffffffffffffffffffffffffffffffffff16815260200190815260200160002060030160008a8460ff1681518110611a4b57611a4a6140fe565b5b602002602001015160ff1660ff16815260200190815260200160002060006101000a81548160ff021916908315150217905550868160ff1681518110611a9457611a936140fe565b5b602002602001015115611ab0578180611aac9061422b565b9250505b8080611abb9061422b565b91505061190d565b5060005b604060ff168160ff161015611b6557600860008473ffffffffffffffffffffffffffffffffffffffff1673ffffffffffffffffffffffffffffffffffffffff16815260200190815260200160002060030160008260ff1660ff16815260200190815260200160002060009054906101000a900460ff16611b5257611b4a836128b6565b505050611be9565b8080611b5d9061422b565b915050611ac7565b50600a60ff1681600860003373ffffffffffffffffffffffffffffffffffffffff1673ffffffffffffffffffffffffffffffffffffffff16815260200190815260200160002060040160009054906101000a900460ff16611bc6919061449c565b60ff1603611bdc57611bd7336128b6565b611be6565b611be5826128b6565b5b50505b5050505050565b600460009054906101000a900473ffffffffffffffffffffffffffffffffffffffff1681565b60008054906101000a900473ffffffffffffffffffffffffffffffffffffffff1673ffffffffffffffffffffffffffffffffffffffff163373ffffffffffffffffffffffffffffffffffffffff161480611cbd5750600160009054906101000a900473ffffffffffffffffffffffffffffffffffffffff1673ffffffffffffffffffffffffffffffffffffffff163373ffffffffffffffffffffffffffffffffffffffff16145b611cfc576040517f08c379a0000000000000000000000000000000000000000000000000000000008152600401611cf390613c29565b60405180910390fd5b60026006811115611d1057611d0f6132d5565b5b600760009054906101000a900460ff166006811115611d3257611d316132d5565b5b14611d72576040517f08c379a0000000000000000000000000000000000000000000000000000000008152600401611d6990614543565b60405180910390fd5b611d7a612699565b6000801b600860003373ffffffffffffffffffffffffffffffffffffffff1673ffffffffffffffffffffffffffffffffffffffff1681526020019081526020016000206001015414611e01576040517f08c379a0000000000000000000000000000000000000000000000000000000008152600401611df8906145af565b60405180910390fd5b80600860003373ffffffffffffffffffffffffffffffffffffffff1673ffffffffffffffffffffffffffffffffffffffff168152602001908152602001600020600101819055506000801b600860008060009054906101000a900473ffffffffffffffffffffffffffffffffffffffff1673ffffffffffffffffffffffffffffffffffffffff1673ffffffffffffffffffffffffffffffffffffffff1681526020019081526020016000206001015414158015611f2557506000801b60086000600160009054906101000a900473ffffffffffffffffffffffffffffffffffffffff1673ffffffffffffffffffffffffffffffffffffffff1673ffffffffffffffffffffffffffffffffffffffff1681526020019081526020016000206001015414155b15611fe3576003600760006101000a81548160ff02191690836006811115611f5057611f4f6132d5565b5b021790555060008054906101000a900473ffffffffffffffffffffffffffffffffffffffff16600360006101000a81548173ffffffffffffffffffffffffffffffffffffffff021916908373ffffffffffffffffffffffffffffffffffffffff1602179055507f4cf2e2dcdeacb2322843921968cb0e6a97a686594cb0a4f29abb65a7ed65195260405160405180910390a15b50565b60008054906101000a900473ffffffffffffffffffffffffffffffffffffffff1673ffffffffffffffffffffffffffffffffffffffff163373ffffffffffffffffffffffffffffffffffffffff16148061208d5750600160009054906101000a900473ffffffffffffffffffffffffffffffffffffffff1673ffffffffffffffffffffffffffffffffffffffff163373ffffffffffffffffffffffffffffffffffffffff16145b6120cc576040517f08c379a00000000000000000000000000000000000000000000000000000000081526004016120c390613c29565b60405180910390fd5b60006120d7336125f2565b905080600460006101000a81548173ffffffffffffffffffffffffffffffffffffffff021916908373ffffffffffffffffffffffffffffffffffffffff160217905550612123816128b6565b50565b6000612131336125f2565b9050600860003373ffffffffffffffffffffffffffffffffffffffff1673ffffffffffffffffffffffffffffffffffffffff16815260200190815260200160002060040160019054906101000a900460ff16156121c3576040517f08c379a00000000000000000000000000000000000000000000000000000000081526004016121ba90614641565b60405180910390fd5b600060068111156121d7576121d66132d5565b5b600760009054906101000a900460ff1660068111156121f9576121f86132d5565b5b1415801561223b575060056006811115612216576122156132d5565b5b600760009054906101000a900460ff166006811115612238576122376132d5565b5b14155b801561227a5750600680811115612255576122546132d5565b5b600760009054906101000a900460ff166006811115612277576122766132d5565b5b14155b6122b9576040517f08c379a00000000000000000000000000000000000000000000000000000000081526004016122b0906146d3565b60405180910390fd5b600160068111156122cd576122cc6132d5565b5b600760009054906101000a900460ff1660068111156122ef576122ee6132d5565b5b0361238957600860008273ffffffffffffffffffffffffffffffffffffffff1673ffffffffffffffffffffffffffffffffffffffff16815260200190815260200160002060000160009054906101000a900460ff1615612384576040517f08c379a000000000000000000000000000000000000000000000000000000000815260040161237b90614765565b60405180910390fd5b6125ef565b6002600681111561239d5761239c6132d5565b5b600760009054906101000a900460ff1660068111156123bf576123be6132d5565b5b03612450576000801b600860008373ffffffffffffffffffffffffffffffffffffffff1673ffffffffffffffffffffffffffffffffffffffff168152602001908152602001600020600101541461244b576040517f08c379a0000000000000000000000000000000000000000000000000000000008152600401612442906147f7565b60405180910390fd5b6125ee565b60036006811115612464576124636132d5565b5b600760009054906101000a900460ff166006811115612486576124856132d5565b5b03612520578073ffffffffffffffffffffffffffffffffffffffff16600360009054906101000a900473ffffffffffffffffffffffffffffffffffffffff1673ffffffffffffffffffffffffffffffffffffffff161461251b576040517f08c379a000000000000000000000000000000000000000000000000000000000815260040161251290614863565b60405180910390fd5b6125ed565b60046006811115612534576125336132d5565b5b600760009054906101000a900460ff166006811115612556576125556132d5565b5b036125ec578073ffffffffffffffffffffffffffffffffffffffff16600460009054906101000a900473ffffffffffffffffffffffffffffffffffffffff1673ffffffffffffffffffffffffffffffffffffffff16146125eb576040517f08c379a00000000000000000000000000000000000000000000000000000000081526004016125e2906148f5565b60405180910390fd5b5b5b5b5b50565b60008060009054906101000a900473ffffffffffffffffffffffffffffffffffffffff1673ffffffffffffffffffffffffffffffffffffffff168273ffffffffffffffffffffffffffffffffffffffff161461266e5760008054906101000a900473ffffffffffffffffffffffffffffffffffffffff16612692565b600160009054906101000a900473ffffffffffffffffffffffffffffffffffffffff165b9050919050565b600860003373ffffffffffffffffffffffffffffffffffffffff1673ffffffffffffffffffffffffffffffffffffffff16815260200190815260200160002060040160019054906101000a900460ff16156128b35760065443101561279b576000600860003373ffffffffffffffffffffffffffffffffffffffff1673ffffffffffffffffffffffffffffffffffffffff16815260200190815260200160002060040160016101000a81548160ff0219169083151502179055503373ffffffffffffffffffffffffffffffffffffffff167f625ba646f05ab036edd0f8d88cd3926fe26722c0b6717841fcb9334334a4d09560405160405180910390a26128b2565b60065443106128b15760008054906101000a900473ffffffffffffffffffffffffffffffffffffffff1673ffffffffffffffffffffffffffffffffffffffff163373ffffffffffffffffffffffffffffffffffffffff161461281d5760008054906101000a900473ffffffffffffffffffffffffffffffffffffffff16612841565b600160009054906101000a900473ffffffffffffffffffffffffffffffffffffffff165b600460006101000a81548173ffffffffffffffffffffffffffffffffffffffff021916908373ffffffffffffffffffffffffffffffffffffffff1602179055506128ac600460009054906101000a900473ffffffffffffffffffffffffffffffffffffffff166128b6565b6128b4565b5b5b5b565b80600560006101000a81548173ffffffffffffffffffffffffffffffffffffffff021916908373ffffffffffffffffffffffffffffffffffffffff1602179055506005600760006101000a81548160ff0219169083600681111561291d5761291c6132d5565b5b02179055507f07ac267484df2273e35b6fe5bf62edf0a22f6d2436839af80d2d5ff5028fc35960405160405180910390a150565b60008085858560405160200161296993929190614933565b6040516020818303038152906040528051906020012060405160200161298f919061498b565b6040516020818303038152906040528051906020012090506129f483600860003373ffffffffffffffffffffffffffffffffffffffff1673ffffffffffffffffffffffffffffffffffffffff1681526020019081526020016000206001015483612ec9565b915050949350505050565b600860003373ffffffffffffffffffffffffffffffffffffffff1673ffffffffffffffffffffffffffffffffffffffff16815260200190815260200160002060030160008260ff1660ff16815260200190815260200160002060009054906101000a900460ff1615612aa6576040517f08c379a0000000000000000000000000000000000000000000000000000000008152600401612a9d906149f2565b60405180910390fd5b604060ff168160ff1610612aef576040517f08c379a0000000000000000000000000000000000000000000000000000000008152600401612ae690614a5e565b60405180910390fd5b600860003373ffffffffffffffffffffffffffffffffffffffff1673ffffffffffffffffffffffffffffffffffffffff16815260200190815260200160002060020160405180604001604052808360ff16815260200160016003811115612b5957612b586132d5565b5b8152509080600181540180825580915050600190039060005260206000200160009091909190915060008201518160000160006101000a81548160ff021916908360ff16021790555060208201518160000160016101000a81548160ff02191690836003811115612bcd57612bcc6132d5565b5b021790555050506001600860003373ffffffffffffffffffffffffffffffffffffffff1673ffffffffffffffffffffffffffffffffffffffff16815260200190815260200160002060030160008360ff1660ff16815260200190815260200160002060006101000a81548160ff02191690831515021790555060008054906101000a900473ffffffffffffffffffffffffffffffffffffffff1673ffffffffffffffffffffffffffffffffffffffff16600360009054906101000a900473ffffffffffffffffffffffffffffffffffffffff1673ffffffffffffffffffffffffffffffffffffffff1614612ce15760008054906101000a900473ffffffffffffffffffffffffffffffffffffffff16612d05565b600160009054906101000a900473ffffffffffffffffffffffffffffffffffffffff165b600360006101000a81548173ffffffffffffffffffffffffffffffffffffffff021916908373ffffffffffffffffffffffffffffffffffffffff1602179055507f8441454a1a5df9634c4ede24cff9ca643cf1d86f583e47ec26925580342f558f60405160405180910390a150565b600080845167ffffffffffffffff811115612d9257612d91613438565b5b604051908082528060200260200182016040528015612dc05781602001602082028036833780820191505090505b50905060005b81518160ff161015612eaf57858160ff1681518110612de857612de76140fe565b5b6020026020010151858260ff1681518110612e0657612e056140fe565b5b6020026020010151858360ff1681518110612e2457612e236140fe565b5b6020026020010151604051602001612e3e93929190614933565b60405160208183030381529060405280519060200120604051602001612e64919061498b565b60405160208183030381529060405280519060200120828260ff1681518110612e9057612e8f6140fe565b5b6020026020010181815250508080612ea79061422b565b915050612dc6565b50612ebc88888884612ee0565b9150509695505050505050565b600082612ed68584612ef9565b1490509392505050565b600082612eee868685612f4f565b149050949350505050565b60008082905060005b8451811015612f4457612f2f82868381518110612f2257612f216140fe565b5b6020026020010151613237565b91508080612f3c90614a7e565b915050612f02565b508091505092915050565b600080825190506000855190506000855190508060018385612f719190613d0a565b612f7b91906140ca565b14612fbb576040517f08c379a0000000000000000000000000000000000000000000000000000000008152600401612fb290614b12565b60405180910390fd5b60008167ffffffffffffffff811115612fd757612fd6613438565b5b6040519080825280602002602001820160405280156130055781602001602082028036833780820191505090505b5090506000806000805b8581101561315f57600088851061304c5785848061302c90614a7e565b95508151811061303f5761303e6140fe565b5b6020026020010151613074565b8a858061305890614a7e565b96508151811061306b5761306a6140fe565b5b60200260200101515b905060008c838151811061308b5761308a6140fe565b5b60200260200101516130c3578d84806130a390614a7e565b9550815181106130b6576130b56140fe565b5b602002602001015161311f565b8986106130f6578685806130d690614a7e565b9650815181106130e9576130e86140fe565b5b602002602001015161311e565b8b868061310290614a7e565b975081518110613115576131146140fe565b5b60200260200101515b5b905061312b8282613237565b87848151811061313e5761313d6140fe565b5b6020026020010181815250505050808061315790614a7e565b91505061300f565b5060008511156131d7578581146131ab576040517f08c379a00000000000000000000000000000000000000000000000000000000081526004016131a290614b12565b60405180910390fd5b8360018603815181106131c1576131c06140fe565b5b6020026020010151975050505050505050613230565b600087111561320a57886000815181106131f4576131f36140fe565b5b6020026020010151975050505050505050613230565b8a60008151811061321e5761321d6140fe565b5b60200260200101519750505050505050505b9392505050565b600081831061324f5761324a8284613262565b61325a565b6132598383613262565b5b905092915050565b600082600052816020526040600020905092915050565b600073ffffffffffffffffffffffffffffffffffffffff82169050919050565b60006132a482613279565b9050919050565b6132b481613299565b82525050565b60006020820190506132cf60008301846132ab565b92915050565b7f4e487b7100000000000000000000000000000000000000000000000000000000600052602160045260246000fd5b60078110613315576133146132d5565b5b50565b600081905061332682613304565b919050565b600061333682613318565b9050919050565b6133468161332b565b82525050565b6000602082019050613361600083018461333d565b92915050565b6000604051905090565b600080fd5b600080fd5b600060ff82169050919050565b6133918161337b565b811461339c57600080fd5b50565b6000813590506133ae81613388565b92915050565b60008115159050919050565b6133c9816133b4565b81146133d457600080fd5b50565b6000813590506133e6816133c0565b92915050565b6000819050919050565b6133ff816133ec565b811461340a57600080fd5b50565b60008135905061341c816133f6565b92915050565b600080fd5b6000601f19601f8301169050919050565b7f4e487b7100000000000000000000000000000000000000000000000000000000600052604160045260246000fd5b61347082613427565b810181811067ffffffffffffffff8211171561348f5761348e613438565b5b80604052505050565b60006134a2613367565b90506134ae8282613467565b919050565b600067ffffffffffffffff8211156134ce576134cd613438565b5b602082029050602081019050919050565b600080fd5b6000819050919050565b6134f7816134e4565b811461350257600080fd5b50565b600081359050613514816134ee565b92915050565b600061352d613528846134b3565b613498565b905080838252602082019050602084028301858111156135505761354f6134df565b5b835b8181101561357957806135658882613505565b845260208401935050602081019050613552565b5050509392505050565b600082601f83011261359857613597613422565b5b81356135a884826020860161351a565b91505092915050565b600080600080600060a086880312156135cd576135cc613371565b5b60006135db8882890161339f565b95505060206135ec888289016133d7565b94505060406135fd8882890161340d565b935050606086013567ffffffffffffffff81111561361e5761361d613376565b5b61362a88828901613583565b925050608061363b8882890161339f565b9150509295509295909350565b61365181613299565b811461365c57600080fd5b50565b60008135905061366e81613648565b92915050565b60006020828403121561368a57613689613371565b5b60006136988482850161365f565b91505092915050565b600081519050919050565b600082825260208201905092915050565b6000819050602082019050919050565b6136d68161337b565b82525050565b600481106136ed576136ec6132d5565b5b50565b60008190506136fe826136dc565b919050565b600061370e826136f0565b9050919050565b61371e81613703565b82525050565b60408201600082015161373a60008501826136cd565b50602082015161374d6020850182613715565b50505050565b600061375f8383613724565b60408301905092915050565b6000602082019050919050565b6000613783826136a1565b61378d81856136ac565b9350613798836136bd565b8060005b838110156137c95781516137b08882613753565b97506137bb8361376b565b92505060018101905061379c565b5085935050505092915050565b600060208201905081810360008301526137f08184613778565b905092915050565b613801816133ec565b82525050565b600060208201905061381c60008301846137f8565b92915050565b60006020828403121561383857613837613371565b5b60006138468482850161339f565b91505092915050565b600067ffffffffffffffff82111561386a57613869613438565b5b602082029050602081019050919050565b600061388e6138898461384f565b613498565b905080838252602082019050602084028301858111156138b1576138b06134df565b5b835b818110156138da57806138c6888261339f565b8452602084019350506020810190506138b3565b5050509392505050565b600082601f8301126138f9576138f8613422565b5b813561390984826020860161387b565b91505092915050565b600067ffffffffffffffff82111561392d5761392c613438565b5b602082029050602081019050919050565b600061395161394c84613912565b613498565b90508083825260208201905060208402830185811115613974576139736134df565b5b835b8181101561399d578061398988826133d7565b845260208401935050602081019050613976565b5050509392505050565b600082601f8301126139bc576139bb613422565b5b81356139cc84826020860161393e565b91505092915050565b600067ffffffffffffffff8211156139f0576139ef613438565b5b602082029050602081019050919050565b6000613a14613a0f846139d5565b613498565b90508083825260208201905060208402830185811115613a3757613a366134df565b5b835b81811015613a605780613a4c888261340d565b845260208401935050602081019050613a39565b5050509392505050565b600082601f830112613a7f57613a7e613422565b5b8135613a8f848260208601613a01565b91505092915050565b600080600080600060a08688031215613ab457613ab3613371565b5b600086013567ffffffffffffffff811115613ad257613ad1613376565b5b613ade888289016138e4565b955050602086013567ffffffffffffffff811115613aff57613afe613376565b5b613b0b888289016139a7565b945050604086013567ffffffffffffffff811115613b2c57613b2b613376565b5b613b3888828901613a6a565b935050606086013567ffffffffffffffff811115613b5957613b58613376565b5b613b6588828901613583565b925050608086013567ffffffffffffffff811115613b8657613b85613376565b5b613b92888289016139a7565b9150509295509295909350565b600060208284031215613bb557613bb4613371565b5b6000613bc384828501613505565b91505092915050565b600082825260208201905092915050565b7f596f75206172656e2774206120706c61796572206f6620746869732067616d65600082015250565b6000613c13602083613bcc565b9150613c1e82613bdd565b602082019050919050565b60006020820190508181036000830152613c4281613c06565b9050919050565b7f596f7520616c7265616479207265706f7274656420796f7572206f70706f6e6560008201527f6e74000000000000000000000000000000000000000000000000000000000000602082015250565b6000613ca5602283613bcc565b9150613cb082613c49565b604082019050919050565b60006020820190508181036000830152613cd481613c98565b9050919050565b7f4e487b7100000000000000000000000000000000000000000000000000000000600052601160045260246000fd5b6000613d15826133ec565b9150613d20836133ec565b9250828201905080821115613d3857613d37613cdb565b5b92915050565b7f546869732067616d652069736e277420696e207468652077697468647261772060008201527f7068617365000000000000000000000000000000000000000000000000000000602082015250565b6000613d9a602583613bcc565b9150613da582613d3e565b604082019050919050565b60006020820190508181036000830152613dc981613d8d565b9050919050565b7f4f6e6c79207468652077696e6e65722063616e2077697468647261772074686560008201527f207072697a650000000000000000000000000000000000000000000000000000602082015250565b6000613e2c602683613bcc565b9150613e3782613dd0565b604082019050919050565b60006020820190508181036000830152613e5b81613e1f565b9050919050565b7f546869732067616d652069736e277420696e2074686520706179696e6720706860008201527f6173650000000000000000000000000000000000000000000000000000000000602082015250565b6000613ebe602383613bcc565b9150613ec982613e62565b604082019050919050565b60006020820190508181036000830152613eed81613eb1565b9050919050565b7f42657420616c7265616479206465706f73697465640000000000000000000000600082015250565b6000613f2a601583613bcc565b9150613f3582613ef4565b602082019050919050565b60006020820190508181036000830152613f5981613f1d565b9050919050565b7f4d75737420706179207468652061677265656420616d6f756e74000000000000600082015250565b6000613f96601a83613bcc565b9150613fa182613f60565b602082019050919050565b60006020820190508181036000830152613fc581613f89565b9050919050565b7f596f75206469646e2774207265706f727420796f7572206f70706f6e656e7400600082015250565b6000614002601f83613bcc565b915061400d82613fcc565b602082019050919050565b6000602082019050818103600083015261403181613ff5565b9050919050565b7f546869732067616d652069736e277420696e2074686520706c6179696e67207060008201527f6861736500000000000000000000000000000000000000000000000000000000602082015250565b6000614094602483613bcc565b915061409f82614038565b604082019050919050565b600060208201905081810360008301526140c381614087565b9050919050565b60006140d5826133ec565b91506140e0836133ec565b92508282039050818111156140f8576140f7613cdb565b5b92915050565b7f4e487b7100000000000000000000000000000000000000000000000000000000600052603260045260246000fd5b7f53746f72656420616e642073656e7420696e6465786573206f6620746865207360008201527f686f7420746f20636f6e6669726d20646f6e2774206d61746368000000000000602082015250565b6000614189603a83613bcc565b91506141948261412d565b604082019050919050565b600060208201905081810360008301526141b88161417c565b9050919050565b7f496e76616c69642063656c6c2076616c75650000000000000000000000000000600082015250565b60006141f5601283613bcc565b9150614200826141bf565b602082019050919050565b60006020820190508181036000830152614224816141e8565b9050919050565b60006142368261337b565b915060ff820361424957614248613cdb565b5b600182019050919050565b7f546869732067616d652069736e277420696e207468652077616974696e67207060008201527f6861736500000000000000000000000000000000000000000000000000000000602082015250565b60006142b0602483613bcc565b91506142bb82614254565b604082019050919050565b600060208201905081810360008301526142df816142a3565b9050919050565b7f546869732067616d652069736e277420696e2074686520766572696679696e6760008201527f2070686173650000000000000000000000000000000000000000000000000000602082015250565b6000614342602683613bcc565b915061434d826142e6565b604082019050919050565b6000602082019050818103600083015261437181614335565b9050919050565b7f4f6e6c79207468652077696e6e65722063616e2073656e642074686520626f6160008201527f7264000000000000000000000000000000000000000000000000000000000000602082015250565b60006143d4602283613bcc565b91506143df82614378565b604082019050919050565b60006020820190508181036000830152614403816143c7565b9050919050565b7f4d7573742073656e6420616c6c20696e64657865732c2063656c6c7320616e6460008201527f2073616c74730000000000000000000000000000000000000000000000000000602082015250565b6000614466602683613bcc565b91506144718261440a565b604082019050919050565b6000602082019050818103600083015261449581614459565b9050919050565b60006144a78261337b565b91506144b28361337b565b9250828201905060ff8111156144cb576144ca613cdb565b5b92915050565b7f546869732067616d652069736e277420696e2074686520706c6163696e67207060008201527f6861736500000000000000000000000000000000000000000000000000000000602082015250565b600061452d602483613bcc565b9150614538826144d1565b604082019050919050565b6000602082019050818103600083015261455c81614520565b9050919050565b7f426f61726420616c726561647920636f6d6d6974746564000000000000000000600082015250565b6000614599601783613bcc565b91506145a482614563565b602082019050919050565b600060208201905081810360008301526145c88161458c565b9050919050565b7f43616e2774207265706f727420696620796f75277265207265706f727465642060008201527f796f757273656c66000000000000000000000000000000000000000000000000602082015250565b600061462b602883613bcc565b9150614636826145cf565b604082019050919050565b6000602082019050818103600083015261465a8161461e565b9050919050565b7f43616e2774207265706f727420696e2074686973207068617365206f6620746860008201527f652067616d650000000000000000000000000000000000000000000000000000602082015250565b60006146bd602683613bcc565b91506146c882614661565b604082019050919050565b600060208201905081810360008301526146ec816146b0565b9050919050565b7f43616e2774207265706f72742c20796f7572206f70706f6e656e7420616c726560008201527f616479206465706f736974656400000000000000000000000000000000000000602082015250565b600061474f602d83613bcc565b915061475a826146f3565b604082019050919050565b6000602082019050818103600083015261477e81614742565b9050919050565b7f43616e2774207265706f72742c20796f7572206f70706f6e656e74277320626f60008201527f6172642077617320616c726561647920636f6d6d697474656400000000000000602082015250565b60006147e1603983613bcc565b91506147ec82614785565b604082019050919050565b60006020820190508181036000830152614810816147d4565b9050919050565b7f43616e2774207265706f72742c206974277320796f7572207475726e00000000600082015250565b600061484d601c83613bcc565b915061485882614817565b602082019050919050565b6000602082019050818103600083015261487c81614840565b9050919050565b7f43616e2774207265706f72742c20796f75206861766520746f2073656e64207960008201527f6f757220626f6172640000000000000000000000000000000000000000000000602082015250565b60006148df602983613bcc565b91506148ea82614883565b604082019050919050565b6000602082019050818103600083015261490e816148d2565b9050919050565b61491e8161337b565b82525050565b61492d816133b4565b82525050565b60006060820190506149486000830186614915565b6149556020830185614924565b61496260408301846137f8565b949350505050565b6000819050919050565b614985614980826134e4565b61496a565b82525050565b60006149978284614974565b60208201915081905092915050565b7f546861742063656c6c2068617320616c7265616479206265656e2073686f7400600082015250565b60006149dc601f83613bcc565b91506149e7826149a6565b602082019050919050565b60006020820190508181036000830152614a0b816149cf565b9050919050565b7f496e76616c69642063656c6c20696e6465780000000000000000000000000000600082015250565b6000614a48601283613bcc565b9150614a5382614a12565b602082019050919050565b60006020820190508181036000830152614a7781614a3b565b9050919050565b6000614a89826133ec565b91507fffffffffffffffffffffffffffffffffffffffffffffffffffffffffffffffff8203614abb57614aba613cdb565b5b600182019050919050565b7f4d65726b6c6550726f6f663a20696e76616c6964206d756c746970726f6f6600600082015250565b6000614afc601f83613bcc565b9150614b0782614ac6565b602082019050919050565b60006020820190508181036000830152614b2b81614aef565b905091905056fea2646970667358221220e5a4b94ec819e2cf7423c1563e47f28c3a9e3abde328fa9272cb0d69fe303b1364736f6c63430008130033",
  "immutableReferences": {},
  "source": "// SPDX-License-Identifier: MIT\npragma solidity >=0.8.0 <0.9.0;\n\nimport \"@openzeppelin/contracts/utils/cryptography/MerkleProof.sol\";\n\ncontract Battleship {\n    // ---- Local constants\n    // number of cells in the board (default: 8 * 8 = 64)\n    uint8 constant BOARD_SIZE = 64;\n    // number of ships for each player (default: 10)\n    uint8 constant SHIP_COUNT = 10;\n    // number of mined blocks before a reported player loses\n    uint8 constant DELAY = 5;\n\n    // ---- Local variables\n    address public playerOne;\n    address public playerTwo;\n    uint256 public agreedBet;\n    address public playerTurn;\n    address public winner;\n    address public verifiedWinner;\n    uint256 timeout;\n\n    // various phases of the game\n    enum Phase {\n        Waiting,\n        Paying,\n        Placing,\n        Playing,\n        Verifying,\n        Withdraw,\n        End\n    }\n\n    // the current phase of the game\n    Phase public gamePhase;\n\n    // possible values of a cell\n    enum Cell {\n        None,\n        Unconfirm,\n        Sunk,\n        Miss\n    }\n\n    struct Shot {\n        uint8 index;\n        Cell value;\n    }\n\n    // player's information\n    struct Player {\n        bool payedBet;\n        bytes32 treeRoot;\n        Shot[] shots;\n        mapping(uint8 => bool) shotsMap;\n        uint8 hits;\n        bool reported;\n    }\n\n    mapping(address => Player) players;\n\n    // ---- Events\n    // emitted when both players paid the bet\n    event BetPayed();\n    // emitted when both players placed their ships\n    event GameStart();\n    // emitted when a player takes a shot\n    event ShotTaken();\n    // emitted when the game is won by someone\n    event GameWon();\n    // emitted when the winner is verified\n    event WinnerVerified();\n    // emitted when a player is reported\n    event PlayerReported(address indexed player);\n    // emitted when a reported player made a move in time\n    event PlayerMoved(address indexed player);\n\n    // ---- Modifiers\n    // checks that the sender is player one or two\n    modifier isPlayer() {\n        require(\n            msg.sender == playerOne || msg.sender == playerTwo,\n            \"You aren't a player of this game\"\n        );\n        _;\n    }\n\n    // checks if it's the message sender's turn\n    modifier isPlayerTurn() {\n        require(msg.sender == playerTurn);\n        _;\n    }\n\n    // checks if you can report your opponent at this time\n    modifier canReport() {\n        _canReport();\n        _;\n    }\n\n    // checks if a reported player made a move before the timeout\n    modifier makeMove() {\n        _makeMove();\n        _;\n    }\n\n    // checks for the various game's phases\n    modifier waitingPhase() {\n        require(\n            gamePhase == Phase.Waiting,\n            \"This game isn't in the waiting phase\"\n        );\n        _;\n    }\n\n    modifier payingPhase() {\n        require(\n            gamePhase == Phase.Paying,\n            \"This game isn't in the paying phase\"\n        );\n        _;\n    }\n\n    modifier placingPhase() {\n        require(\n            gamePhase == Phase.Placing,\n            \"This game isn't in the placing phase\"\n        );\n        _;\n    }\n\n    modifier playingPhase() {\n        require(\n            gamePhase == Phase.Playing,\n            \"This game isn't in the playing phase\"\n        );\n        _;\n    }\n\n    modifier verifyingPhase() {\n        require(\n            gamePhase == Phase.Verifying,\n            \"This game isn't in the verifying phase\"\n        );\n        _;\n    }\n\n    modifier withdrawPhase() {\n        require(\n            gamePhase == Phase.Withdraw,\n            \"This game isn't in the withdraw phase\"\n        );\n        _;\n    }\n\n    // ---- External functions\n    // contract constructor\n    constructor(address creator, uint256 bet) {\n        playerOne = creator;\n        agreedBet = bet;\n        gamePhase = Phase.Waiting;\n    }\n\n    // adds the second player to the game\n    function addPlayerTwo(address player) external waitingPhase {\n        playerTwo = player;\n        gamePhase = Phase.Paying;\n    }\n\n    // deposits the agreed bet and adds the second player\n    function depositBet() external payable isPlayer payingPhase makeMove {\n        require(!players[msg.sender].payedBet, \"Bet already deposited\");\n        require(msg.value == agreedBet, \"Must pay the agreed amount\");\n        players[msg.sender].payedBet = true;\n        if (players[playerOne].payedBet && players[playerTwo].payedBet) {\n            gamePhase = Phase.Placing;\n            emit BetPayed();\n        }\n    }\n\n    // saves the Merkle tree root of the sender\n    function commitBoard(\n        bytes32 merkleTreeRoot\n    ) external isPlayer placingPhase makeMove {\n        require(players[msg.sender].treeRoot == 0, \"Board already committed\");\n        players[msg.sender].treeRoot = merkleTreeRoot;\n        if (\n            players[playerOne].treeRoot != 0 && players[playerTwo].treeRoot != 0\n        ) {\n            gamePhase = Phase.Playing;\n            playerTurn = playerOne;\n            emit GameStart();\n        }\n    }\n\n    // first shot, nothing to confirm\n    function shoot(uint8 index) external isPlayerTurn playingPhase makeMove {\n        takeShot(index);\n    }\n\n    // confirms a hit/miss of the opponent and then shoots\n    function confirmAndShoot(\n        uint8 index,\n        bool ship,\n        uint256 salt,\n        bytes32[] memory proof,\n        uint8 shotIndex\n    ) external isPlayerTurn playingPhase makeMove {\n        address opponent = getOpponent(msg.sender);\n        uint256 lastIndex = players[opponent].shots.length - 1;\n        require(\n            players[opponent].shots[lastIndex].index == index,\n            \"Stored and sent indexes of the shot to confirm don't match\"\n        );\n        require(\n            players[opponent].shots[lastIndex].value == Cell.Unconfirm,\n            \"Invalid cell value\"\n        );\n        if (!merkleVerify(index, ship, salt, proof)) {\n            winner = opponent;\n            declareWinner(opponent);\n            return;\n        }\n        if (ship) {\n            players[opponent].shots[lastIndex].value = Cell.Sunk;\n            players[msg.sender].hits++;\n            if (players[msg.sender].hits == SHIP_COUNT) {\n                winner = opponent;\n                gamePhase = Phase.Verifying;\n                emit GameWon();\n                return;\n            }\n        } else {\n            players[opponent].shots[lastIndex].value = Cell.Miss;\n        }\n        takeShot(shotIndex);\n    }\n\n    // verifies the cells of the winner's board that haven't been shot\n    function boardCheck(\n        uint8[] memory indexes,\n        bool[] memory cells,\n        uint256[] memory salts,\n        bytes32[] memory proof,\n        bool[] memory proofFlags\n    ) external verifyingPhase makeMove {\n        require(msg.sender == winner, \"Only the winner can send the board\");\n        require(\n            indexes.length == cells.length,\n            \"Must send all indexes, cells and salts\"\n        );\n        require(\n            indexes.length == salts.length,\n            \"Must send all indexes, cells and salts\"\n        );\n        address opponent = getOpponent(msg.sender);\n        if (\n            !merkleMultiVerify(\n                proof,\n                proofFlags,\n                players[msg.sender].treeRoot,\n                indexes,\n                cells,\n                salts\n            )\n        ) {\n            declareWinner(opponent);\n            return;\n        }\n        // board checks, if something is wrong the opponent wins by default\n        uint8 ships = 0;\n        for (uint8 i = 0; i < indexes.length; i++) {\n            // checks the validity of the indexes\n            if (indexes[i] >= BOARD_SIZE) {\n                declareWinner(opponent);\n                return;\n            }\n            // checks that all the opponent's shots have been registered\n            if (players[opponent].shotsMap[indexes[i]]) {\n                declareWinner(opponent);\n                return;\n            }\n            // ticks the verified cells\n            players[opponent].shotsMap[indexes[i]] = true;\n            // counts the ships missed by the opponent\n            if (cells[i]) {\n                ships++;\n            }\n        }\n        // checks that every cell has been verified\n        for (uint8 i = 0; i < BOARD_SIZE; i++) {\n            if (!players[opponent].shotsMap[i]) {\n                declareWinner(opponent);\n                return;\n            }\n        }\n        // checks that the correct number of ships was placed\n        if (players[msg.sender].hits + ships == SHIP_COUNT) {\n            declareWinner(msg.sender);\n        } else {\n            declareWinner(opponent);\n        }\n    }\n\n    // returns the shots taken by a player\n    function getPlayerShots(\n        address player\n    ) external view returns (Shot[] memory) {\n        return players[player].shots;\n    }\n\n    // reports the opponent for inactivity\n    function report() external isPlayer canReport {\n        address opponent = getOpponent(msg.sender);\n        require(\n            !players[opponent].reported,\n            \"You already reported your opponent\"\n        );\n        players[opponent].reported = true;\n        timeout = block.number + DELAY;\n        emit PlayerReported(opponent);\n    }\n\n    // checks if the reported player made a move\n    function verifyReport() external isPlayer canReport {\n        address opponent = getOpponent(msg.sender);\n        require(players[opponent].reported, \"You didn't report your opponent\");\n        if (block.number >= timeout) {\n            winner = msg.sender;\n            declareWinner(msg.sender);\n        } else {\n            players[opponent].reported = false;\n            emit PlayerMoved(opponent);\n        }\n    }\n\n    // forfeits the game\n    function forfeit() external isPlayer {\n        address opponent = getOpponent(msg.sender);\n        winner = opponent;\n        declareWinner(opponent);\n    }\n\n    // transfers the contract's balance to the winner's wallet\n    function withdraw() external withdrawPhase {\n        require(\n            msg.sender == verifiedWinner,\n            \"Only the winner can withdraw the prize\"\n        );\n        gamePhase = Phase.End;\n        payable(msg.sender).transfer(address(this).balance);\n    }\n\n    // ---- Internal functions\n    // takes a shot given an index\n    function takeShot(uint8 index) internal {\n        require(\n            !players[msg.sender].shotsMap[index],\n            \"That cell has already been shot\"\n        );\n        require(index < BOARD_SIZE, \"Invalid cell index\");\n        players[msg.sender].shots.push(Shot(index, Cell.Unconfirm));\n        players[msg.sender].shotsMap[index] = true;\n        playerTurn = playerTurn == playerOne ? playerTwo : playerOne;\n        emit ShotTaken();\n    }\n\n    // verifies that the value is contained in the tree\n    function merkleVerify(\n        uint8 index,\n        bool ship,\n        uint256 salt,\n        bytes32[] memory proof\n    ) internal view returns (bool) {\n        bytes32 leaf = keccak256(\n            bytes.concat(keccak256(abi.encode(index, ship, salt)))\n        );\n        return MerkleProof.verify(proof, players[msg.sender].treeRoot, leaf);\n    }\n\n    // multiproof that verifies the values are contained in the tree\n    function merkleMultiVerify(\n        bytes32[] memory proof,\n        bool[] memory proofFlags,\n        bytes32 root,\n        uint8[] memory indexes,\n        bool[] memory cells,\n        uint256[] memory salts\n    ) internal pure returns (bool) {\n        bytes32[] memory leaves = new bytes32[](indexes.length);\n        for (uint8 i = 0; i < leaves.length; i++) {\n            leaves[i] = keccak256(\n                bytes.concat(\n                    keccak256(abi.encode(indexes[i], cells[i], salts[i]))\n                )\n            );\n        }\n        return MerkleProof.multiProofVerify(proof, proofFlags, root, leaves);\n    }\n\n    // returns the address of the sender's opponent\n    function getOpponent(address sender) internal view returns (address) {\n        return sender == playerOne ? playerTwo : playerOne;\n    }\n\n    // sets player as the game's winner\n    function declareWinner(address player) internal {\n        verifiedWinner = player;\n        gamePhase = Phase.Withdraw;\n        emit WinnerVerified();\n    }\n\n    // wrapped the modifiers with internal functions to reduce code size when deploying\n    function _canReport() private view {\n        address opponent = getOpponent(msg.sender);\n        require(\n            !players[msg.sender].reported,\n            \"Can't report if you're reported yourself\"\n        );\n        require(\n            gamePhase != Phase.Waiting &&\n                gamePhase != Phase.Withdraw &&\n                gamePhase != Phase.End,\n            \"Can't report in this phase of the game\"\n        );\n        if (gamePhase == Phase.Paying) {\n            require(\n                !players[opponent].payedBet,\n                \"Can't report, your opponent already deposited\"\n            );\n        } else if (gamePhase == Phase.Placing) {\n            require(\n                players[opponent].treeRoot == 0,\n                \"Can't report, your opponent's board was already committed\"\n            );\n        } else if (gamePhase == Phase.Playing) {\n            require(playerTurn == opponent, \"Can't report, it's your turn\");\n        } else if (gamePhase == Phase.Verifying) {\n            require(\n                winner == opponent,\n                \"Can't report, you have to send your board\"\n            );\n        }\n    }\n\n    function _makeMove() private {\n        if (players[msg.sender].reported) {\n            if (block.number < timeout) {\n                players[msg.sender].reported = false;\n                emit PlayerMoved(msg.sender);\n            } else if (block.number >= timeout) {\n                winner = msg.sender == playerOne ? playerTwo : playerOne;\n                declareWinner(winner);\n                return;\n            }\n        }\n    }\n}\n",
  "sourcePath": "/home/asel/Documents/GitHub/ethereum-battleship/contracts/Battleship.sol",
  "compiler": {
    "name": "solc",
    "version": "0.8.19+commit.7dd6d404.Emscripten.clang"
  },
  "schemaVersion": "3.4.14",
  "updatedAt": "2023-08-19T18:09:15.000Z",
  "devdoc": {
    "kind": "dev",
    "methods": {},
    "version": 1
  },
  "userdoc": {
    "kind": "user",
    "methods": {},
    "version": 1
  }
}