{
  "contractName": "Battleship",
  "abi": [
    {
      "inputs": [
        {
          "internalType": "address",
          "name": "creator",
          "type": "address"
        },
        {
          "internalType": "uint256",
          "name": "bet",
          "type": "uint256"
        }
      ],
      "stateMutability": "nonpayable",
      "type": "constructor"
    },
    {
      "anonymous": false,
      "inputs": [],
      "name": "BetPayed",
      "type": "event"
    },
    {
      "anonymous": false,
      "inputs": [],
      "name": "GameStart",
      "type": "event"
    },
    {
      "anonymous": false,
      "inputs": [],
      "name": "ShotTaken",
      "type": "event"
    },
    {
      "anonymous": false,
      "inputs": [],
      "name": "WinnerVerified",
      "type": "event"
    },
    {
      "anonymous": false,
      "inputs": [],
      "name": "Won",
      "type": "event"
    },
    {
      "inputs": [],
      "name": "agreedBet",
      "outputs": [
        {
          "internalType": "uint256",
          "name": "",
          "type": "uint256"
        }
      ],
      "stateMutability": "view",
      "type": "function"
    },
    {
      "inputs": [],
      "name": "gamePhase",
      "outputs": [
        {
          "internalType": "enum Battleship.Phase",
          "name": "",
          "type": "uint8"
        }
      ],
      "stateMutability": "view",
      "type": "function"
    },
    {
      "inputs": [],
      "name": "playerOne",
      "outputs": [
        {
          "internalType": "address",
          "name": "",
          "type": "address"
        }
      ],
      "stateMutability": "view",
      "type": "function"
    },
    {
      "inputs": [],
      "name": "playerTurn",
      "outputs": [
        {
          "internalType": "address",
          "name": "",
          "type": "address"
        }
      ],
      "stateMutability": "view",
      "type": "function"
    },
    {
      "inputs": [],
      "name": "playerTwo",
      "outputs": [
        {
          "internalType": "address",
          "name": "",
          "type": "address"
        }
      ],
      "stateMutability": "view",
      "type": "function"
    },
    {
      "inputs": [],
      "name": "verifiedWinner",
      "outputs": [
        {
          "internalType": "address",
          "name": "",
          "type": "address"
        }
      ],
      "stateMutability": "view",
      "type": "function"
    },
    {
      "inputs": [],
      "name": "winner",
      "outputs": [
        {
          "internalType": "address",
          "name": "",
          "type": "address"
        }
      ],
      "stateMutability": "view",
      "type": "function"
    },
    {
      "inputs": [
        {
          "internalType": "address",
          "name": "player",
          "type": "address"
        }
      ],
      "name": "addPlayerTwo",
      "outputs": [],
      "stateMutability": "nonpayable",
      "type": "function"
    },
    {
      "inputs": [],
      "name": "depositBet",
      "outputs": [],
      "stateMutability": "payable",
      "type": "function"
    },
    {
      "inputs": [
        {
          "internalType": "bytes32",
          "name": "merkleTreeRoot",
          "type": "bytes32"
        }
      ],
      "name": "commitBoard",
      "outputs": [],
      "stateMutability": "nonpayable",
      "type": "function"
    },
    {
      "inputs": [
        {
          "internalType": "uint8",
          "name": "index",
          "type": "uint8"
        }
      ],
      "name": "shoot",
      "outputs": [],
      "stateMutability": "nonpayable",
      "type": "function"
    },
    {
      "inputs": [
        {
          "internalType": "uint8",
          "name": "index",
          "type": "uint8"
        },
        {
          "internalType": "bool",
          "name": "ship",
          "type": "bool"
        },
        {
          "internalType": "uint256",
          "name": "salt",
          "type": "uint256"
        },
        {
          "internalType": "bytes32[]",
          "name": "proof",
          "type": "bytes32[]"
        },
        {
          "internalType": "uint8",
          "name": "shotIndex",
          "type": "uint8"
        }
      ],
      "name": "confirmAndShoot",
      "outputs": [],
      "stateMutability": "nonpayable",
      "type": "function"
    },
    {
      "inputs": [
        {
          "internalType": "address",
          "name": "player",
          "type": "address"
        }
      ],
      "name": "getPlayerShots",
      "outputs": [
        {
          "components": [
            {
              "internalType": "uint8",
              "name": "index",
              "type": "uint8"
            },
            {
              "internalType": "enum Battleship.Cell",
              "name": "value",
              "type": "uint8"
            }
          ],
          "internalType": "struct Battleship.Shot[]",
          "name": "",
          "type": "tuple[]"
        }
      ],
      "stateMutability": "view",
      "type": "function"
    },
    {
      "inputs": [],
      "name": "report",
      "outputs": [],
      "stateMutability": "nonpayable",
      "type": "function"
    },
    {
      "inputs": [],
      "name": "forfeit",
      "outputs": [],
      "stateMutability": "nonpayable",
      "type": "function"
    }
  ],
  "bytecode": "0x60806040523480156200001157600080fd5b5060405162002ba638038062002ba6833981810160405281019062000037919062000159565b816000806101000a81548173ffffffffffffffffffffffffffffffffffffffff021916908373ffffffffffffffffffffffffffffffffffffffff160217905550806002819055506000600560146101000a81548160ff02191690836006811115620000a757620000a6620001a0565b5b02179055505050620001cf565b600080fd5b600073ffffffffffffffffffffffffffffffffffffffff82169050919050565b6000620000e682620000b9565b9050919050565b620000f881620000d9565b81146200010457600080fd5b50565b6000815190506200011881620000ed565b92915050565b6000819050919050565b62000133816200011e565b81146200013f57600080fd5b50565b600081519050620001538162000128565b92915050565b60008060408385031215620001735762000172620000b4565b5b6000620001838582860162000107565b9250506020620001968582860162000142565b9150509250929050565b7f4e487b7100000000000000000000000000000000000000000000000000000000600052602160045260246000fd5b6129c780620001df6000396000f3fe6080604052600436106100e85760003560e01c8063993eb6451161008a578063d30074d911610059578063d30074d91461029d578063dfbf53ae146102c8578063ea66144a146102f3578063f3d86e4a1461031c576100e8565b8063993eb645146101f5578063bcffcf411461021e578063c807b0ff14610249578063cab3cae114610274576100e8565b80633fe34727116100c65780633fe347271461015a57806355c51f47146101645780635bc58e6b1461018f5780636ff8fd7e146101b8576100e8565b80630a9f85dd146100ed5780632606a10b146101185780633951be871461012f575b600080fd5b3480156100f957600080fd5b50610102610333565b60405161010f9190611c5c565b60405180910390f35b34801561012457600080fd5b5061012d610359565b005b34801561013b57600080fd5b50610144610441565b6040516101519190611cee565b60405180910390f35b610162610454565b005b34801561017057600080fd5b50610179610829565b6040516101869190611c5c565b60405180910390f35b34801561019b57600080fd5b506101b660048036038101906101b19190611f53565b61084f565b005b3480156101c457600080fd5b506101df60048036038101906101da9190612016565b610dd4565b6040516101ec9190612178565b60405180910390f35b34801561020157600080fd5b5061021c60048036038101906102179190612016565b610ec9565b005b34801561022a57600080fd5b50610233610fae565b6040516102409190611c5c565b60405180910390f35b34801561025557600080fd5b5061025e610fd2565b60405161026b91906121a9565b60405180910390f35b34801561028057600080fd5b5061029b600480360381019061029691906121c4565b610fd8565b005b3480156102a957600080fd5b506102b26110b4565b6040516102bf9190611c5c565b60405180910390f35b3480156102d457600080fd5b506102dd6110da565b6040516102ea9190611c5c565b60405180910390f35b3480156102ff57600080fd5b5061031a600480360381019061031591906121f1565b611100565b005b34801561032857600080fd5b506103316114c8565b005b600160009054906101000a900473ffffffffffffffffffffffffffffffffffffffff1681565b60008054906101000a900473ffffffffffffffffffffffffffffffffffffffff1673ffffffffffffffffffffffffffffffffffffffff163373ffffffffffffffffffffffffffffffffffffffff1614806104005750600160009054906101000a900473ffffffffffffffffffffffffffffffffffffffff1673ffffffffffffffffffffffffffffffffffffffff163373ffffffffffffffffffffffffffffffffffffffff16145b61043f576040517f08c379a00000000000000000000000000000000000000000000000000000000081526004016104369061227b565b60405180910390fd5b565b600560149054906101000a900460ff1681565b60008054906101000a900473ffffffffffffffffffffffffffffffffffffffff1673ffffffffffffffffffffffffffffffffffffffff163373ffffffffffffffffffffffffffffffffffffffff1614806104fb5750600160009054906101000a900473ffffffffffffffffffffffffffffffffffffffff1673ffffffffffffffffffffffffffffffffffffffff163373ffffffffffffffffffffffffffffffffffffffff16145b61053a576040517f08c379a00000000000000000000000000000000000000000000000000000000081526004016105319061227b565b60405180910390fd5b6001600681111561054e5761054d611c77565b5b600560149054906101000a900460ff1660068111156105705761056f611c77565b5b146105b0576040517f08c379a00000000000000000000000000000000000000000000000000000000081526004016105a79061230d565b60405180910390fd5b600660003373ffffffffffffffffffffffffffffffffffffffff1673ffffffffffffffffffffffffffffffffffffffff16815260200190815260200160002060000160009054906101000a900460ff1615610640576040517f08c379a000000000000000000000000000000000000000000000000000000000815260040161063790612379565b60405180910390fd5b6002543414610684576040517f08c379a000000000000000000000000000000000000000000000000000000000815260040161067b906123e5565b60405180910390fd5b6001600660003373ffffffffffffffffffffffffffffffffffffffff1673ffffffffffffffffffffffffffffffffffffffff16815260200190815260200160002060000160006101000a81548160ff021916908315150217905550600660008060009054906101000a900473ffffffffffffffffffffffffffffffffffffffff1673ffffffffffffffffffffffffffffffffffffffff1673ffffffffffffffffffffffffffffffffffffffff16815260200190815260200160002060000160009054906101000a900460ff1680156107ca575060066000600160009054906101000a900473ffffffffffffffffffffffffffffffffffffffff1673ffffffffffffffffffffffffffffffffffffffff1673ffffffffffffffffffffffffffffffffffffffff16815260200190815260200160002060000160009054906101000a900460ff165b15610827576002600560146101000a81548160ff021916908360068111156107f5576107f4611c77565b5b02179055507f27d9a52f95fdd3621a4c52ec37df3801e5b3b2fab733498d482ea2fc2b94b30360405160405180910390a15b565b600560009054906101000a900473ffffffffffffffffffffffffffffffffffffffff1681565b600360009054906101000a900473ffffffffffffffffffffffffffffffffffffffff1673ffffffffffffffffffffffffffffffffffffffff163373ffffffffffffffffffffffffffffffffffffffff16146108a957600080fd5b600360068111156108bd576108bc611c77565b5b600560149054906101000a900460ff1660068111156108df576108de611c77565b5b1461091f576040517f08c379a000000000000000000000000000000000000000000000000000000000815260040161091690612477565b60405180910390fd5b600061092a336115c7565b905060006001600660008473ffffffffffffffffffffffffffffffffffffffff1673ffffffffffffffffffffffffffffffffffffffff1681526020019081526020016000206002018054905061098091906124c6565b90508660ff16600660008473ffffffffffffffffffffffffffffffffffffffff1673ffffffffffffffffffffffffffffffffffffffff16815260200190815260200160002060020182815481106109da576109d96124fa565b5b9060005260206000200160000160009054906101000a900460ff1660ff1614610a38576040517f08c379a0000000000000000000000000000000000000000000000000000000008152600401610a2f9061259b565b60405180910390fd5b60016003811115610a4c57610a4b611c77565b5b600660008473ffffffffffffffffffffffffffffffffffffffff1673ffffffffffffffffffffffffffffffffffffffff1681526020019081526020016000206002018281548110610aa057610a9f6124fa565b5b9060005260206000200160000160019054906101000a900460ff166003811115610acd57610acc611c77565b5b14610b0d576040517f08c379a0000000000000000000000000000000000000000000000000000000008152600401610b0490612607565b60405180910390fd5b610b198787878761166e565b610b2d57610b268261171c565b5050610dcd565b8515610d36576002600660008473ffffffffffffffffffffffffffffffffffffffff1673ffffffffffffffffffffffffffffffffffffffff1681526020019081526020016000206002018281548110610b8957610b886124fa565b5b9060005260206000200160000160016101000a81548160ff02191690836003811115610bb857610bb7611c77565b5b0217905550600660003373ffffffffffffffffffffffffffffffffffffffff1673ffffffffffffffffffffffffffffffffffffffff168152602001908152602001600020600401600081819054906101000a900460ff1680929190610c1c90612627565b91906101000a81548160ff021916908360ff16021790555050600a60ff16600660003373ffffffffffffffffffffffffffffffffffffffff1673ffffffffffffffffffffffffffffffffffffffff16815260200190815260200160002060040160009054906101000a900460ff1660ff1603610d315781600460006101000a81548173ffffffffffffffffffffffffffffffffffffffff021916908373ffffffffffffffffffffffffffffffffffffffff1602179055506004600560146101000a81548160ff02191690836006811115610cf957610cf8611c77565b5b02179055507fa96a0414e8f431a794f289d635c13771fe3dd21c1f91265eebd92ae2ee86929b60405160405180910390a15050610dcd565b610dc1565b6003600660008473ffffffffffffffffffffffffffffffffffffffff1673ffffffffffffffffffffffffffffffffffffffff1681526020019081526020016000206002018281548110610d8c57610d8b6124fa565b5b9060005260206000200160000160016101000a81548160ff02191690836003811115610dbb57610dba611c77565b5b02179055505b610dca836117f7565b50505b5050505050565b6060600660008373ffffffffffffffffffffffffffffffffffffffff1673ffffffffffffffffffffffffffffffffffffffff168152602001908152602001600020600201805480602002602001604051908101604052809291908181526020016000905b82821015610ebe578382906000526020600020016040518060400160405290816000820160009054906101000a900460ff1660ff1660ff1681526020016000820160019054906101000a900460ff166003811115610e9957610e98611c77565b5b6003811115610eab57610eaa611c77565b5b8152505081526020019060010190610e38565b505050509050919050565b60006006811115610edd57610edc611c77565b5b600560149054906101000a900460ff166006811115610eff57610efe611c77565b5b14610f3f576040517f08c379a0000000000000000000000000000000000000000000000000000000008152600401610f36906126c2565b60405180910390fd5b80600160006101000a81548173ffffffffffffffffffffffffffffffffffffffff021916908373ffffffffffffffffffffffffffffffffffffffff1602179055506001600560146101000a81548160ff02191690836006811115610fa657610fa5611c77565b5b021790555050565b60008054906101000a900473ffffffffffffffffffffffffffffffffffffffff1681565b60025481565b600360009054906101000a900473ffffffffffffffffffffffffffffffffffffffff1673ffffffffffffffffffffffffffffffffffffffff163373ffffffffffffffffffffffffffffffffffffffff161461103257600080fd5b6003600681111561104657611045611c77565b5b600560149054906101000a900460ff16600681111561106857611067611c77565b5b146110a8576040517f08c379a000000000000000000000000000000000000000000000000000000000815260040161109f90612477565b60405180910390fd5b6110b1816117f7565b50565b600360009054906101000a900473ffffffffffffffffffffffffffffffffffffffff1681565b600460009054906101000a900473ffffffffffffffffffffffffffffffffffffffff1681565b60008054906101000a900473ffffffffffffffffffffffffffffffffffffffff1673ffffffffffffffffffffffffffffffffffffffff163373ffffffffffffffffffffffffffffffffffffffff1614806111a75750600160009054906101000a900473ffffffffffffffffffffffffffffffffffffffff1673ffffffffffffffffffffffffffffffffffffffff163373ffffffffffffffffffffffffffffffffffffffff16145b6111e6576040517f08c379a00000000000000000000000000000000000000000000000000000000081526004016111dd9061227b565b60405180910390fd5b600260068111156111fa576111f9611c77565b5b600560149054906101000a900460ff16600681111561121c5761121b611c77565b5b1461125c576040517f08c379a000000000000000000000000000000000000000000000000000000000815260040161125390612754565b60405180910390fd5b6000801b600660003373ffffffffffffffffffffffffffffffffffffffff1673ffffffffffffffffffffffffffffffffffffffff16815260200190815260200160002060010154146112e3576040517f08c379a00000000000000000000000000000000000000000000000000000000081526004016112da906127c0565b60405180910390fd5b80600660003373ffffffffffffffffffffffffffffffffffffffff1673ffffffffffffffffffffffffffffffffffffffff168152602001908152602001600020600101819055506000801b600660008060009054906101000a900473ffffffffffffffffffffffffffffffffffffffff1673ffffffffffffffffffffffffffffffffffffffff1673ffffffffffffffffffffffffffffffffffffffff168152602001908152602001600020600101541415801561140757506000801b60066000600160009054906101000a900473ffffffffffffffffffffffffffffffffffffffff1673ffffffffffffffffffffffffffffffffffffffff1673ffffffffffffffffffffffffffffffffffffffff1681526020019081526020016000206001015414155b156114c5576003600560146101000a81548160ff0219169083600681111561143257611431611c77565b5b021790555060008054906101000a900473ffffffffffffffffffffffffffffffffffffffff16600360006101000a81548173ffffffffffffffffffffffffffffffffffffffff021916908373ffffffffffffffffffffffffffffffffffffffff1602179055507f4cf2e2dcdeacb2322843921968cb0e6a97a686594cb0a4f29abb65a7ed65195260405160405180910390a15b50565b60008054906101000a900473ffffffffffffffffffffffffffffffffffffffff1673ffffffffffffffffffffffffffffffffffffffff163373ffffffffffffffffffffffffffffffffffffffff16148061156f5750600160009054906101000a900473ffffffffffffffffffffffffffffffffffffffff1673ffffffffffffffffffffffffffffffffffffffff163373ffffffffffffffffffffffffffffffffffffffff16145b6115ae576040517f08c379a00000000000000000000000000000000000000000000000000000000081526004016115a59061227b565b60405180910390fd5b60006115b9336115c7565b90506115c48161171c565b50565b60008060009054906101000a900473ffffffffffffffffffffffffffffffffffffffff1673ffffffffffffffffffffffffffffffffffffffff168273ffffffffffffffffffffffffffffffffffffffff16146116435760008054906101000a900473ffffffffffffffffffffffffffffffffffffffff16611667565b600160009054906101000a900473ffffffffffffffffffffffffffffffffffffffff165b9050919050565b600080858585604051602001611686939291906127fe565b604051602081830303815290604052805190602001206040516020016116ac9190612856565b60405160208183030381529060405280519060200120905061171183600660003373ffffffffffffffffffffffffffffffffffffffff1673ffffffffffffffffffffffffffffffffffffffff1681526020019081526020016000206001015483611b6c565b915050949350505050565b80600460006101000a81548173ffffffffffffffffffffffffffffffffffffffff021916908373ffffffffffffffffffffffffffffffffffffffff16021790555080600560006101000a81548173ffffffffffffffffffffffffffffffffffffffff021916908373ffffffffffffffffffffffffffffffffffffffff16021790555060058060146101000a81548160ff021916908360068111156117c3576117c2611c77565b5b02179055507f07ac267484df2273e35b6fe5bf62edf0a22f6d2436839af80d2d5ff5028fc35960405160405180910390a150565b600660003373ffffffffffffffffffffffffffffffffffffffff1673ffffffffffffffffffffffffffffffffffffffff16815260200190815260200160002060030160008260ff1660ff16815260200190815260200160002060009054906101000a900460ff161561189e576040517f08c379a0000000000000000000000000000000000000000000000000000000008152600401611895906128bd565b60405180910390fd5b604060ff168160ff16106118e7576040517f08c379a00000000000000000000000000000000000000000000000000000000081526004016118de90612929565b60405180910390fd5b600660003373ffffffffffffffffffffffffffffffffffffffff1673ffffffffffffffffffffffffffffffffffffffff16815260200190815260200160002060020160405180604001604052808360ff1681526020016001600381111561195157611950611c77565b5b8152509080600181540180825580915050600190039060005260206000200160009091909190915060008201518160000160006101000a81548160ff021916908360ff16021790555060208201518160000160016101000a81548160ff021916908360038111156119c5576119c4611c77565b5b021790555050506001600660003373ffffffffffffffffffffffffffffffffffffffff1673ffffffffffffffffffffffffffffffffffffffff16815260200190815260200160002060030160008360ff1660ff16815260200190815260200160002060006101000a81548160ff02191690831515021790555060008054906101000a900473ffffffffffffffffffffffffffffffffffffffff1673ffffffffffffffffffffffffffffffffffffffff16600360009054906101000a900473ffffffffffffffffffffffffffffffffffffffff1673ffffffffffffffffffffffffffffffffffffffff1614611ad95760008054906101000a900473ffffffffffffffffffffffffffffffffffffffff16611afd565b600160009054906101000a900473ffffffffffffffffffffffffffffffffffffffff165b600360006101000a81548173ffffffffffffffffffffffffffffffffffffffff021916908373ffffffffffffffffffffffffffffffffffffffff1602179055507f8441454a1a5df9634c4ede24cff9ca643cf1d86f583e47ec26925580342f558f60405160405180910390a150565b600082611b798584611b83565b1490509392505050565b60008082905060005b8451811015611bce57611bb982868381518110611bac57611bab6124fa565b5b6020026020010151611bd9565b91508080611bc690612949565b915050611b8c565b508091505092915050565b6000818310611bf157611bec8284611c04565b611bfc565b611bfb8383611c04565b5b905092915050565b600082600052816020526040600020905092915050565b600073ffffffffffffffffffffffffffffffffffffffff82169050919050565b6000611c4682611c1b565b9050919050565b611c5681611c3b565b82525050565b6000602082019050611c716000830184611c4d565b92915050565b7f4e487b7100000000000000000000000000000000000000000000000000000000600052602160045260246000fd5b60078110611cb757611cb6611c77565b5b50565b6000819050611cc882611ca6565b919050565b6000611cd882611cba565b9050919050565b611ce881611ccd565b82525050565b6000602082019050611d036000830184611cdf565b92915050565b6000604051905090565b600080fd5b600080fd5b600060ff82169050919050565b611d3381611d1d565b8114611d3e57600080fd5b50565b600081359050611d5081611d2a565b92915050565b60008115159050919050565b611d6b81611d56565b8114611d7657600080fd5b50565b600081359050611d8881611d62565b92915050565b6000819050919050565b611da181611d8e565b8114611dac57600080fd5b50565b600081359050611dbe81611d98565b92915050565b600080fd5b6000601f19601f8301169050919050565b7f4e487b7100000000000000000000000000000000000000000000000000000000600052604160045260246000fd5b611e1282611dc9565b810181811067ffffffffffffffff82111715611e3157611e30611dda565b5b80604052505050565b6000611e44611d09565b9050611e508282611e09565b919050565b600067ffffffffffffffff821115611e7057611e6f611dda565b5b602082029050602081019050919050565b600080fd5b6000819050919050565b611e9981611e86565b8114611ea457600080fd5b50565b600081359050611eb681611e90565b92915050565b6000611ecf611eca84611e55565b611e3a565b90508083825260208201905060208402830185811115611ef257611ef1611e81565b5b835b81811015611f1b5780611f078882611ea7565b845260208401935050602081019050611ef4565b5050509392505050565b600082601f830112611f3a57611f39611dc4565b5b8135611f4a848260208601611ebc565b91505092915050565b600080600080600060a08688031215611f6f57611f6e611d13565b5b6000611f7d88828901611d41565b9550506020611f8e88828901611d79565b9450506040611f9f88828901611daf565b935050606086013567ffffffffffffffff811115611fc057611fbf611d18565b5b611fcc88828901611f25565b9250506080611fdd88828901611d41565b9150509295509295909350565b611ff381611c3b565b8114611ffe57600080fd5b50565b60008135905061201081611fea565b92915050565b60006020828403121561202c5761202b611d13565b5b600061203a84828501612001565b91505092915050565b600081519050919050565b600082825260208201905092915050565b6000819050602082019050919050565b61207881611d1d565b82525050565b6004811061208f5761208e611c77565b5b50565b60008190506120a08261207e565b919050565b60006120b082612092565b9050919050565b6120c0816120a5565b82525050565b6040820160008201516120dc600085018261206f565b5060208201516120ef60208501826120b7565b50505050565b600061210183836120c6565b60408301905092915050565b6000602082019050919050565b600061212582612043565b61212f818561204e565b935061213a8361205f565b8060005b8381101561216b57815161215288826120f5565b975061215d8361210d565b92505060018101905061213e565b5085935050505092915050565b60006020820190508181036000830152612192818461211a565b905092915050565b6121a381611d8e565b82525050565b60006020820190506121be600083018461219a565b92915050565b6000602082840312156121da576121d9611d13565b5b60006121e884828501611d41565b91505092915050565b60006020828403121561220757612206611d13565b5b600061221584828501611ea7565b91505092915050565b600082825260208201905092915050565b7f596f75206172656e2774206120706c61796572206f6620746869732067616d65600082015250565b600061226560208361221e565b91506122708261222f565b602082019050919050565b6000602082019050818103600083015261229481612258565b9050919050565b7f546869732067616d652069736e277420696e2074686520706179696e6720706860008201527f6173650000000000000000000000000000000000000000000000000000000000602082015250565b60006122f760238361221e565b91506123028261229b565b604082019050919050565b60006020820190508181036000830152612326816122ea565b9050919050565b7f42657420616c7265616479206465706f73697465640000000000000000000000600082015250565b600061236360158361221e565b915061236e8261232d565b602082019050919050565b6000602082019050818103600083015261239281612356565b9050919050565b7f4d75737420706179207468652061677265656420616d6f756e74000000000000600082015250565b60006123cf601a8361221e565b91506123da82612399565b602082019050919050565b600060208201905081810360008301526123fe816123c2565b9050919050565b7f546869732067616d652069736e277420696e2074686520706c6179696e67207060008201527f6861736500000000000000000000000000000000000000000000000000000000602082015250565b600061246160248361221e565b915061246c82612405565b604082019050919050565b6000602082019050818103600083015261249081612454565b9050919050565b7f4e487b7100000000000000000000000000000000000000000000000000000000600052601160045260246000fd5b60006124d182611d8e565b91506124dc83611d8e565b92508282039050818111156124f4576124f3612497565b5b92915050565b7f4e487b7100000000000000000000000000000000000000000000000000000000600052603260045260246000fd5b7f53746f72656420616e642073656e7420696e6465786573206f6620746865207360008201527f686f7420746f20636f6e6669726d20646f6e2774206d61746368000000000000602082015250565b6000612585603a8361221e565b915061259082612529565b604082019050919050565b600060208201905081810360008301526125b481612578565b9050919050565b7f496e76616c69642063656c6c2076616c75650000000000000000000000000000600082015250565b60006125f160128361221e565b91506125fc826125bb565b602082019050919050565b60006020820190508181036000830152612620816125e4565b9050919050565b600061263282611d1d565b915060ff820361264557612644612497565b5b600182019050919050565b7f546869732067616d652069736e277420696e207468652077616974696e67207060008201527f6861736500000000000000000000000000000000000000000000000000000000602082015250565b60006126ac60248361221e565b91506126b782612650565b604082019050919050565b600060208201905081810360008301526126db8161269f565b9050919050565b7f546869732067616d652069736e277420696e2074686520706c6163696e67207060008201527f6861736500000000000000000000000000000000000000000000000000000000602082015250565b600061273e60248361221e565b9150612749826126e2565b604082019050919050565b6000602082019050818103600083015261276d81612731565b9050919050565b7f426f61726420616c726561647920636f6d6d6974746564000000000000000000600082015250565b60006127aa60178361221e565b91506127b582612774565b602082019050919050565b600060208201905081810360008301526127d98161279d565b9050919050565b6127e981611d1d565b82525050565b6127f881611d56565b82525050565b600060608201905061281360008301866127e0565b61282060208301856127ef565b61282d604083018461219a565b949350505050565b6000819050919050565b61285061284b82611e86565b612835565b82525050565b6000612862828461283f565b60208201915081905092915050565b7f546861742063656c6c2068617320616c7265616479206265656e2073686f7400600082015250565b60006128a7601f8361221e565b91506128b282612871565b602082019050919050565b600060208201905081810360008301526128d68161289a565b9050919050565b7f496e76616c69642063656c6c20696e6465780000000000000000000000000000600082015250565b600061291360128361221e565b915061291e826128dd565b602082019050919050565b6000602082019050818103600083015261294281612906565b9050919050565b600061295482611d8e565b91507fffffffffffffffffffffffffffffffffffffffffffffffffffffffffffffffff820361298657612985612497565b5b60018201905091905056fea2646970667358221220f60b0b0436f25cc2452cad14a1f0b27e6843f0d26c13ad9be722c0e3e2ecfeab64736f6c63430008130033",
  "immutableReferences": {},
  "source": "// SPDX-License-Identifier: MIT\npragma solidity >=0.8.0 <0.9.0;\n\nimport \"@openzeppelin/contracts/utils/cryptography/MerkleProof.sol\";\n\ncontract Battleship {\n    // ---- Local constants\n    // number of cells in the board (default: 8 * 8 = 64)\n    uint8 constant BOARD_SIZE = 64;\n    // number of ships for each player (default: 10)\n    uint8 constant SHIP_COUNT = 10;\n\n    // ---- Local variables\n    address public playerOne;\n    address public playerTwo;\n    uint256 public agreedBet;\n    address public playerTurn;\n    address public winner;\n    address public verifiedWinner;\n\n    // various phases of the game\n    enum Phase {\n        Waiting,\n        Paying,\n        Placing,\n        Playing,\n        Verifying,\n        Withdraw,\n        End\n    }\n\n    // the current phase of the game\n    Phase public gamePhase;\n\n    // possible values of a cell\n    enum Cell {\n        None,\n        Unconfirm,\n        Sunk,\n        Miss\n    }\n\n    struct Shot {\n        uint8 index;\n        Cell value;\n    }\n\n    // player's information\n    struct Player {\n        bool payedBet;\n        bytes32 treeRoot;\n        Shot[] shots;\n        mapping(uint8 => bool) shotsMap;\n        uint8 hits;\n    }\n\n    mapping(address => Player) players;\n\n    // ---- Events\n    // emitted when both players paid the bet\n    event BetPayed();\n    // emitted when both players placed their ships\n    event GameStart();\n    // emitted when a player takes a shot\n    event ShotTaken();\n    // emitted when the game is won by someone\n    event Won();\n    // emitted when the winner is verified\n    event WinnerVerified();\n\n    // ---- Modifiers\n    // checks that the sender is player one or two\n    modifier isPlayer() {\n        require(\n            msg.sender == playerOne || msg.sender == playerTwo,\n            \"You aren't a player of this game\"\n        );\n        _;\n    }\n\n    // checks if it's the message sender's turn\n    modifier isPlayerTurn() {\n        require(msg.sender == playerTurn);\n        _;\n    }\n\n    // checks for the various game's phases\n    modifier waitingPhase() {\n        require(\n            gamePhase == Phase.Waiting,\n            \"This game isn't in the waiting phase\"\n        );\n        _;\n    }\n\n    modifier payingPhase() {\n        require(\n            gamePhase == Phase.Paying,\n            \"This game isn't in the paying phase\"\n        );\n        _;\n    }\n\n    modifier placingPhase() {\n        require(\n            gamePhase == Phase.Placing,\n            \"This game isn't in the placing phase\"\n        );\n        _;\n    }\n\n    modifier playingPhase() {\n        require(\n            gamePhase == Phase.Playing,\n            \"This game isn't in the playing phase\"\n        );\n        _;\n    }\n\n    modifier verifyingPhase() {\n        require(\n            gamePhase == Phase.Verifying,\n            \"This game isn't in the verifying phase\"\n        );\n        _;\n    }\n\n    modifier withdrawPhase() {\n        require(\n            gamePhase == Phase.Withdraw,\n            \"This game isn't in the withdraw phase\"\n        );\n        _;\n    }\n\n    // ---- External functions\n    // contract constructor\n    constructor(address creator, uint256 bet) {\n        playerOne = creator;\n        agreedBet = bet;\n        gamePhase = Phase.Waiting;\n    }\n\n    // adds the second player to the game\n    function addPlayerTwo(address player) external waitingPhase {\n        playerTwo = player;\n        gamePhase = Phase.Paying;\n    }\n\n    // deposits the agreed bet and adds the second player\n    function depositBet() external payable isPlayer payingPhase {\n        require(!players[msg.sender].payedBet, \"Bet already deposited\");\n        require(msg.value == agreedBet, \"Must pay the agreed amount\");\n        players[msg.sender].payedBet = true;\n        if (players[playerOne].payedBet && players[playerTwo].payedBet) {\n            gamePhase = Phase.Placing;\n            emit BetPayed();\n        }\n    }\n\n    // saves the Merkle tree root of the sender\n    function commitBoard(\n        bytes32 merkleTreeRoot\n    ) external isPlayer placingPhase {\n        require(players[msg.sender].treeRoot == 0, \"Board already committed\");\n        players[msg.sender].treeRoot = merkleTreeRoot;\n        if (\n            players[playerOne].treeRoot != 0 && players[playerTwo].treeRoot != 0\n        ) {\n            gamePhase = Phase.Playing;\n            playerTurn = playerOne;\n            emit GameStart();\n        }\n    }\n\n    // first shot, nothing to confirm\n    function shoot(uint8 index) external isPlayerTurn playingPhase {\n        takeShot(index);\n    }\n\n    // confirms a hit/miss of the opponent and then shoots\n    function confirmAndShoot(\n        uint8 index,\n        bool ship,\n        uint256 salt,\n        bytes32[] memory proof,\n        uint8 shotIndex\n    ) external isPlayerTurn playingPhase {\n        address opponent = getOpponent(msg.sender);\n        uint lastIndex = players[opponent].shots.length - 1;\n        require(\n            players[opponent].shots[lastIndex].index == index,\n            \"Stored and sent indexes of the shot to confirm don't match\"\n        );\n        require(\n            players[opponent].shots[lastIndex].value == Cell.Unconfirm,\n            \"Invalid cell value\"\n        );\n        if (!merkleVerify(index, ship, salt, proof)) {\n            declareWinner(opponent);\n            return;\n        }\n        if (ship) {\n            players[opponent].shots[lastIndex].value = Cell.Sunk;\n            players[msg.sender].hits++;\n            if (players[msg.sender].hits == SHIP_COUNT) {\n                winner = opponent;\n                gamePhase = Phase.Verifying;\n                emit Won();\n                return;\n            }\n        } else {\n            players[opponent].shots[lastIndex].value = Cell.Miss;\n        }\n        takeShot(shotIndex);\n    }\n\n    // returns the shots taken by a player\n    function getPlayerShots(\n        address player\n    ) external view returns (Shot[] memory) {\n        return players[player].shots;\n    }\n\n    // reports the opponent\n    function report() external isPlayer {}\n\n    // forfeits the game\n    function forfeit() external isPlayer {\n        address opponent = getOpponent(msg.sender);\n        declareWinner(opponent);\n    }\n\n    // ---- Internal functions\n    // takes a shot given an index\n    function takeShot(uint8 index) internal {\n        require(\n            !players[msg.sender].shotsMap[index],\n            \"That cell has already been shot\"\n        );\n        require(index < BOARD_SIZE, \"Invalid cell index\");\n        players[msg.sender].shots.push(Shot(index, Cell.Unconfirm));\n        players[msg.sender].shotsMap[index] = true;\n        playerTurn = playerTurn == playerOne ? playerTwo : playerOne;\n        emit ShotTaken();\n    }\n\n    // verifies that the value is contained in the tree\n    function merkleVerify(\n        uint8 index,\n        bool ship,\n        uint256 salt,\n        bytes32[] memory proof\n    ) internal view returns (bool) {\n        bytes32 leaf = keccak256(\n            bytes.concat(keccak256(abi.encode(index, ship, salt)))\n        );\n        return MerkleProof.verify(proof, players[msg.sender].treeRoot, leaf);\n    }\n\n    // returns the address of the sender's opponent\n    function getOpponent(address sender) internal view returns (address) {\n        return sender == playerOne ? playerTwo : playerOne;\n    }\n\n    // sets player as the game's winner\n    function declareWinner(address player) internal {\n        winner = player;\n        verifiedWinner = player;\n        gamePhase = Phase.Withdraw;\n        emit WinnerVerified();\n    }\n}\n",
  "sourcePath": "/home/asel/Documents/GitHub/ethereum-battleship/contracts/Battleship.sol",
  "compiler": {
    "name": "solc",
    "version": "0.8.19+commit.7dd6d404.Emscripten.clang"
  },
  "schemaVersion": "3.4.14",
  "updatedAt": "2023-08-18T13:26:23.838Z",
  "devdoc": {
    "kind": "dev",
    "methods": {},
    "version": 1
  },
  "userdoc": {
    "kind": "user",
    "methods": {},
    "version": 1
  }
}