{
  "contractName": "Battleship",
  "abi": [
    {
      "inputs": [
        {
          "internalType": "address",
          "name": "creator",
          "type": "address"
        },
        {
          "internalType": "uint256",
          "name": "bet",
          "type": "uint256"
        }
      ],
      "stateMutability": "nonpayable",
      "type": "constructor"
    },
    {
      "anonymous": false,
      "inputs": [],
      "name": "BetPayed",
      "type": "event"
    },
    {
      "anonymous": false,
      "inputs": [],
      "name": "GameStart",
      "type": "event"
    },
    {
      "anonymous": false,
      "inputs": [],
      "name": "ShotTaken",
      "type": "event"
    },
    {
      "anonymous": false,
      "inputs": [],
      "name": "WinnerVerified",
      "type": "event"
    },
    {
      "anonymous": false,
      "inputs": [],
      "name": "Won",
      "type": "event"
    },
    {
      "inputs": [],
      "name": "agreedBet",
      "outputs": [
        {
          "internalType": "uint256",
          "name": "",
          "type": "uint256"
        }
      ],
      "stateMutability": "view",
      "type": "function"
    },
    {
      "inputs": [],
      "name": "gamePhase",
      "outputs": [
        {
          "internalType": "enum Battleship.Phase",
          "name": "",
          "type": "uint8"
        }
      ],
      "stateMutability": "view",
      "type": "function"
    },
    {
      "inputs": [],
      "name": "playerOne",
      "outputs": [
        {
          "internalType": "address",
          "name": "",
          "type": "address"
        }
      ],
      "stateMutability": "view",
      "type": "function"
    },
    {
      "inputs": [],
      "name": "playerTurn",
      "outputs": [
        {
          "internalType": "address",
          "name": "",
          "type": "address"
        }
      ],
      "stateMutability": "view",
      "type": "function"
    },
    {
      "inputs": [],
      "name": "playerTwo",
      "outputs": [
        {
          "internalType": "address",
          "name": "",
          "type": "address"
        }
      ],
      "stateMutability": "view",
      "type": "function"
    },
    {
      "inputs": [],
      "name": "verifiedWinner",
      "outputs": [
        {
          "internalType": "address",
          "name": "",
          "type": "address"
        }
      ],
      "stateMutability": "view",
      "type": "function"
    },
    {
      "inputs": [],
      "name": "winner",
      "outputs": [
        {
          "internalType": "address",
          "name": "",
          "type": "address"
        }
      ],
      "stateMutability": "view",
      "type": "function"
    },
    {
      "inputs": [
        {
          "internalType": "address",
          "name": "player",
          "type": "address"
        }
      ],
      "name": "addPlayerTwo",
      "outputs": [],
      "stateMutability": "nonpayable",
      "type": "function"
    },
    {
      "inputs": [],
      "name": "depositBet",
      "outputs": [],
      "stateMutability": "payable",
      "type": "function"
    },
    {
      "inputs": [
        {
          "internalType": "bytes32",
          "name": "merkleTreeRoot",
          "type": "bytes32"
        }
      ],
      "name": "commitBoard",
      "outputs": [],
      "stateMutability": "nonpayable",
      "type": "function"
    },
    {
      "inputs": [
        {
          "internalType": "uint8",
          "name": "index",
          "type": "uint8"
        }
      ],
      "name": "shoot",
      "outputs": [],
      "stateMutability": "nonpayable",
      "type": "function"
    },
    {
      "inputs": [
        {
          "internalType": "uint8",
          "name": "index",
          "type": "uint8"
        },
        {
          "internalType": "bool",
          "name": "ship",
          "type": "bool"
        },
        {
          "internalType": "uint256",
          "name": "salt",
          "type": "uint256"
        },
        {
          "internalType": "bytes32[]",
          "name": "proof",
          "type": "bytes32[]"
        },
        {
          "internalType": "uint8",
          "name": "shotIndex",
          "type": "uint8"
        }
      ],
      "name": "confirmAndShoot",
      "outputs": [],
      "stateMutability": "nonpayable",
      "type": "function"
    },
    {
      "inputs": [
        {
          "internalType": "uint8[]",
          "name": "indexes",
          "type": "uint8[]"
        },
        {
          "internalType": "bool[]",
          "name": "cells",
          "type": "bool[]"
        },
        {
          "internalType": "uint256[]",
          "name": "salts",
          "type": "uint256[]"
        },
        {
          "internalType": "bytes32[]",
          "name": "proof",
          "type": "bytes32[]"
        },
        {
          "internalType": "bool[]",
          "name": "proofFlags",
          "type": "bool[]"
        }
      ],
      "name": "boardCheck",
      "outputs": [],
      "stateMutability": "nonpayable",
      "type": "function"
    },
    {
      "inputs": [
        {
          "internalType": "address",
          "name": "player",
          "type": "address"
        }
      ],
      "name": "getPlayerShots",
      "outputs": [
        {
          "components": [
            {
              "internalType": "uint8",
              "name": "index",
              "type": "uint8"
            },
            {
              "internalType": "enum Battleship.Cell",
              "name": "value",
              "type": "uint8"
            }
          ],
          "internalType": "struct Battleship.Shot[]",
          "name": "",
          "type": "tuple[]"
        }
      ],
      "stateMutability": "view",
      "type": "function"
    },
    {
      "inputs": [],
      "name": "report",
      "outputs": [],
      "stateMutability": "nonpayable",
      "type": "function"
    },
    {
      "inputs": [],
      "name": "forfeit",
      "outputs": [],
      "stateMutability": "nonpayable",
      "type": "function"
    },
    {
      "inputs": [],
      "name": "withdraw",
      "outputs": [],
      "stateMutability": "nonpayable",
      "type": "function"
    }
  ],
  "bytecode": "0x60806040523480156200001157600080fd5b5060405162003db038038062003db0833981810160405281019062000037919062000159565b816000806101000a81548173ffffffffffffffffffffffffffffffffffffffff021916908373ffffffffffffffffffffffffffffffffffffffff160217905550806002819055506000600560146101000a81548160ff02191690836006811115620000a757620000a6620001a0565b5b02179055505050620001cf565b600080fd5b600073ffffffffffffffffffffffffffffffffffffffff82169050919050565b6000620000e682620000b9565b9050919050565b620000f881620000d9565b81146200010457600080fd5b50565b6000815190506200011881620000ed565b92915050565b6000819050919050565b62000133816200011e565b81146200013f57600080fd5b50565b600081519050620001538162000128565b92915050565b60008060408385031215620001735762000172620000b4565b5b6000620001838582860162000107565b9250506020620001968582860162000142565b9150509250929050565b7f4e487b7100000000000000000000000000000000000000000000000000000000600052602160045260246000fd5b613bd180620001df6000396000f3fe6080604052600436106100fe5760003560e01c8063993eb64511610095578063d30074d911610064578063d30074d9146102ca578063d925339a146102f5578063dfbf53ae1461031e578063ea66144a14610349578063f3d86e4a14610372576100fe565b8063993eb64514610222578063bcffcf411461024b578063c807b0ff14610276578063cab3cae1146102a1576100fe565b80633fe34727116100d15780633fe347271461018757806355c51f47146101915780635bc58e6b146101bc5780636ff8fd7e146101e5576100fe565b80630a9f85dd146101035780632606a10b1461012e5780633951be87146101455780633ccfd60b14610170575b600080fd5b34801561010f57600080fd5b50610118610389565b6040516101259190612767565b60405180910390f35b34801561013a57600080fd5b506101436103af565b005b34801561015157600080fd5b5061015a610497565b60405161016791906127f9565b60405180910390f35b34801561017c57600080fd5b506101856104aa565b005b61018f610624565b005b34801561019d57600080fd5b506101a66109f9565b6040516101b39190612767565b60405180910390f35b3480156101c857600080fd5b506101e360048036038101906101de9190612a5e565b610a1f565b005b3480156101f157600080fd5b5061020c60048036038101906102079190612b21565b610fa4565b6040516102199190612c83565b60405180910390f35b34801561022e57600080fd5b5061024960048036038101906102449190612b21565b611099565b005b34801561025757600080fd5b5061026061117e565b60405161026d9190612767565b60405180910390f35b34801561028257600080fd5b5061028b6111a2565b6040516102989190612cb4565b60405180910390f35b3480156102ad57600080fd5b506102c860048036038101906102c39190612ccf565b6111a8565b005b3480156102d657600080fd5b506102df611284565b6040516102ec9190612767565b60405180910390f35b34801561030157600080fd5b5061031c60048036038101906103179190612f45565b6112aa565b005b34801561032a57600080fd5b5061033361178f565b6040516103409190612767565b60405180910390f35b34801561035557600080fd5b50610370600480360381019061036b919061304c565b6117b5565b005b34801561037e57600080fd5b50610387611b7d565b005b600160009054906101000a900473ffffffffffffffffffffffffffffffffffffffff1681565b60008054906101000a900473ffffffffffffffffffffffffffffffffffffffff1673ffffffffffffffffffffffffffffffffffffffff163373ffffffffffffffffffffffffffffffffffffffff1614806104565750600160009054906101000a900473ffffffffffffffffffffffffffffffffffffffff1673ffffffffffffffffffffffffffffffffffffffff163373ffffffffffffffffffffffffffffffffffffffff16145b610495576040517f08c379a000000000000000000000000000000000000000000000000000000000815260040161048c906130d6565b60405180910390fd5b565b600560149054906101000a900460ff1681565b600560068111156104be576104bd612782565b5b600560149054906101000a900460ff1660068111156104e0576104df612782565b5b14610520576040517f08c379a000000000000000000000000000000000000000000000000000000000815260040161051790613168565b60405180910390fd5b600560009054906101000a900473ffffffffffffffffffffffffffffffffffffffff1673ffffffffffffffffffffffffffffffffffffffff163373ffffffffffffffffffffffffffffffffffffffff16146105b0576040517f08c379a00000000000000000000000000000000000000000000000000000000081526004016105a7906131fa565b60405180910390fd5b6006600560146101000a81548160ff021916908360068111156105d6576105d5612782565b5b02179055503373ffffffffffffffffffffffffffffffffffffffff166108fc479081150290604051600060405180830381858888f19350505050158015610621573d6000803e3d6000fd5b50565b60008054906101000a900473ffffffffffffffffffffffffffffffffffffffff1673ffffffffffffffffffffffffffffffffffffffff163373ffffffffffffffffffffffffffffffffffffffff1614806106cb5750600160009054906101000a900473ffffffffffffffffffffffffffffffffffffffff1673ffffffffffffffffffffffffffffffffffffffff163373ffffffffffffffffffffffffffffffffffffffff16145b61070a576040517f08c379a0000000000000000000000000000000000000000000000000000000008152600401610701906130d6565b60405180910390fd5b6001600681111561071e5761071d612782565b5b600560149054906101000a900460ff1660068111156107405761073f612782565b5b14610780576040517f08c379a00000000000000000000000000000000000000000000000000000000081526004016107779061328c565b60405180910390fd5b600660003373ffffffffffffffffffffffffffffffffffffffff1673ffffffffffffffffffffffffffffffffffffffff16815260200190815260200160002060000160009054906101000a900460ff1615610810576040517f08c379a0000000000000000000000000000000000000000000000000000000008152600401610807906132f8565b60405180910390fd5b6002543414610854576040517f08c379a000000000000000000000000000000000000000000000000000000000815260040161084b90613364565b60405180910390fd5b6001600660003373ffffffffffffffffffffffffffffffffffffffff1673ffffffffffffffffffffffffffffffffffffffff16815260200190815260200160002060000160006101000a81548160ff021916908315150217905550600660008060009054906101000a900473ffffffffffffffffffffffffffffffffffffffff1673ffffffffffffffffffffffffffffffffffffffff1673ffffffffffffffffffffffffffffffffffffffff16815260200190815260200160002060000160009054906101000a900460ff16801561099a575060066000600160009054906101000a900473ffffffffffffffffffffffffffffffffffffffff1673ffffffffffffffffffffffffffffffffffffffff1673ffffffffffffffffffffffffffffffffffffffff16815260200190815260200160002060000160009054906101000a900460ff165b156109f7576002600560146101000a81548160ff021916908360068111156109c5576109c4612782565b5b02179055507f27d9a52f95fdd3621a4c52ec37df3801e5b3b2fab733498d482ea2fc2b94b30360405160405180910390a15b565b600560009054906101000a900473ffffffffffffffffffffffffffffffffffffffff1681565b600360009054906101000a900473ffffffffffffffffffffffffffffffffffffffff1673ffffffffffffffffffffffffffffffffffffffff163373ffffffffffffffffffffffffffffffffffffffff1614610a7957600080fd5b60036006811115610a8d57610a8c612782565b5b600560149054906101000a900460ff166006811115610aaf57610aae612782565b5b14610aef576040517f08c379a0000000000000000000000000000000000000000000000000000000008152600401610ae6906133f6565b60405180910390fd5b6000610afa33611c7c565b905060006001600660008473ffffffffffffffffffffffffffffffffffffffff1673ffffffffffffffffffffffffffffffffffffffff16815260200190815260200160002060020180549050610b509190613445565b90508660ff16600660008473ffffffffffffffffffffffffffffffffffffffff1673ffffffffffffffffffffffffffffffffffffffff1681526020019081526020016000206002018281548110610baa57610ba9613479565b5b9060005260206000200160000160009054906101000a900460ff1660ff1614610c08576040517f08c379a0000000000000000000000000000000000000000000000000000000008152600401610bff9061351a565b60405180910390fd5b60016003811115610c1c57610c1b612782565b5b600660008473ffffffffffffffffffffffffffffffffffffffff1673ffffffffffffffffffffffffffffffffffffffff1681526020019081526020016000206002018281548110610c7057610c6f613479565b5b9060005260206000200160000160019054906101000a900460ff166003811115610c9d57610c9c612782565b5b14610cdd576040517f08c379a0000000000000000000000000000000000000000000000000000000008152600401610cd490613586565b60405180910390fd5b610ce987878787611d23565b610cfd57610cf682611dd1565b5050610f9d565b8515610f06576002600660008473ffffffffffffffffffffffffffffffffffffffff1673ffffffffffffffffffffffffffffffffffffffff1681526020019081526020016000206002018281548110610d5957610d58613479565b5b9060005260206000200160000160016101000a81548160ff02191690836003811115610d8857610d87612782565b5b0217905550600660003373ffffffffffffffffffffffffffffffffffffffff1673ffffffffffffffffffffffffffffffffffffffff168152602001908152602001600020600401600081819054906101000a900460ff1680929190610dec906135a6565b91906101000a81548160ff021916908360ff16021790555050600a60ff16600660003373ffffffffffffffffffffffffffffffffffffffff1673ffffffffffffffffffffffffffffffffffffffff16815260200190815260200160002060040160009054906101000a900460ff1660ff1603610f015781600460006101000a81548173ffffffffffffffffffffffffffffffffffffffff021916908373ffffffffffffffffffffffffffffffffffffffff1602179055506004600560146101000a81548160ff02191690836006811115610ec957610ec8612782565b5b02179055507fa96a0414e8f431a794f289d635c13771fe3dd21c1f91265eebd92ae2ee86929b60405160405180910390a15050610f9d565b610f91565b6003600660008473ffffffffffffffffffffffffffffffffffffffff1673ffffffffffffffffffffffffffffffffffffffff1681526020019081526020016000206002018281548110610f5c57610f5b613479565b5b9060005260206000200160000160016101000a81548160ff02191690836003811115610f8b57610f8a612782565b5b02179055505b610f9a83611eac565b50505b5050505050565b6060600660008373ffffffffffffffffffffffffffffffffffffffff1673ffffffffffffffffffffffffffffffffffffffff168152602001908152602001600020600201805480602002602001604051908101604052809291908181526020016000905b8282101561108e578382906000526020600020016040518060400160405290816000820160009054906101000a900460ff1660ff1660ff1681526020016000820160019054906101000a900460ff16600381111561106957611068612782565b5b600381111561107b5761107a612782565b5b8152505081526020019060010190611008565b505050509050919050565b600060068111156110ad576110ac612782565b5b600560149054906101000a900460ff1660068111156110cf576110ce612782565b5b1461110f576040517f08c379a000000000000000000000000000000000000000000000000000000000815260040161110690613641565b60405180910390fd5b80600160006101000a81548173ffffffffffffffffffffffffffffffffffffffff021916908373ffffffffffffffffffffffffffffffffffffffff1602179055506001600560146101000a81548160ff0219169083600681111561117657611175612782565b5b021790555050565b60008054906101000a900473ffffffffffffffffffffffffffffffffffffffff1681565b60025481565b600360009054906101000a900473ffffffffffffffffffffffffffffffffffffffff1673ffffffffffffffffffffffffffffffffffffffff163373ffffffffffffffffffffffffffffffffffffffff161461120257600080fd5b6003600681111561121657611215612782565b5b600560149054906101000a900460ff16600681111561123857611237612782565b5b14611278576040517f08c379a000000000000000000000000000000000000000000000000000000000815260040161126f906133f6565b60405180910390fd5b61128181611eac565b50565b600360009054906101000a900473ffffffffffffffffffffffffffffffffffffffff1681565b600460068111156112be576112bd612782565b5b600560149054906101000a900460ff1660068111156112e0576112df612782565b5b14611320576040517f08c379a0000000000000000000000000000000000000000000000000000000008152600401611317906136d3565b60405180910390fd5b600460009054906101000a900473ffffffffffffffffffffffffffffffffffffffff1673ffffffffffffffffffffffffffffffffffffffff163373ffffffffffffffffffffffffffffffffffffffff16146113b0576040517f08c379a00000000000000000000000000000000000000000000000000000000081526004016113a790613765565b60405180910390fd5b83518551146113f4576040517f08c379a00000000000000000000000000000000000000000000000000000000081526004016113eb906137f7565b60405180910390fd5b8251855114611438576040517f08c379a000000000000000000000000000000000000000000000000000000000815260040161142f906137f7565b60405180910390fd5b600061144333611c7c565b90506114958383600660003373ffffffffffffffffffffffffffffffffffffffff1673ffffffffffffffffffffffffffffffffffffffff16815260200190815260200160002060010154898989612221565b6114a8576114a281611dd1565b50611788565b6000805b87518160ff16101561166257604060ff16888260ff16815181106114d3576114d2613479565b5b602002602001015160ff16106114f4576114ec83611dd1565b505050611788565b600660008473ffffffffffffffffffffffffffffffffffffffff1673ffffffffffffffffffffffffffffffffffffffff1681526020019081526020016000206003016000898360ff168151811061154e5761154d613479565b5b602002602001015160ff1660ff16815260200190815260200160002060009054906101000a900460ff161561158e5761158683611dd1565b505050611788565b6001600660008573ffffffffffffffffffffffffffffffffffffffff1673ffffffffffffffffffffffffffffffffffffffff16815260200190815260200160002060030160008a8460ff16815181106115ea576115e9613479565b5b602002602001015160ff1660ff16815260200190815260200160002060006101000a81548160ff021916908315150217905550868160ff168151811061163357611632613479565b5b60200260200101511561164f57818061164b906135a6565b9250505b808061165a906135a6565b9150506114ac565b5060005b604060ff168160ff16101561170457600660008473ffffffffffffffffffffffffffffffffffffffff1673ffffffffffffffffffffffffffffffffffffffff16815260200190815260200160002060030160008260ff1660ff16815260200190815260200160002060009054906101000a900460ff166116f1576116e983611dd1565b505050611788565b80806116fc906135a6565b915050611666565b50600a60ff1681600660003373ffffffffffffffffffffffffffffffffffffffff1673ffffffffffffffffffffffffffffffffffffffff16815260200190815260200160002060040160009054906101000a900460ff166117659190613817565b60ff160361177b5761177633611dd1565b611785565b61178482611dd1565b5b50505b5050505050565b600460009054906101000a900473ffffffffffffffffffffffffffffffffffffffff1681565b60008054906101000a900473ffffffffffffffffffffffffffffffffffffffff1673ffffffffffffffffffffffffffffffffffffffff163373ffffffffffffffffffffffffffffffffffffffff16148061185c5750600160009054906101000a900473ffffffffffffffffffffffffffffffffffffffff1673ffffffffffffffffffffffffffffffffffffffff163373ffffffffffffffffffffffffffffffffffffffff16145b61189b576040517f08c379a0000000000000000000000000000000000000000000000000000000008152600401611892906130d6565b60405180910390fd5b600260068111156118af576118ae612782565b5b600560149054906101000a900460ff1660068111156118d1576118d0612782565b5b14611911576040517f08c379a0000000000000000000000000000000000000000000000000000000008152600401611908906138be565b60405180910390fd5b6000801b600660003373ffffffffffffffffffffffffffffffffffffffff1673ffffffffffffffffffffffffffffffffffffffff1681526020019081526020016000206001015414611998576040517f08c379a000000000000000000000000000000000000000000000000000000000815260040161198f9061392a565b60405180910390fd5b80600660003373ffffffffffffffffffffffffffffffffffffffff1673ffffffffffffffffffffffffffffffffffffffff168152602001908152602001600020600101819055506000801b600660008060009054906101000a900473ffffffffffffffffffffffffffffffffffffffff1673ffffffffffffffffffffffffffffffffffffffff1673ffffffffffffffffffffffffffffffffffffffff1681526020019081526020016000206001015414158015611abc57506000801b60066000600160009054906101000a900473ffffffffffffffffffffffffffffffffffffffff1673ffffffffffffffffffffffffffffffffffffffff1673ffffffffffffffffffffffffffffffffffffffff1681526020019081526020016000206001015414155b15611b7a576003600560146101000a81548160ff02191690836006811115611ae757611ae6612782565b5b021790555060008054906101000a900473ffffffffffffffffffffffffffffffffffffffff16600360006101000a81548173ffffffffffffffffffffffffffffffffffffffff021916908373ffffffffffffffffffffffffffffffffffffffff1602179055507f4cf2e2dcdeacb2322843921968cb0e6a97a686594cb0a4f29abb65a7ed65195260405160405180910390a15b50565b60008054906101000a900473ffffffffffffffffffffffffffffffffffffffff1673ffffffffffffffffffffffffffffffffffffffff163373ffffffffffffffffffffffffffffffffffffffff161480611c245750600160009054906101000a900473ffffffffffffffffffffffffffffffffffffffff1673ffffffffffffffffffffffffffffffffffffffff163373ffffffffffffffffffffffffffffffffffffffff16145b611c63576040517f08c379a0000000000000000000000000000000000000000000000000000000008152600401611c5a906130d6565b60405180910390fd5b6000611c6e33611c7c565b9050611c7981611dd1565b50565b60008060009054906101000a900473ffffffffffffffffffffffffffffffffffffffff1673ffffffffffffffffffffffffffffffffffffffff168273ffffffffffffffffffffffffffffffffffffffff1614611cf85760008054906101000a900473ffffffffffffffffffffffffffffffffffffffff16611d1c565b600160009054906101000a900473ffffffffffffffffffffffffffffffffffffffff165b9050919050565b600080858585604051602001611d3b93929190613968565b60405160208183030381529060405280519060200120604051602001611d6191906139c0565b604051602081830303815290604052805190602001209050611dc683600660003373ffffffffffffffffffffffffffffffffffffffff1673ffffffffffffffffffffffffffffffffffffffff1681526020019081526020016000206001015483612376565b915050949350505050565b80600460006101000a81548173ffffffffffffffffffffffffffffffffffffffff021916908373ffffffffffffffffffffffffffffffffffffffff16021790555080600560006101000a81548173ffffffffffffffffffffffffffffffffffffffff021916908373ffffffffffffffffffffffffffffffffffffffff16021790555060058060146101000a81548160ff02191690836006811115611e7857611e77612782565b5b02179055507f07ac267484df2273e35b6fe5bf62edf0a22f6d2436839af80d2d5ff5028fc35960405160405180910390a150565b600660003373ffffffffffffffffffffffffffffffffffffffff1673ffffffffffffffffffffffffffffffffffffffff16815260200190815260200160002060030160008260ff1660ff16815260200190815260200160002060009054906101000a900460ff1615611f53576040517f08c379a0000000000000000000000000000000000000000000000000000000008152600401611f4a90613a27565b60405180910390fd5b604060ff168160ff1610611f9c576040517f08c379a0000000000000000000000000000000000000000000000000000000008152600401611f9390613a93565b60405180910390fd5b600660003373ffffffffffffffffffffffffffffffffffffffff1673ffffffffffffffffffffffffffffffffffffffff16815260200190815260200160002060020160405180604001604052808360ff1681526020016001600381111561200657612005612782565b5b8152509080600181540180825580915050600190039060005260206000200160009091909190915060008201518160000160006101000a81548160ff021916908360ff16021790555060208201518160000160016101000a81548160ff0219169083600381111561207a57612079612782565b5b021790555050506001600660003373ffffffffffffffffffffffffffffffffffffffff1673ffffffffffffffffffffffffffffffffffffffff16815260200190815260200160002060030160008360ff1660ff16815260200190815260200160002060006101000a81548160ff02191690831515021790555060008054906101000a900473ffffffffffffffffffffffffffffffffffffffff1673ffffffffffffffffffffffffffffffffffffffff16600360009054906101000a900473ffffffffffffffffffffffffffffffffffffffff1673ffffffffffffffffffffffffffffffffffffffff161461218e5760008054906101000a900473ffffffffffffffffffffffffffffffffffffffff166121b2565b600160009054906101000a900473ffffffffffffffffffffffffffffffffffffffff165b600360006101000a81548173ffffffffffffffffffffffffffffffffffffffff021916908373ffffffffffffffffffffffffffffffffffffffff1602179055507f8441454a1a5df9634c4ede24cff9ca643cf1d86f583e47ec26925580342f558f60405160405180910390a150565b600080845167ffffffffffffffff81111561223f5761223e6128e5565b5b60405190808252806020026020018201604052801561226d5781602001602082028036833780820191505090505b50905060005b81518160ff16101561235c57858160ff168151811061229557612294613479565b5b6020026020010151858260ff16815181106122b3576122b2613479565b5b6020026020010151858360ff16815181106122d1576122d0613479565b5b60200260200101516040516020016122eb93929190613968565b6040516020818303038152906040528051906020012060405160200161231191906139c0565b60405160208183030381529060405280519060200120828260ff168151811061233d5761233c613479565b5b6020026020010181815250508080612354906135a6565b915050612273565b506123698888888461238d565b9150509695505050505050565b60008261238385846123a6565b1490509392505050565b60008261239b8686856123fc565b149050949350505050565b60008082905060005b84518110156123f1576123dc828683815181106123cf576123ce613479565b5b60200260200101516126e4565b915080806123e990613ab3565b9150506123af565b508091505092915050565b60008082519050600085519050600085519050806001838561241e9190613afb565b6124289190613445565b14612468576040517f08c379a000000000000000000000000000000000000000000000000000000000815260040161245f90613b7b565b60405180910390fd5b60008167ffffffffffffffff811115612484576124836128e5565b5b6040519080825280602002602001820160405280156124b25781602001602082028036833780820191505090505b5090506000806000805b8581101561260c5760008885106124f9578584806124d990613ab3565b9550815181106124ec576124eb613479565b5b6020026020010151612521565b8a858061250590613ab3565b96508151811061251857612517613479565b5b60200260200101515b905060008c838151811061253857612537613479565b5b6020026020010151612570578d848061255090613ab3565b95508151811061256357612562613479565b5b60200260200101516125cc565b8986106125a35786858061258390613ab3565b96508151811061259657612595613479565b5b60200260200101516125cb565b8b86806125af90613ab3565b9750815181106125c2576125c1613479565b5b60200260200101515b5b90506125d882826126e4565b8784815181106125eb576125ea613479565b5b6020026020010181815250505050808061260490613ab3565b9150506124bc565b50600085111561268457858114612658576040517f08c379a000000000000000000000000000000000000000000000000000000000815260040161264f90613b7b565b60405180910390fd5b83600186038151811061266e5761266d613479565b5b60200260200101519750505050505050506126dd565b60008711156126b757886000815181106126a1576126a0613479565b5b60200260200101519750505050505050506126dd565b8a6000815181106126cb576126ca613479565b5b60200260200101519750505050505050505b9392505050565b60008183106126fc576126f7828461270f565b612707565b612706838361270f565b5b905092915050565b600082600052816020526040600020905092915050565b600073ffffffffffffffffffffffffffffffffffffffff82169050919050565b600061275182612726565b9050919050565b61276181612746565b82525050565b600060208201905061277c6000830184612758565b92915050565b7f4e487b7100000000000000000000000000000000000000000000000000000000600052602160045260246000fd5b600781106127c2576127c1612782565b5b50565b60008190506127d3826127b1565b919050565b60006127e3826127c5565b9050919050565b6127f3816127d8565b82525050565b600060208201905061280e60008301846127ea565b92915050565b6000604051905090565b600080fd5b600080fd5b600060ff82169050919050565b61283e81612828565b811461284957600080fd5b50565b60008135905061285b81612835565b92915050565b60008115159050919050565b61287681612861565b811461288157600080fd5b50565b6000813590506128938161286d565b92915050565b6000819050919050565b6128ac81612899565b81146128b757600080fd5b50565b6000813590506128c9816128a3565b92915050565b600080fd5b6000601f19601f8301169050919050565b7f4e487b7100000000000000000000000000000000000000000000000000000000600052604160045260246000fd5b61291d826128d4565b810181811067ffffffffffffffff8211171561293c5761293b6128e5565b5b80604052505050565b600061294f612814565b905061295b8282612914565b919050565b600067ffffffffffffffff82111561297b5761297a6128e5565b5b602082029050602081019050919050565b600080fd5b6000819050919050565b6129a481612991565b81146129af57600080fd5b50565b6000813590506129c18161299b565b92915050565b60006129da6129d584612960565b612945565b905080838252602082019050602084028301858111156129fd576129fc61298c565b5b835b81811015612a265780612a1288826129b2565b8452602084019350506020810190506129ff565b5050509392505050565b600082601f830112612a4557612a446128cf565b5b8135612a558482602086016129c7565b91505092915050565b600080600080600060a08688031215612a7a57612a7961281e565b5b6000612a888882890161284c565b9550506020612a9988828901612884565b9450506040612aaa888289016128ba565b935050606086013567ffffffffffffffff811115612acb57612aca612823565b5b612ad788828901612a30565b9250506080612ae88882890161284c565b9150509295509295909350565b612afe81612746565b8114612b0957600080fd5b50565b600081359050612b1b81612af5565b92915050565b600060208284031215612b3757612b3661281e565b5b6000612b4584828501612b0c565b91505092915050565b600081519050919050565b600082825260208201905092915050565b6000819050602082019050919050565b612b8381612828565b82525050565b60048110612b9a57612b99612782565b5b50565b6000819050612bab82612b89565b919050565b6000612bbb82612b9d565b9050919050565b612bcb81612bb0565b82525050565b604082016000820151612be76000850182612b7a565b506020820151612bfa6020850182612bc2565b50505050565b6000612c0c8383612bd1565b60408301905092915050565b6000602082019050919050565b6000612c3082612b4e565b612c3a8185612b59565b9350612c4583612b6a565b8060005b83811015612c76578151612c5d8882612c00565b9750612c6883612c18565b925050600181019050612c49565b5085935050505092915050565b60006020820190508181036000830152612c9d8184612c25565b905092915050565b612cae81612899565b82525050565b6000602082019050612cc96000830184612ca5565b92915050565b600060208284031215612ce557612ce461281e565b5b6000612cf38482850161284c565b91505092915050565b600067ffffffffffffffff821115612d1757612d166128e5565b5b602082029050602081019050919050565b6000612d3b612d3684612cfc565b612945565b90508083825260208201905060208402830185811115612d5e57612d5d61298c565b5b835b81811015612d875780612d73888261284c565b845260208401935050602081019050612d60565b5050509392505050565b600082601f830112612da657612da56128cf565b5b8135612db6848260208601612d28565b91505092915050565b600067ffffffffffffffff821115612dda57612dd96128e5565b5b602082029050602081019050919050565b6000612dfe612df984612dbf565b612945565b90508083825260208201905060208402830185811115612e2157612e2061298c565b5b835b81811015612e4a5780612e368882612884565b845260208401935050602081019050612e23565b5050509392505050565b600082601f830112612e6957612e686128cf565b5b8135612e79848260208601612deb565b91505092915050565b600067ffffffffffffffff821115612e9d57612e9c6128e5565b5b602082029050602081019050919050565b6000612ec1612ebc84612e82565b612945565b90508083825260208201905060208402830185811115612ee457612ee361298c565b5b835b81811015612f0d5780612ef988826128ba565b845260208401935050602081019050612ee6565b5050509392505050565b600082601f830112612f2c57612f2b6128cf565b5b8135612f3c848260208601612eae565b91505092915050565b600080600080600060a08688031215612f6157612f6061281e565b5b600086013567ffffffffffffffff811115612f7f57612f7e612823565b5b612f8b88828901612d91565b955050602086013567ffffffffffffffff811115612fac57612fab612823565b5b612fb888828901612e54565b945050604086013567ffffffffffffffff811115612fd957612fd8612823565b5b612fe588828901612f17565b935050606086013567ffffffffffffffff81111561300657613005612823565b5b61301288828901612a30565b925050608086013567ffffffffffffffff81111561303357613032612823565b5b61303f88828901612e54565b9150509295509295909350565b6000602082840312156130625761306161281e565b5b6000613070848285016129b2565b91505092915050565b600082825260208201905092915050565b7f596f75206172656e2774206120706c61796572206f6620746869732067616d65600082015250565b60006130c0602083613079565b91506130cb8261308a565b602082019050919050565b600060208201905081810360008301526130ef816130b3565b9050919050565b7f546869732067616d652069736e277420696e207468652077697468647261772060008201527f7068617365000000000000000000000000000000000000000000000000000000602082015250565b6000613152602583613079565b915061315d826130f6565b604082019050919050565b6000602082019050818103600083015261318181613145565b9050919050565b7f4f6e6c79207468652077696e6e65722063616e2077697468647261772074686560008201527f207072697a650000000000000000000000000000000000000000000000000000602082015250565b60006131e4602683613079565b91506131ef82613188565b604082019050919050565b60006020820190508181036000830152613213816131d7565b9050919050565b7f546869732067616d652069736e277420696e2074686520706179696e6720706860008201527f6173650000000000000000000000000000000000000000000000000000000000602082015250565b6000613276602383613079565b91506132818261321a565b604082019050919050565b600060208201905081810360008301526132a581613269565b9050919050565b7f42657420616c7265616479206465706f73697465640000000000000000000000600082015250565b60006132e2601583613079565b91506132ed826132ac565b602082019050919050565b60006020820190508181036000830152613311816132d5565b9050919050565b7f4d75737420706179207468652061677265656420616d6f756e74000000000000600082015250565b600061334e601a83613079565b915061335982613318565b602082019050919050565b6000602082019050818103600083015261337d81613341565b9050919050565b7f546869732067616d652069736e277420696e2074686520706c6179696e67207060008201527f6861736500000000000000000000000000000000000000000000000000000000602082015250565b60006133e0602483613079565b91506133eb82613384565b604082019050919050565b6000602082019050818103600083015261340f816133d3565b9050919050565b7f4e487b7100000000000000000000000000000000000000000000000000000000600052601160045260246000fd5b600061345082612899565b915061345b83612899565b925082820390508181111561347357613472613416565b5b92915050565b7f4e487b7100000000000000000000000000000000000000000000000000000000600052603260045260246000fd5b7f53746f72656420616e642073656e7420696e6465786573206f6620746865207360008201527f686f7420746f20636f6e6669726d20646f6e2774206d61746368000000000000602082015250565b6000613504603a83613079565b915061350f826134a8565b604082019050919050565b60006020820190508181036000830152613533816134f7565b9050919050565b7f496e76616c69642063656c6c2076616c75650000000000000000000000000000600082015250565b6000613570601283613079565b915061357b8261353a565b602082019050919050565b6000602082019050818103600083015261359f81613563565b9050919050565b60006135b182612828565b915060ff82036135c4576135c3613416565b5b600182019050919050565b7f546869732067616d652069736e277420696e207468652077616974696e67207060008201527f6861736500000000000000000000000000000000000000000000000000000000602082015250565b600061362b602483613079565b9150613636826135cf565b604082019050919050565b6000602082019050818103600083015261365a8161361e565b9050919050565b7f546869732067616d652069736e277420696e2074686520766572696679696e6760008201527f2070686173650000000000000000000000000000000000000000000000000000602082015250565b60006136bd602683613079565b91506136c882613661565b604082019050919050565b600060208201905081810360008301526136ec816136b0565b9050919050565b7f4f6e6c79207468652077696e6e65722063616e2073656e642074686520626f6160008201527f7264000000000000000000000000000000000000000000000000000000000000602082015250565b600061374f602283613079565b915061375a826136f3565b604082019050919050565b6000602082019050818103600083015261377e81613742565b9050919050565b7f4d7573742073656e6420616c6c20696e64657865732c2063656c6c7320616e6460008201527f2073616c74730000000000000000000000000000000000000000000000000000602082015250565b60006137e1602683613079565b91506137ec82613785565b604082019050919050565b60006020820190508181036000830152613810816137d4565b9050919050565b600061382282612828565b915061382d83612828565b9250828201905060ff81111561384657613845613416565b5b92915050565b7f546869732067616d652069736e277420696e2074686520706c6163696e67207060008201527f6861736500000000000000000000000000000000000000000000000000000000602082015250565b60006138a8602483613079565b91506138b38261384c565b604082019050919050565b600060208201905081810360008301526138d78161389b565b9050919050565b7f426f61726420616c726561647920636f6d6d6974746564000000000000000000600082015250565b6000613914601783613079565b915061391f826138de565b602082019050919050565b6000602082019050818103600083015261394381613907565b9050919050565b61395381612828565b82525050565b61396281612861565b82525050565b600060608201905061397d600083018661394a565b61398a6020830185613959565b6139976040830184612ca5565b949350505050565b6000819050919050565b6139ba6139b582612991565b61399f565b82525050565b60006139cc82846139a9565b60208201915081905092915050565b7f546861742063656c6c2068617320616c7265616479206265656e2073686f7400600082015250565b6000613a11601f83613079565b9150613a1c826139db565b602082019050919050565b60006020820190508181036000830152613a4081613a04565b9050919050565b7f496e76616c69642063656c6c20696e6465780000000000000000000000000000600082015250565b6000613a7d601283613079565b9150613a8882613a47565b602082019050919050565b60006020820190508181036000830152613aac81613a70565b9050919050565b6000613abe82612899565b91507fffffffffffffffffffffffffffffffffffffffffffffffffffffffffffffffff8203613af057613aef613416565b5b600182019050919050565b6000613b0682612899565b9150613b1183612899565b9250828201905080821115613b2957613b28613416565b5b92915050565b7f4d65726b6c6550726f6f663a20696e76616c6964206d756c746970726f6f6600600082015250565b6000613b65601f83613079565b9150613b7082613b2f565b602082019050919050565b60006020820190508181036000830152613b9481613b58565b905091905056fea2646970667358221220b3445cfbe5612b59f3a58aa4d5a4bccc57e012814370599f79a6f4175724da2864736f6c63430008130033",
  "immutableReferences": {},
  "source": "// SPDX-License-Identifier: MIT\npragma solidity >=0.8.0 <0.9.0;\n\nimport \"@openzeppelin/contracts/utils/cryptography/MerkleProof.sol\";\n\ncontract Battleship {\n    // ---- Local constants\n    // number of cells in the board (default: 8 * 8 = 64)\n    uint8 constant BOARD_SIZE = 64;\n    // number of ships for each player (default: 10)\n    uint8 constant SHIP_COUNT = 10;\n\n    // ---- Local variables\n    address public playerOne;\n    address public playerTwo;\n    uint256 public agreedBet;\n    address public playerTurn;\n    address public winner;\n    address public verifiedWinner;\n\n    // various phases of the game\n    enum Phase {\n        Waiting,\n        Paying,\n        Placing,\n        Playing,\n        Verifying,\n        Withdraw,\n        End\n    }\n\n    // the current phase of the game\n    Phase public gamePhase;\n\n    // possible values of a cell\n    enum Cell {\n        None,\n        Unconfirm,\n        Sunk,\n        Miss\n    }\n\n    struct Shot {\n        uint8 index;\n        Cell value;\n    }\n\n    // player's information\n    struct Player {\n        bool payedBet;\n        bytes32 treeRoot;\n        Shot[] shots;\n        mapping(uint8 => bool) shotsMap;\n        uint8 hits;\n    }\n\n    mapping(address => Player) players;\n\n    // ---- Events\n    // emitted when both players paid the bet\n    event BetPayed();\n    // emitted when both players placed their ships\n    event GameStart();\n    // emitted when a player takes a shot\n    event ShotTaken();\n    // emitted when the game is won by someone\n    event Won();\n    // emitted when the winner is verified\n    event WinnerVerified();\n\n    // ---- Modifiers\n    // checks that the sender is player one or two\n    modifier isPlayer() {\n        require(\n            msg.sender == playerOne || msg.sender == playerTwo,\n            \"You aren't a player of this game\"\n        );\n        _;\n    }\n\n    // checks if it's the message sender's turn\n    modifier isPlayerTurn() {\n        require(msg.sender == playerTurn);\n        _;\n    }\n\n    // checks for the various game's phases\n    modifier waitingPhase() {\n        require(\n            gamePhase == Phase.Waiting,\n            \"This game isn't in the waiting phase\"\n        );\n        _;\n    }\n\n    modifier payingPhase() {\n        require(\n            gamePhase == Phase.Paying,\n            \"This game isn't in the paying phase\"\n        );\n        _;\n    }\n\n    modifier placingPhase() {\n        require(\n            gamePhase == Phase.Placing,\n            \"This game isn't in the placing phase\"\n        );\n        _;\n    }\n\n    modifier playingPhase() {\n        require(\n            gamePhase == Phase.Playing,\n            \"This game isn't in the playing phase\"\n        );\n        _;\n    }\n\n    modifier verifyingPhase() {\n        require(\n            gamePhase == Phase.Verifying,\n            \"This game isn't in the verifying phase\"\n        );\n        _;\n    }\n\n    modifier withdrawPhase() {\n        require(\n            gamePhase == Phase.Withdraw,\n            \"This game isn't in the withdraw phase\"\n        );\n        _;\n    }\n\n    // ---- External functions\n    // contract constructor\n    constructor(address creator, uint256 bet) {\n        playerOne = creator;\n        agreedBet = bet;\n        gamePhase = Phase.Waiting;\n    }\n\n    // adds the second player to the game\n    function addPlayerTwo(address player) external waitingPhase {\n        playerTwo = player;\n        gamePhase = Phase.Paying;\n    }\n\n    // deposits the agreed bet and adds the second player\n    function depositBet() external payable isPlayer payingPhase {\n        require(!players[msg.sender].payedBet, \"Bet already deposited\");\n        require(msg.value == agreedBet, \"Must pay the agreed amount\");\n        players[msg.sender].payedBet = true;\n        if (players[playerOne].payedBet && players[playerTwo].payedBet) {\n            gamePhase = Phase.Placing;\n            emit BetPayed();\n        }\n    }\n\n    // saves the Merkle tree root of the sender\n    function commitBoard(\n        bytes32 merkleTreeRoot\n    ) external isPlayer placingPhase {\n        require(players[msg.sender].treeRoot == 0, \"Board already committed\");\n        players[msg.sender].treeRoot = merkleTreeRoot;\n        if (\n            players[playerOne].treeRoot != 0 && players[playerTwo].treeRoot != 0\n        ) {\n            gamePhase = Phase.Playing;\n            playerTurn = playerOne;\n            emit GameStart();\n        }\n    }\n\n    // first shot, nothing to confirm\n    function shoot(uint8 index) external isPlayerTurn playingPhase {\n        takeShot(index);\n    }\n\n    // confirms a hit/miss of the opponent and then shoots\n    function confirmAndShoot(\n        uint8 index,\n        bool ship,\n        uint256 salt,\n        bytes32[] memory proof,\n        uint8 shotIndex\n    ) external isPlayerTurn playingPhase {\n        address opponent = getOpponent(msg.sender);\n        uint256 lastIndex = players[opponent].shots.length - 1;\n        require(\n            players[opponent].shots[lastIndex].index == index,\n            \"Stored and sent indexes of the shot to confirm don't match\"\n        );\n        require(\n            players[opponent].shots[lastIndex].value == Cell.Unconfirm,\n            \"Invalid cell value\"\n        );\n        if (!merkleVerify(index, ship, salt, proof)) {\n            declareWinner(opponent);\n            return;\n        }\n        if (ship) {\n            players[opponent].shots[lastIndex].value = Cell.Sunk;\n            players[msg.sender].hits++;\n            if (players[msg.sender].hits == SHIP_COUNT) {\n                winner = opponent;\n                gamePhase = Phase.Verifying;\n                emit Won();\n                return;\n            }\n        } else {\n            players[opponent].shots[lastIndex].value = Cell.Miss;\n        }\n        takeShot(shotIndex);\n    }\n\n    // verifies the cells of the winner's board that haven't been shot\n    function boardCheck(\n        uint8[] memory indexes,\n        bool[] memory cells,\n        uint256[] memory salts,\n        bytes32[] memory proof,\n        bool[] memory proofFlags\n    ) external verifyingPhase {\n        require(msg.sender == winner, \"Only the winner can send the board\");\n        require(\n            indexes.length == cells.length,\n            \"Must send all indexes, cells and salts\"\n        );\n        require(\n            indexes.length == salts.length,\n            \"Must send all indexes, cells and salts\"\n        );\n        address opponent = getOpponent(msg.sender);\n        if (\n            !merkleMultiVerify(\n                proof,\n                proofFlags,\n                players[msg.sender].treeRoot,\n                indexes,\n                cells,\n                salts\n            )\n        ) {\n            declareWinner(opponent);\n            return;\n        }\n        // board checks, if something is wrong the opponent wins by default\n        uint8 ships = 0;\n        for (uint8 i = 0; i < indexes.length; i++) {\n            // checks the validity of the indexes\n            if (indexes[i] >= BOARD_SIZE) {\n                declareWinner(opponent);\n                return;\n            }\n            // checks that all the opponent's shots have been registered\n            if (players[opponent].shotsMap[indexes[i]]) {\n                declareWinner(opponent);\n                return;\n            }\n            // ticks the verified cells\n            players[opponent].shotsMap[indexes[i]] = true;\n            // counts the ships missed by the opponent\n            if (cells[i]) {\n                ships++;\n            }\n        }\n        // checks that every cell has been verified\n        for (uint8 i = 0; i < BOARD_SIZE; i++) {\n            if (!players[opponent].shotsMap[i]) {\n                declareWinner(opponent);\n                return;\n            }\n        }\n        // checks that the correct number of ships was placed\n        if (players[msg.sender].hits + ships == SHIP_COUNT) {\n            declareWinner(msg.sender);\n        } else {\n            declareWinner(opponent);\n        }\n    }\n\n    // returns the shots taken by a player\n    function getPlayerShots(\n        address player\n    ) external view returns (Shot[] memory) {\n        return players[player].shots;\n    }\n\n    // reports the opponent\n    function report() external isPlayer {}\n\n    // forfeits the game\n    function forfeit() external isPlayer {\n        address opponent = getOpponent(msg.sender);\n        declareWinner(opponent);\n    }\n\n    // transfers the contract's balance to the winner's wallet\n    function withdraw() external withdrawPhase {\n        require(\n            msg.sender == verifiedWinner,\n            \"Only the winner can withdraw the prize\"\n        );\n        gamePhase = Phase.End;\n        payable(msg.sender).transfer(address(this).balance);\n    }\n\n    // ---- Internal functions\n    // takes a shot given an index\n    function takeShot(uint8 index) internal {\n        require(\n            !players[msg.sender].shotsMap[index],\n            \"That cell has already been shot\"\n        );\n        require(index < BOARD_SIZE, \"Invalid cell index\");\n        players[msg.sender].shots.push(Shot(index, Cell.Unconfirm));\n        players[msg.sender].shotsMap[index] = true;\n        playerTurn = playerTurn == playerOne ? playerTwo : playerOne;\n        emit ShotTaken();\n    }\n\n    // verifies that the value is contained in the tree\n    function merkleVerify(\n        uint8 index,\n        bool ship,\n        uint256 salt,\n        bytes32[] memory proof\n    ) internal view returns (bool) {\n        bytes32 leaf = keccak256(\n            bytes.concat(keccak256(abi.encode(index, ship, salt)))\n        );\n        return MerkleProof.verify(proof, players[msg.sender].treeRoot, leaf);\n    }\n\n    // multiproof that verifies the values are contained in the tree\n    function merkleMultiVerify(\n        bytes32[] memory proof,\n        bool[] memory proofFlags,\n        bytes32 root,\n        uint8[] memory indexes,\n        bool[] memory cells,\n        uint256[] memory salts\n    ) internal pure returns (bool) {\n        bytes32[] memory leaves = new bytes32[](indexes.length);\n        for (uint8 i = 0; i < leaves.length; i++) {\n            leaves[i] = keccak256(\n                bytes.concat(\n                    keccak256(abi.encode(indexes[i], cells[i], salts[i]))\n                )\n            );\n        }\n        return MerkleProof.multiProofVerify(proof, proofFlags, root, leaves);\n    }\n\n    // returns the address of the sender's opponent\n    function getOpponent(address sender) internal view returns (address) {\n        return sender == playerOne ? playerTwo : playerOne;\n    }\n\n    // sets player as the game's winner\n    function declareWinner(address player) internal {\n        winner = player;\n        verifiedWinner = player;\n        gamePhase = Phase.Withdraw;\n        emit WinnerVerified();\n    }\n}\n",
  "sourcePath": "/home/asel/Documents/GitHub/ethereum-battleship/contracts/Battleship.sol",
  "compiler": {
    "name": "solc",
    "version": "0.8.19+commit.7dd6d404.Emscripten.clang"
  },
  "schemaVersion": "3.4.14",
  "updatedAt": "2023-08-18T21:17:42.430Z",
  "devdoc": {
    "kind": "dev",
    "methods": {},
    "version": 1
  },
  "userdoc": {
    "kind": "user",
    "methods": {},
    "version": 1
  }
}