{
  "contractName": "Battleship",
  "abi": [
    {
      "inputs": [
        {
          "internalType": "address",
          "name": "creator",
          "type": "address"
        },
        {
          "internalType": "uint256",
          "name": "bet",
          "type": "uint256"
        }
      ],
      "stateMutability": "nonpayable",
      "type": "constructor"
    },
    {
      "anonymous": false,
      "inputs": [
        {
          "indexed": false,
          "internalType": "string",
          "name": "error",
          "type": "string"
        }
      ],
      "name": "Error",
      "type": "event"
    },
    {
      "anonymous": false,
      "inputs": [],
      "name": "GameStart",
      "type": "event"
    },
    {
      "inputs": [],
      "name": "agreedBet",
      "outputs": [
        {
          "internalType": "uint256",
          "name": "",
          "type": "uint256"
        }
      ],
      "stateMutability": "view",
      "type": "function"
    },
    {
      "inputs": [],
      "name": "playerOne",
      "outputs": [
        {
          "internalType": "address",
          "name": "",
          "type": "address"
        }
      ],
      "stateMutability": "view",
      "type": "function"
    },
    {
      "inputs": [],
      "name": "playerTwo",
      "outputs": [
        {
          "internalType": "address",
          "name": "",
          "type": "address"
        }
      ],
      "stateMutability": "view",
      "type": "function"
    },
    {
      "inputs": [],
      "name": "getGameCreator",
      "outputs": [
        {
          "internalType": "address",
          "name": "",
          "type": "address"
        }
      ],
      "stateMutability": "view",
      "type": "function"
    },
    {
      "inputs": [],
      "name": "getGameBet",
      "outputs": [
        {
          "internalType": "uint256",
          "name": "",
          "type": "uint256"
        }
      ],
      "stateMutability": "view",
      "type": "function"
    },
    {
      "inputs": [
        {
          "internalType": "address",
          "name": "player",
          "type": "address"
        }
      ],
      "name": "addPlayerTwo",
      "outputs": [],
      "stateMutability": "nonpayable",
      "type": "function"
    },
    {
      "inputs": [
        {
          "internalType": "bytes32",
          "name": "merkleTreeRoot",
          "type": "bytes32"
        }
      ],
      "name": "commitBoard",
      "outputs": [],
      "stateMutability": "nonpayable",
      "type": "function"
    },
    {
      "inputs": [],
      "name": "report",
      "outputs": [],
      "stateMutability": "nonpayable",
      "type": "function"
    }
  ],
  "bytecode": "0x608060405234801561001057600080fd5b5060405161076e38038061076e83398181016040528101906100329190610119565b816000806101000a81548173ffffffffffffffffffffffffffffffffffffffff021916908373ffffffffffffffffffffffffffffffffffffffff160217905550806002819055505050610159565b600080fd5b600073ffffffffffffffffffffffffffffffffffffffff82169050919050565b60006100b082610085565b9050919050565b6100c0816100a5565b81146100cb57600080fd5b50565b6000815190506100dd816100b7565b92915050565b6000819050919050565b6100f6816100e3565b811461010157600080fd5b50565b600081519050610113816100ed565b92915050565b600080604083850312156101305761012f610080565b5b600061013e858286016100ce565b925050602061014f85828601610104565b9150509250929050565b610606806101686000396000f3fe608060405234801561001057600080fd5b50600436106100885760003560e01c8063993eb6451161005b578063993eb645146100f1578063bcffcf411461010d578063c807b0ff1461012b578063ea66144a1461014957610088565b80630a9f85dd1461008d5780632606a10b146100ab5780632d2267fc146100b5578063359de51a146100d3575b600080fd5b610095610165565b6040516100a29190610443565b60405180910390f35b6100b361018b565b005b6100bd61018d565b6040516100ca9190610443565b60405180910390f35b6100db6101b6565b6040516100e89190610477565b60405180910390f35b61010b600480360381019061010691906104c3565b6101c0565b005b610115610204565b6040516101229190610443565b60405180910390f35b610133610228565b6040516101409190610477565b60405180910390f35b610163600480360381019061015e9190610526565b61022e565b005b600160009054906101000a900473ffffffffffffffffffffffffffffffffffffffff1681565b565b60008060009054906101000a900473ffffffffffffffffffffffffffffffffffffffff16905090565b6000600254905090565b80600160006101000a81548173ffffffffffffffffffffffffffffffffffffffff021916908373ffffffffffffffffffffffffffffffffffffffff16021790555050565b60008054906101000a900473ffffffffffffffffffffffffffffffffffffffff1681565b60025481565b6000801b600360003373ffffffffffffffffffffffffffffffffffffffff1673ffffffffffffffffffffffffffffffffffffffff16815260200190815260200160002054146102b2576040517f08c379a00000000000000000000000000000000000000000000000000000000081526004016102a9906105b0565b60405180910390fd5b80600360003373ffffffffffffffffffffffffffffffffffffffff1673ffffffffffffffffffffffffffffffffffffffff168152602001908152602001600020819055506000801b600360008060009054906101000a900473ffffffffffffffffffffffffffffffffffffffff1673ffffffffffffffffffffffffffffffffffffffff1673ffffffffffffffffffffffffffffffffffffffff16815260200190815260200160002054141580156103cd57506000801b60036000600160009054906101000a900473ffffffffffffffffffffffffffffffffffffffff1673ffffffffffffffffffffffffffffffffffffffff1673ffffffffffffffffffffffffffffffffffffffff1681526020019081526020016000205414155b156103ff577f4cf2e2dcdeacb2322843921968cb0e6a97a686594cb0a4f29abb65a7ed65195260405160405180910390a15b50565b600073ffffffffffffffffffffffffffffffffffffffff82169050919050565b600061042d82610402565b9050919050565b61043d81610422565b82525050565b60006020820190506104586000830184610434565b92915050565b6000819050919050565b6104718161045e565b82525050565b600060208201905061048c6000830184610468565b92915050565b600080fd5b6104a081610422565b81146104ab57600080fd5b50565b6000813590506104bd81610497565b92915050565b6000602082840312156104d9576104d8610492565b5b60006104e7848285016104ae565b91505092915050565b6000819050919050565b610503816104f0565b811461050e57600080fd5b50565b600081359050610520816104fa565b92915050565b60006020828403121561053c5761053b610492565b5b600061054a84828501610511565b91505092915050565b600082825260208201905092915050565b7f426f61726420616c726561647920636f6d6d6974746564000000000000000000600082015250565b600061059a601783610553565b91506105a582610564565b602082019050919050565b600060208201905081810360008301526105c98161058d565b905091905056fea264697066735822122099271f9e7dc4661299211e5718cfa4ab9a35a4bc48829dfdfe1eaa0f8a88b0c164736f6c63430008130033",
  "immutableReferences": {},
  "source": "// SPDX-License-Identifier: MIT\npragma solidity >=0.8.0 <0.9.0;\n\nimport \"@openzeppelin/contracts/utils/cryptography/MerkleProof.sol\";\n\ncontract Battleship {\n    // ---- Local variables\n    address public playerOne;\n    address public playerTwo;\n    uint256 public agreedBet;\n    mapping(address => bytes32) playerTreeRoot;\n\n    // ---- Events\n    event GameStart();\n    event Error(string error);\n\n    // ---- External functions\n    constructor(address creator, uint256 bet) {\n        playerOne = creator;\n        agreedBet = bet;\n    }\n\n    // return the game's creator\n    function getGameCreator() external view returns (address) {\n        return playerOne;\n    }\n\n    // return the game's agreed bet\n    function getGameBet() external view returns (uint256) {\n        return agreedBet;\n    }\n\n    // adds the second player to the game\n    function addPlayerTwo(address player) external {\n        playerTwo = player;\n    }\n\n    // saves the Merkle tree root of the sender\n    function commitBoard(bytes32 merkleTreeRoot) external {\n        require(playerTreeRoot[msg.sender] == 0, \"Board already committed\");\n        playerTreeRoot[msg.sender] = merkleTreeRoot;\n        if (playerTreeRoot[playerOne] != 0 && playerTreeRoot[playerTwo] != 0) {\n            emit GameStart();\n        }\n    }\n\n    // reports the opponent\n    function report() external {}\n}\n",
  "sourcePath": "/home/asel/Documents/GitHub/ethereum-battleship/contracts/Battleship.sol",
  "compiler": {
    "name": "solc",
    "version": "0.8.19+commit.7dd6d404.Emscripten.clang"
  },
  "schemaVersion": "3.4.14",
  "updatedAt": "2023-08-13T22:01:32.454Z",
  "devdoc": {
    "kind": "dev",
    "methods": {},
    "version": 1
  },
  "userdoc": {
    "kind": "user",
    "methods": {},
    "version": 1
  }
}