{
  "contractName": "Battleship",
  "abi": [
    {
      "inputs": [
        {
          "internalType": "address",
          "name": "creator",
          "type": "address"
        },
        {
          "internalType": "uint256",
          "name": "bet",
          "type": "uint256"
        }
      ],
      "stateMutability": "nonpayable",
      "type": "constructor"
    },
    {
      "anonymous": false,
      "inputs": [],
      "name": "BetPayed",
      "type": "event"
    },
    {
      "anonymous": false,
      "inputs": [],
      "name": "GameStart",
      "type": "event"
    },
    {
      "anonymous": false,
      "inputs": [
        {
          "indexed": true,
          "internalType": "address",
          "name": "player",
          "type": "address"
        }
      ],
      "name": "ShotTaken",
      "type": "event"
    },
    {
      "inputs": [],
      "name": "agreedBet",
      "outputs": [
        {
          "internalType": "uint256",
          "name": "",
          "type": "uint256"
        }
      ],
      "stateMutability": "view",
      "type": "function"
    },
    {
      "inputs": [],
      "name": "gamePhase",
      "outputs": [
        {
          "internalType": "enum Battleship.Phase",
          "name": "",
          "type": "uint8"
        }
      ],
      "stateMutability": "view",
      "type": "function"
    },
    {
      "inputs": [],
      "name": "playerOne",
      "outputs": [
        {
          "internalType": "address",
          "name": "",
          "type": "address"
        }
      ],
      "stateMutability": "view",
      "type": "function"
    },
    {
      "inputs": [],
      "name": "playerTurn",
      "outputs": [
        {
          "internalType": "address",
          "name": "",
          "type": "address"
        }
      ],
      "stateMutability": "view",
      "type": "function"
    },
    {
      "inputs": [],
      "name": "playerTwo",
      "outputs": [
        {
          "internalType": "address",
          "name": "",
          "type": "address"
        }
      ],
      "stateMutability": "view",
      "type": "function"
    },
    {
      "inputs": [
        {
          "internalType": "address",
          "name": "player",
          "type": "address"
        }
      ],
      "name": "addPlayerTwo",
      "outputs": [],
      "stateMutability": "nonpayable",
      "type": "function"
    },
    {
      "inputs": [],
      "name": "depositBet",
      "outputs": [],
      "stateMutability": "payable",
      "type": "function"
    },
    {
      "inputs": [
        {
          "internalType": "bytes32",
          "name": "merkleTreeRoot",
          "type": "bytes32"
        }
      ],
      "name": "commitBoard",
      "outputs": [],
      "stateMutability": "nonpayable",
      "type": "function"
    },
    {
      "inputs": [
        {
          "internalType": "uint8",
          "name": "index",
          "type": "uint8"
        }
      ],
      "name": "shoot",
      "outputs": [],
      "stateMutability": "nonpayable",
      "type": "function"
    },
    {
      "inputs": [
        {
          "internalType": "uint8",
          "name": "index",
          "type": "uint8"
        },
        {
          "internalType": "bool",
          "name": "ship",
          "type": "bool"
        },
        {
          "internalType": "uint256",
          "name": "salt",
          "type": "uint256"
        },
        {
          "internalType": "bytes32[]",
          "name": "proof",
          "type": "bytes32[]"
        },
        {
          "internalType": "uint8",
          "name": "shotIndex",
          "type": "uint8"
        }
      ],
      "name": "confirmAndShoot",
      "outputs": [],
      "stateMutability": "nonpayable",
      "type": "function"
    },
    {
      "inputs": [
        {
          "internalType": "address",
          "name": "player",
          "type": "address"
        }
      ],
      "name": "getPlayerShots",
      "outputs": [
        {
          "components": [
            {
              "internalType": "uint8",
              "name": "index",
              "type": "uint8"
            },
            {
              "internalType": "enum Battleship.Cell",
              "name": "value",
              "type": "uint8"
            }
          ],
          "internalType": "struct Battleship.Shot[]",
          "name": "",
          "type": "tuple[]"
        }
      ],
      "stateMutability": "view",
      "type": "function"
    },
    {
      "inputs": [],
      "name": "report",
      "outputs": [],
      "stateMutability": "nonpayable",
      "type": "function"
    }
  ],
  "bytecode": "0x60806040523480156200001157600080fd5b506040516200280438038062002804833981810160405281019062000037919062000159565b816000806101000a81548173ffffffffffffffffffffffffffffffffffffffff021916908373ffffffffffffffffffffffffffffffffffffffff160217905550806002819055506000600560146101000a81548160ff02191690836003811115620000a757620000a6620001a0565b5b02179055505050620001cf565b600080fd5b600073ffffffffffffffffffffffffffffffffffffffff82169050919050565b6000620000e682620000b9565b9050919050565b620000f881620000d9565b81146200010457600080fd5b50565b6000815190506200011881620000ed565b92915050565b6000819050919050565b62000133816200011e565b81146200013f57600080fd5b50565b600081519050620001538162000128565b92915050565b60008060408385031215620001735762000172620000b4565b5b6000620001838582860162000107565b9250506020620001968582860162000142565b9150509250929050565b7f4e487b7100000000000000000000000000000000000000000000000000000000600052602160045260246000fd5b61262580620001df6000396000f3fe6080604052600436106100a75760003560e01c8063993eb64511610064578063993eb64514610189578063bcffcf41146101b2578063c807b0ff146101dd578063cab3cae114610208578063d30074d914610231578063ea66144a1461025c576100a7565b80630a9f85dd146100ac5780632606a10b146100d75780633951be87146100ee5780633fe34727146101195780635bc58e6b146101235780636ff8fd7e1461014c575b600080fd5b3480156100b857600080fd5b506100c1610285565b6040516100ce91906118ba565b60405180910390f35b3480156100e357600080fd5b506100ec6102ab565b005b3480156100fa57600080fd5b50610103610393565b604051610110919061194c565b60405180910390f35b6101216103a6565b005b34801561012f57600080fd5b5061014a60048036038101906101459190611bb1565b61076f565b005b34801561015857600080fd5b50610173600480360381019061016e9190611c74565b610c3a565b6040516101809190611dd6565b60405180910390f35b34801561019557600080fd5b506101b060048036038101906101ab9190611c74565b610d2c565b005b3480156101be57600080fd5b506101c7610e11565b6040516101d491906118ba565b60405180910390f35b3480156101e957600080fd5b506101f2610e35565b6040516101ff9190611e07565b60405180910390f35b34801561021457600080fd5b5061022f600480360381019061022a9190611e22565b610e3b565b005b34801561023d57600080fd5b50610246610f16565b60405161025391906118ba565b60405180910390f35b34801561026857600080fd5b50610283600480360381019061027e9190611e4f565b610f3c565b005b600160009054906101000a900473ffffffffffffffffffffffffffffffffffffffff1681565b60008054906101000a900473ffffffffffffffffffffffffffffffffffffffff1673ffffffffffffffffffffffffffffffffffffffff163373ffffffffffffffffffffffffffffffffffffffff1614806103525750600160009054906101000a900473ffffffffffffffffffffffffffffffffffffffff1673ffffffffffffffffffffffffffffffffffffffff163373ffffffffffffffffffffffffffffffffffffffff16145b610391576040517f08c379a000000000000000000000000000000000000000000000000000000000815260040161038890611ed9565b60405180910390fd5b565b600560149054906101000a900460ff1681565b60008054906101000a900473ffffffffffffffffffffffffffffffffffffffff1673ffffffffffffffffffffffffffffffffffffffff163373ffffffffffffffffffffffffffffffffffffffff16148061044d5750600160009054906101000a900473ffffffffffffffffffffffffffffffffffffffff1673ffffffffffffffffffffffffffffffffffffffff163373ffffffffffffffffffffffffffffffffffffffff16145b61048c576040517f08c379a000000000000000000000000000000000000000000000000000000000815260040161048390611ed9565b60405180910390fd5b600160038111156104a05761049f6118d5565b5b600560149054906101000a900460ff1660038111156104c2576104c16118d5565b5b14610502576040517f08c379a00000000000000000000000000000000000000000000000000000000081526004016104f990611f6b565b60405180910390fd5b600360003373ffffffffffffffffffffffffffffffffffffffff1673ffffffffffffffffffffffffffffffffffffffff16815260200190815260200160002060009054906101000a900460ff161561058f576040517f08c379a000000000000000000000000000000000000000000000000000000000815260040161058690611fd7565b60405180910390fd5b60025434146105d3576040517f08c379a00000000000000000000000000000000000000000000000000000000081526004016105ca90612043565b60405180910390fd5b6001600360003373ffffffffffffffffffffffffffffffffffffffff1673ffffffffffffffffffffffffffffffffffffffff16815260200190815260200160002060006101000a81548160ff021916908315150217905550600360008060009054906101000a900473ffffffffffffffffffffffffffffffffffffffff1673ffffffffffffffffffffffffffffffffffffffff1673ffffffffffffffffffffffffffffffffffffffff16815260200190815260200160002060009054906101000a900460ff168015610710575060036000600160009054906101000a900473ffffffffffffffffffffffffffffffffffffffff1673ffffffffffffffffffffffffffffffffffffffff1673ffffffffffffffffffffffffffffffffffffffff16815260200190815260200160002060009054906101000a900460ff165b1561076d576002600560146101000a81548160ff0219169083600381111561073b5761073a6118d5565b5b02179055507f27d9a52f95fdd3621a4c52ec37df3801e5b3b2fab733498d482ea2fc2b94b30360405160405180910390a15b565b600560009054906101000a900473ffffffffffffffffffffffffffffffffffffffff1673ffffffffffffffffffffffffffffffffffffffff163373ffffffffffffffffffffffffffffffffffffffff16146107c957600080fd5b6003808111156107dc576107db6118d5565b5b600560149054906101000a900460ff1660038111156107fe576107fd6118d5565b5b1461083e576040517f08c379a0000000000000000000000000000000000000000000000000000000008152600401610835906120d5565b60405180910390fd5b6000610849336112f8565b905060006001600660008473ffffffffffffffffffffffffffffffffffffffff1673ffffffffffffffffffffffffffffffffffffffff1681526020019081526020016000208054905061089c9190612124565b90508660ff16600660008473ffffffffffffffffffffffffffffffffffffffff1673ffffffffffffffffffffffffffffffffffffffff16815260200190815260200160002082815481106108f3576108f2612158565b5b9060005260206000200160000160009054906101000a900460ff1660ff1614610951576040517f08c379a0000000000000000000000000000000000000000000000000000000008152600401610948906121f9565b60405180910390fd5b60016003811115610965576109646118d5565b5b600660008473ffffffffffffffffffffffffffffffffffffffff1673ffffffffffffffffffffffffffffffffffffffff16815260200190815260200160002082815481106109b6576109b5612158565b5b9060005260206000200160000160019054906101000a900460ff1660038111156109e3576109e26118d5565b5b14610a23576040517f08c379a0000000000000000000000000000000000000000000000000000000008152600401610a1a90612265565b60405180910390fd5b610a2f8787878761139f565b610a3a575050610c33565b8515610b9f576002600660008473ffffffffffffffffffffffffffffffffffffffff1673ffffffffffffffffffffffffffffffffffffffff1681526020019081526020016000208281548110610a9357610a92612158565b5b9060005260206000200160000160016101000a81548160ff02191690836003811115610ac257610ac16118d5565b5b0217905550600860003373ffffffffffffffffffffffffffffffffffffffff1673ffffffffffffffffffffffffffffffffffffffff168152602001908152602001600020600081819054906101000a900460ff1680929190610b2390612285565b91906101000a81548160ff021916908360ff16021790555050600a600860003373ffffffffffffffffffffffffffffffffffffffff1673ffffffffffffffffffffffffffffffffffffffff16815260200190815260200160002060009054906101000a900460ff1660ff1603610b9a575050610c33565b610c27565b6003600660008473ffffffffffffffffffffffffffffffffffffffff1673ffffffffffffffffffffffffffffffffffffffff1681526020019081526020016000208281548110610bf257610bf1612158565b5b9060005260206000200160000160016101000a81548160ff02191690836003811115610c2157610c206118d5565b5b02179055505b610c308361144a565b50505b5050505050565b6060600660008373ffffffffffffffffffffffffffffffffffffffff1673ffffffffffffffffffffffffffffffffffffffff168152602001908152602001600020805480602002602001604051908101604052809291908181526020016000905b82821015610d21578382906000526020600020016040518060400160405290816000820160009054906101000a900460ff1660ff1660ff1681526020016000820160019054906101000a900460ff166003811115610cfc57610cfb6118d5565b5b6003811115610d0e57610d0d6118d5565b5b8152505081526020019060010190610c9b565b505050509050919050565b60006003811115610d4057610d3f6118d5565b5b600560149054906101000a900460ff166003811115610d6257610d616118d5565b5b14610da2576040517f08c379a0000000000000000000000000000000000000000000000000000000008152600401610d9990612320565b60405180910390fd5b80600160006101000a81548173ffffffffffffffffffffffffffffffffffffffff021916908373ffffffffffffffffffffffffffffffffffffffff1602179055506001600560146101000a81548160ff02191690836003811115610e0957610e086118d5565b5b021790555050565b60008054906101000a900473ffffffffffffffffffffffffffffffffffffffff1681565b60025481565b600560009054906101000a900473ffffffffffffffffffffffffffffffffffffffff1673ffffffffffffffffffffffffffffffffffffffff163373ffffffffffffffffffffffffffffffffffffffff1614610e9557600080fd5b600380811115610ea857610ea76118d5565b5b600560149054906101000a900460ff166003811115610eca57610ec96118d5565b5b14610f0a576040517f08c379a0000000000000000000000000000000000000000000000000000000008152600401610f01906120d5565b60405180910390fd5b610f138161144a565b50565b600560009054906101000a900473ffffffffffffffffffffffffffffffffffffffff1681565b60008054906101000a900473ffffffffffffffffffffffffffffffffffffffff1673ffffffffffffffffffffffffffffffffffffffff163373ffffffffffffffffffffffffffffffffffffffff161480610fe35750600160009054906101000a900473ffffffffffffffffffffffffffffffffffffffff1673ffffffffffffffffffffffffffffffffffffffff163373ffffffffffffffffffffffffffffffffffffffff16145b611022576040517f08c379a000000000000000000000000000000000000000000000000000000000815260040161101990611ed9565b60405180910390fd5b60026003811115611036576110356118d5565b5b600560149054906101000a900460ff166003811115611058576110576118d5565b5b14611098576040517f08c379a000000000000000000000000000000000000000000000000000000000815260040161108f906123b2565b60405180910390fd5b6000801b600460003373ffffffffffffffffffffffffffffffffffffffff1673ffffffffffffffffffffffffffffffffffffffff168152602001908152602001600020541461111c576040517f08c379a00000000000000000000000000000000000000000000000000000000081526004016111139061241e565b60405180910390fd5b80600460003373ffffffffffffffffffffffffffffffffffffffff1673ffffffffffffffffffffffffffffffffffffffff168152602001908152602001600020819055506000801b600460008060009054906101000a900473ffffffffffffffffffffffffffffffffffffffff1673ffffffffffffffffffffffffffffffffffffffff1673ffffffffffffffffffffffffffffffffffffffff168152602001908152602001600020541415801561123757506000801b60046000600160009054906101000a900473ffffffffffffffffffffffffffffffffffffffff1673ffffffffffffffffffffffffffffffffffffffff1673ffffffffffffffffffffffffffffffffffffffff1681526020019081526020016000205414155b156112f5576003600560146101000a81548160ff02191690836003811115611262576112616118d5565b5b021790555060008054906101000a900473ffffffffffffffffffffffffffffffffffffffff16600560006101000a81548173ffffffffffffffffffffffffffffffffffffffff021916908373ffffffffffffffffffffffffffffffffffffffff1602179055507f4cf2e2dcdeacb2322843921968cb0e6a97a686594cb0a4f29abb65a7ed65195260405160405180910390a15b50565b60008060009054906101000a900473ffffffffffffffffffffffffffffffffffffffff1673ffffffffffffffffffffffffffffffffffffffff168273ffffffffffffffffffffffffffffffffffffffff16146113745760008054906101000a900473ffffffffffffffffffffffffffffffffffffffff16611398565b600160009054906101000a900473ffffffffffffffffffffffffffffffffffffffff165b9050919050565b6000808585856040516020016113b79392919061245c565b604051602081830303815290604052805190602001206040516020016113dd91906124b4565b60405160208183030381529060405280519060200120905061143f83600460003373ffffffffffffffffffffffffffffffffffffffff1673ffffffffffffffffffffffffffffffffffffffff16815260200190815260200160002054836117ca565b915050949350505050565b600760003373ffffffffffffffffffffffffffffffffffffffff1673ffffffffffffffffffffffffffffffffffffffff16815260200190815260200160002060008260ff1660ff16815260200190815260200160002060009054906101000a900460ff16156114ee576040517f08c379a00000000000000000000000000000000000000000000000000000000081526004016114e59061251b565b60405180910390fd5b60408160ff1610611534576040517f08c379a000000000000000000000000000000000000000000000000000000000815260040161152b90612587565b60405180910390fd5b600660003373ffffffffffffffffffffffffffffffffffffffff1673ffffffffffffffffffffffffffffffffffffffff16815260200190815260200160002060405180604001604052808360ff1681526020016001600381111561159b5761159a6118d5565b5b8152509080600181540180825580915050600190039060005260206000200160009091909190915060008201518160000160006101000a81548160ff021916908360ff16021790555060208201518160000160016101000a81548160ff0219169083600381111561160f5761160e6118d5565b5b021790555050506001600760003373ffffffffffffffffffffffffffffffffffffffff1673ffffffffffffffffffffffffffffffffffffffff16815260200190815260200160002060008360ff1660ff16815260200190815260200160002060006101000a81548160ff02191690831515021790555060008054906101000a900473ffffffffffffffffffffffffffffffffffffffff1673ffffffffffffffffffffffffffffffffffffffff16600560009054906101000a900473ffffffffffffffffffffffffffffffffffffffff1673ffffffffffffffffffffffffffffffffffffffff16146117205760008054906101000a900473ffffffffffffffffffffffffffffffffffffffff16611744565b600160009054906101000a900473ffffffffffffffffffffffffffffffffffffffff165b600560006101000a81548173ffffffffffffffffffffffffffffffffffffffff021916908373ffffffffffffffffffffffffffffffffffffffff1602179055503373ffffffffffffffffffffffffffffffffffffffff167f94fd0e2d035764d5dfc0c35ea698ab01611ce2c49924bf14e64fb0841513ed2160405160405180910390a250565b6000826117d785846117e1565b1490509392505050565b60008082905060005b845181101561182c576118178286838151811061180a57611809612158565b5b6020026020010151611837565b91508080611824906125a7565b9150506117ea565b508091505092915050565b600081831061184f5761184a8284611862565b61185a565b6118598383611862565b5b905092915050565b600082600052816020526040600020905092915050565b600073ffffffffffffffffffffffffffffffffffffffff82169050919050565b60006118a482611879565b9050919050565b6118b481611899565b82525050565b60006020820190506118cf60008301846118ab565b92915050565b7f4e487b7100000000000000000000000000000000000000000000000000000000600052602160045260246000fd5b60048110611915576119146118d5565b5b50565b600081905061192682611904565b919050565b600061193682611918565b9050919050565b6119468161192b565b82525050565b6000602082019050611961600083018461193d565b92915050565b6000604051905090565b600080fd5b600080fd5b600060ff82169050919050565b6119918161197b565b811461199c57600080fd5b50565b6000813590506119ae81611988565b92915050565b60008115159050919050565b6119c9816119b4565b81146119d457600080fd5b50565b6000813590506119e6816119c0565b92915050565b6000819050919050565b6119ff816119ec565b8114611a0a57600080fd5b50565b600081359050611a1c816119f6565b92915050565b600080fd5b6000601f19601f8301169050919050565b7f4e487b7100000000000000000000000000000000000000000000000000000000600052604160045260246000fd5b611a7082611a27565b810181811067ffffffffffffffff82111715611a8f57611a8e611a38565b5b80604052505050565b6000611aa2611967565b9050611aae8282611a67565b919050565b600067ffffffffffffffff821115611ace57611acd611a38565b5b602082029050602081019050919050565b600080fd5b6000819050919050565b611af781611ae4565b8114611b0257600080fd5b50565b600081359050611b1481611aee565b92915050565b6000611b2d611b2884611ab3565b611a98565b90508083825260208201905060208402830185811115611b5057611b4f611adf565b5b835b81811015611b795780611b658882611b05565b845260208401935050602081019050611b52565b5050509392505050565b600082601f830112611b9857611b97611a22565b5b8135611ba8848260208601611b1a565b91505092915050565b600080600080600060a08688031215611bcd57611bcc611971565b5b6000611bdb8882890161199f565b9550506020611bec888289016119d7565b9450506040611bfd88828901611a0d565b935050606086013567ffffffffffffffff811115611c1e57611c1d611976565b5b611c2a88828901611b83565b9250506080611c3b8882890161199f565b9150509295509295909350565b611c5181611899565b8114611c5c57600080fd5b50565b600081359050611c6e81611c48565b92915050565b600060208284031215611c8a57611c89611971565b5b6000611c9884828501611c5f565b91505092915050565b600081519050919050565b600082825260208201905092915050565b6000819050602082019050919050565b611cd68161197b565b82525050565b60048110611ced57611cec6118d5565b5b50565b6000819050611cfe82611cdc565b919050565b6000611d0e82611cf0565b9050919050565b611d1e81611d03565b82525050565b604082016000820151611d3a6000850182611ccd565b506020820151611d4d6020850182611d15565b50505050565b6000611d5f8383611d24565b60408301905092915050565b6000602082019050919050565b6000611d8382611ca1565b611d8d8185611cac565b9350611d9883611cbd565b8060005b83811015611dc9578151611db08882611d53565b9750611dbb83611d6b565b925050600181019050611d9c565b5085935050505092915050565b60006020820190508181036000830152611df08184611d78565b905092915050565b611e01816119ec565b82525050565b6000602082019050611e1c6000830184611df8565b92915050565b600060208284031215611e3857611e37611971565b5b6000611e468482850161199f565b91505092915050565b600060208284031215611e6557611e64611971565b5b6000611e7384828501611b05565b91505092915050565b600082825260208201905092915050565b7f596f75206172656e2774206120706c61796572206f6620746869732067616d65600082015250565b6000611ec3602083611e7c565b9150611ece82611e8d565b602082019050919050565b60006020820190508181036000830152611ef281611eb6565b9050919050565b7f546869732067616d652069736e277420696e2074686520706179696e6720706860008201527f6173650000000000000000000000000000000000000000000000000000000000602082015250565b6000611f55602383611e7c565b9150611f6082611ef9565b604082019050919050565b60006020820190508181036000830152611f8481611f48565b9050919050565b7f42657420616c7265616479206465706f73697465640000000000000000000000600082015250565b6000611fc1601583611e7c565b9150611fcc82611f8b565b602082019050919050565b60006020820190508181036000830152611ff081611fb4565b9050919050565b7f4d75737420706179207468652061677265656420616d6f756e74000000000000600082015250565b600061202d601a83611e7c565b915061203882611ff7565b602082019050919050565b6000602082019050818103600083015261205c81612020565b9050919050565b7f546869732067616d652069736e277420696e2074686520706c6179696e67207060008201527f6861736500000000000000000000000000000000000000000000000000000000602082015250565b60006120bf602483611e7c565b91506120ca82612063565b604082019050919050565b600060208201905081810360008301526120ee816120b2565b9050919050565b7f4e487b7100000000000000000000000000000000000000000000000000000000600052601160045260246000fd5b600061212f826119ec565b915061213a836119ec565b9250828203905081811115612152576121516120f5565b5b92915050565b7f4e487b7100000000000000000000000000000000000000000000000000000000600052603260045260246000fd5b7f53746f72656420616e642073656e7420696e6465786573206f6620746865207360008201527f686f7420746f20636f6e6669726d20646f6e2774206d61746368000000000000602082015250565b60006121e3603a83611e7c565b91506121ee82612187565b604082019050919050565b60006020820190508181036000830152612212816121d6565b9050919050565b7f496e76616c69642063656c6c2076616c75650000000000000000000000000000600082015250565b600061224f601283611e7c565b915061225a82612219565b602082019050919050565b6000602082019050818103600083015261227e81612242565b9050919050565b60006122908261197b565b915060ff82036122a3576122a26120f5565b5b600182019050919050565b7f546869732067616d652069736e277420696e207468652077616974696e67207060008201527f6861736500000000000000000000000000000000000000000000000000000000602082015250565b600061230a602483611e7c565b9150612315826122ae565b604082019050919050565b60006020820190508181036000830152612339816122fd565b9050919050565b7f546869732067616d652069736e277420696e2074686520706c6163696e67207060008201527f6861736500000000000000000000000000000000000000000000000000000000602082015250565b600061239c602483611e7c565b91506123a782612340565b604082019050919050565b600060208201905081810360008301526123cb8161238f565b9050919050565b7f426f61726420616c726561647920636f6d6d6974746564000000000000000000600082015250565b6000612408601783611e7c565b9150612413826123d2565b602082019050919050565b60006020820190508181036000830152612437816123fb565b9050919050565b6124478161197b565b82525050565b612456816119b4565b82525050565b6000606082019050612471600083018661243e565b61247e602083018561244d565b61248b6040830184611df8565b949350505050565b6000819050919050565b6124ae6124a982611ae4565b612493565b82525050565b60006124c0828461249d565b60208201915081905092915050565b7f546861742063656c6c2068617320616c7265616479206265656e2073686f7400600082015250565b6000612505601f83611e7c565b9150612510826124cf565b602082019050919050565b60006020820190508181036000830152612534816124f8565b9050919050565b7f496e76616c69642063656c6c20696e6465780000000000000000000000000000600082015250565b6000612571601283611e7c565b915061257c8261253b565b602082019050919050565b600060208201905081810360008301526125a081612564565b9050919050565b60006125b2826119ec565b91507fffffffffffffffffffffffffffffffffffffffffffffffffffffffffffffffff82036125e4576125e36120f5565b5b60018201905091905056fea26469706673582212200a40c89e23be369a914826f15da7c07de9e7a0c163d63c87ab2888f8ffdb86c364736f6c63430008130033",
  "immutableReferences": {},
  "source": "// SPDX-License-Identifier: MIT\npragma solidity >=0.8.0 <0.9.0;\n\nimport \"@openzeppelin/contracts/utils/cryptography/MerkleProof.sol\";\n\ncontract Battleship {\n    // ---- Local variables\n    address public playerOne;\n    address public playerTwo;\n    uint256 public agreedBet;\n    mapping(address => bool) payedBet;\n    mapping(address => bytes32) playerTreeRoot;\n    address public playerTurn;\n\n    // various phases of the game\n    enum Phase {\n        Waiting,\n        Paying,\n        Placing,\n        Playing\n    }\n\n    // the current phase of the game\n    Phase public gamePhase;\n\n    // possible values of a cell\n    enum Cell {\n        None,\n        Unconfirm,\n        Sunk,\n        Miss\n    }\n\n    struct Shot {\n        uint8 index;\n        Cell value;\n    }\n\n    mapping(address => Shot[]) playerShots;\n    mapping(address => mapping(uint8 => bool)) playerShotsMap;\n    mapping(address => uint8) playerHits;\n\n    // ---- Events\n    // emitted when both players paid the bet\n    event BetPayed();\n    // emitted when both players placed their ships\n    event GameStart();\n    // emitted when a player takes a shot\n    event ShotTaken(address indexed player);\n\n    // ---- Modifiers\n    // checks that the sender is player one or two\n    modifier players() {\n        require(\n            msg.sender == playerOne || msg.sender == playerTwo,\n            \"You aren't a player of this game\"\n        );\n        _;\n    }\n\n    // checks if it's the message sender's turn\n    modifier isPlayerTurn() {\n        require(msg.sender == playerTurn);\n        _;\n    }\n\n    // checks for the various game's phases\n    modifier waitingPhase() {\n        require(\n            gamePhase == Phase.Waiting,\n            \"This game isn't in the waiting phase\"\n        );\n        _;\n    }\n\n    modifier payingPhase() {\n        require(\n            gamePhase == Phase.Paying,\n            \"This game isn't in the paying phase\"\n        );\n        _;\n    }\n\n    modifier placingPhase() {\n        require(\n            gamePhase == Phase.Placing,\n            \"This game isn't in the placing phase\"\n        );\n        _;\n    }\n\n    modifier playingPhase() {\n        require(\n            gamePhase == Phase.Playing,\n            \"This game isn't in the playing phase\"\n        );\n        _;\n    }\n\n    // ---- External functions\n    // contract constructor\n    constructor(address creator, uint256 bet) {\n        playerOne = creator;\n        agreedBet = bet;\n        gamePhase = Phase.Waiting;\n    }\n\n    // adds the second player to the game\n    function addPlayerTwo(address player) external waitingPhase {\n        playerTwo = player;\n        gamePhase = Phase.Paying;\n    }\n\n    // deposits the agreed bet and adds the second player\n    function depositBet() external payable players payingPhase {\n        require(!payedBet[msg.sender], \"Bet already deposited\");\n        require(msg.value == agreedBet, \"Must pay the agreed amount\");\n        payedBet[msg.sender] = true;\n        if (payedBet[playerOne] && payedBet[playerTwo]) {\n            gamePhase = Phase.Placing;\n            emit BetPayed();\n        }\n    }\n\n    // saves the Merkle tree root of the sender\n    function commitBoard(bytes32 merkleTreeRoot) external players placingPhase {\n        require(playerTreeRoot[msg.sender] == 0, \"Board already committed\");\n        playerTreeRoot[msg.sender] = merkleTreeRoot;\n        if (playerTreeRoot[playerOne] != 0 && playerTreeRoot[playerTwo] != 0) {\n            gamePhase = Phase.Playing;\n            playerTurn = playerOne;\n            emit GameStart();\n        }\n    }\n\n    // first shot, nothing to confirm\n    function shoot(uint8 index) external isPlayerTurn playingPhase {\n        takeShot(index);\n    }\n\n    // confirms a hit/miss of the opponent and then shoots\n    function confirmAndShoot(\n        uint8 index,\n        bool ship,\n        uint256 salt,\n        bytes32[] memory proof,\n        uint8 shotIndex\n    ) external isPlayerTurn playingPhase {\n        address opponent = getOpponent(msg.sender);\n        uint lastIndex = playerShots[opponent].length - 1;\n        require(\n            playerShots[opponent][lastIndex].index == index,\n            \"Stored and sent indexes of the shot to confirm don't match\"\n        );\n        require(\n            playerShots[opponent][lastIndex].value == Cell.Unconfirm,\n            \"Invalid cell value\"\n        );\n        if (!merkleVerify(index, ship, salt, proof)) {\n            // TODO: proof not verified, opponent wins\n            return;\n        }\n        if (ship) {\n            playerShots[opponent][lastIndex].value = Cell.Sunk;\n            playerHits[msg.sender]++;\n            if (playerHits[msg.sender] == 10) {\n                // TODO: all ships sunk, opponent wins\n                return;\n            }\n        } else {\n            playerShots[opponent][lastIndex].value = Cell.Miss;\n        }\n        takeShot(shotIndex);\n    }\n\n    // returns the shots taken by a player\n    function getPlayerShots(\n        address player\n    ) external view returns (Shot[] memory) {\n        return playerShots[player];\n    }\n\n    // reports the opponent\n    function report() external players {}\n\n    // ---- Internal functions\n    // takes a shot given an index\n    function takeShot(uint8 index) internal {\n        require(\n            !playerShotsMap[msg.sender][index],\n            \"That cell has already been shot\"\n        );\n        require(index < 64, \"Invalid cell index\");\n        playerShots[msg.sender].push(Shot(index, Cell.Unconfirm));\n        playerShotsMap[msg.sender][index] = true;\n        playerTurn = playerTurn == playerOne ? playerTwo : playerOne;\n        emit ShotTaken(msg.sender);\n    }\n\n    // verifies that the value is contained in the tree\n    function merkleVerify(\n        uint8 index,\n        bool ship,\n        uint256 salt,\n        bytes32[] memory proof\n    ) internal view returns (bool) {\n        bytes32 leaf = keccak256(\n            bytes.concat(keccak256(abi.encode(index, ship, salt)))\n        );\n        return MerkleProof.verify(proof, playerTreeRoot[msg.sender], leaf);\n    }\n\n    // returns the address of the sender's opponent\n    function getOpponent(address sender) internal view returns (address) {\n        return sender == playerOne ? playerTwo : playerOne;\n    }\n}\n",
  "sourcePath": "/home/asel/Documents/GitHub/ethereum-battleship/contracts/Battleship.sol",
  "compiler": {
    "name": "solc",
    "version": "0.8.19+commit.7dd6d404.Emscripten.clang"
  },
  "schemaVersion": "3.4.14",
  "updatedAt": "2023-08-17T22:44:58.931Z",
  "devdoc": {
    "kind": "dev",
    "methods": {},
    "version": 1
  },
  "userdoc": {
    "kind": "user",
    "methods": {},
    "version": 1
  }
}