{
  "contractName": "HandleGames",
  "abi": [
    {
      "anonymous": false,
      "inputs": [
        {
          "indexed": false,
          "internalType": "contract Battleship",
          "name": "gameId",
          "type": "address"
        },
        {
          "indexed": true,
          "internalType": "address",
          "name": "from",
          "type": "address"
        }
      ],
      "name": "GameCreated",
      "type": "event"
    },
    {
      "anonymous": false,
      "inputs": [
        {
          "indexed": true,
          "internalType": "address",
          "name": "sender",
          "type": "address"
        },
        {
          "indexed": true,
          "internalType": "contract Battleship",
          "name": "gameId",
          "type": "address"
        },
        {
          "indexed": true,
          "internalType": "address",
          "name": "creator",
          "type": "address"
        },
        {
          "indexed": false,
          "internalType": "uint256",
          "name": "bet",
          "type": "uint256"
        }
      ],
      "name": "GameInfo",
      "type": "event"
    },
    {
      "anonymous": false,
      "inputs": [
        {
          "indexed": true,
          "internalType": "contract Battleship",
          "name": "gameId",
          "type": "address"
        },
        {
          "indexed": true,
          "internalType": "address",
          "name": "by",
          "type": "address"
        }
      ],
      "name": "GameJoined",
      "type": "event"
    },
    {
      "anonymous": false,
      "inputs": [
        {
          "indexed": true,
          "internalType": "address",
          "name": "player",
          "type": "address"
        }
      ],
      "name": "GameNotFound",
      "type": "event"
    },
    {
      "inputs": [
        {
          "internalType": "uint256",
          "name": "bet",
          "type": "uint256"
        }
      ],
      "name": "createGame",
      "outputs": [],
      "stateMutability": "nonpayable",
      "type": "function"
    },
    {
      "inputs": [
        {
          "internalType": "contract Battleship",
          "name": "game",
          "type": "address"
        }
      ],
      "name": "joinGame",
      "outputs": [],
      "stateMutability": "nonpayable",
      "type": "function"
    },
    {
      "inputs": [
        {
          "internalType": "contract Battleship",
          "name": "game",
          "type": "address"
        }
      ],
      "name": "getGameInfo",
      "outputs": [],
      "stateMutability": "nonpayable",
      "type": "function"
    },
    {
      "inputs": [],
      "name": "getRandomGame",
      "outputs": [],
      "stateMutability": "nonpayable",
      "type": "function"
    }
  ],
  "bytecode": "0x608060405234801561001057600080fd5b50611c74806100206000396000f3fe60806040523480156200001157600080fd5b5060043610620000525760003560e01c80630ea901d214620000575780632389a290146200007757806348e837b91462000097578063c62d230314620000b7575b600080fd5b6200007560048036038101906200006f919062000eee565b620000c3565b005b6200009560048036038101906200008f919062000eee565b620003ea565b005b620000b56004803603810190620000af919062000f5b565b6200063a565b005b620000c1620007de565b005b6000600280549050116200010e576040517f08c379a0000000000000000000000000000000000000000000000000000000008152600401620001059062000fee565b60405180910390fd5b80600115156000808373ffffffffffffffffffffffffffffffffffffffff1673ffffffffffffffffffffffffffffffffffffffff16815260200190815260200160002060009054906101000a900460ff16151514620001a4576040517f08c379a00000000000000000000000000000000000000000000000000000000081526004016200019b9062001060565b60405180910390fd5b8073ffffffffffffffffffffffffffffffffffffffff1663bcffcf416040518163ffffffff1660e01b8152600401602060405180830381865afa158015620001f0573d6000803e3d6000fd5b505050506040513d601f19601f82011682018060405250810190620002169190620010b3565b73ffffffffffffffffffffffffffffffffffffffff163373ffffffffffffffffffffffffffffffffffffffff160362000286576040517f08c379a00000000000000000000000000000000000000000000000000000000081526004016200027d9062001135565b60405180910390fd5b8173ffffffffffffffffffffffffffffffffffffffff16632d2267fc6040518163ffffffff1660e01b8152600401602060405180830381865afa158015620002d2573d6000803e3d6000fd5b505050506040513d601f19601f82011682018060405250810190620002f89190620010b3565b73ffffffffffffffffffffffffffffffffffffffff168273ffffffffffffffffffffffffffffffffffffffff163373ffffffffffffffffffffffffffffffffffffffff167fcdd32a2d69106a2a4f64e55174b42afc6396f2b1bd19f99634b06ed50a8ea76a8573ffffffffffffffffffffffffffffffffffffffff1663359de51a6040518163ffffffff1660e01b8152600401602060405180830381865afa158015620003a9573d6000803e3d6000fd5b505050506040513d601f19601f82011682018060405250810190620003cf91906200116e565b604051620003de9190620011b1565b60405180910390a45050565b80600115156000808373ffffffffffffffffffffffffffffffffffffffff1673ffffffffffffffffffffffffffffffffffffffff16815260200190815260200160002060009054906101000a900460ff1615151462000480576040517f08c379a0000000000000000000000000000000000000000000000000000000008152600401620004779062001060565b60405180910390fd5b8073ffffffffffffffffffffffffffffffffffffffff1663bcffcf416040518163ffffffff1660e01b8152600401602060405180830381865afa158015620004cc573d6000803e3d6000fd5b505050506040513d601f19601f82011682018060405250810190620004f29190620010b3565b73ffffffffffffffffffffffffffffffffffffffff163373ffffffffffffffffffffffffffffffffffffffff160362000562576040517f08c379a0000000000000000000000000000000000000000000000000000000008152600401620005599062001135565b60405180910390fd5b8173ffffffffffffffffffffffffffffffffffffffff1663993eb645336040518263ffffffff1660e01b81526004016200059d9190620011df565b600060405180830381600087803b158015620005b857600080fd5b505af1158015620005cd573d6000803e3d6000fd5b50505050620005dc8262000b23565b3373ffffffffffffffffffffffffffffffffffffffff168273ffffffffffffffffffffffffffffffffffffffff167fa4082afb15bb2709c549fe93aa02f69fcdc38ce4223337f22c6ea00f09568d9360405160405180910390a35050565b600033826040516200064c9062000e62565b62000659929190620011fc565b604051809103906000f08015801562000676573d6000803e3d6000fd5b50905060016000808373ffffffffffffffffffffffffffffffffffffffff1673ffffffffffffffffffffffffffffffffffffffff16815260200190815260200160002060006101000a81548160ff0219169083151502179055506002819080600181540180825580915050600190039060005260206000200160009091909190916101000a81548173ffffffffffffffffffffffffffffffffffffffff021916908373ffffffffffffffffffffffffffffffffffffffff160217905550600160028054905062000747919062001258565b600160008373ffffffffffffffffffffffffffffffffffffffff1673ffffffffffffffffffffffffffffffffffffffff168152602001908152602001600020819055503373ffffffffffffffffffffffffffffffffffffffff167fb60d84e37a6658effce28870b1d123cb86f86409df5888679310c0f276e1f5d282604051620007d29190620012fe565b60405180910390a25050565b60006002805490501162000829576040517f08c379a0000000000000000000000000000000000000000000000000000000008152600401620008209062000fee565b60405180910390fd5b60006200083562000dfd565b90506000805b60028054905081101562000ad45760006002808054905083866200086091906200131b565b6200086c919062001385565b8154811062000880576200087f620013bd565b5b9060005260206000200160009054906101000a900473ffffffffffffffffffffffffffffffffffffffff1690503373ffffffffffffffffffffffffffffffffffffffff168173ffffffffffffffffffffffffffffffffffffffff1663bcffcf416040518163ffffffff1660e01b8152600401602060405180830381865afa15801562000910573d6000803e3d6000fd5b505050506040513d601f19601f82011682018060405250810190620009369190620010b3565b73ffffffffffffffffffffffffffffffffffffffff161462000abd57600192508073ffffffffffffffffffffffffffffffffffffffff16632d2267fc6040518163ffffffff1660e01b8152600401602060405180830381865afa158015620009a2573d6000803e3d6000fd5b505050506040513d601f19601f82011682018060405250810190620009c89190620010b3565b73ffffffffffffffffffffffffffffffffffffffff168173ffffffffffffffffffffffffffffffffffffffff163373ffffffffffffffffffffffffffffffffffffffff167fcdd32a2d69106a2a4f64e55174b42afc6396f2b1bd19f99634b06ed50a8ea76a8473ffffffffffffffffffffffffffffffffffffffff1663359de51a6040518163ffffffff1660e01b8152600401602060405180830381865afa15801562000a79573d6000803e3d6000fd5b505050506040513d601f19601f8201168201806040525081019062000a9f91906200116e565b60405162000aae9190620011b1565b60405180910390a45062000ad4565b50808062000acb90620013ec565b9150506200083b565b508062000b1f573373ffffffffffffffffffffffffffffffffffffffff167f49199f41bb40e86675040503d7925080ba5b98335cbb07c84262ba9277440e4260405160405180910390a25b5050565b6000808273ffffffffffffffffffffffffffffffffffffffff1673ffffffffffffffffffffffffffffffffffffffff16815260200190815260200160002060006101000a81549060ff02191690556000600160008373ffffffffffffffffffffffffffffffffffffffff1673ffffffffffffffffffffffffffffffffffffffff168152602001908152602001600020549050600160028054905062000bc9919062001258565b81148062000bdc57506001600280549050145b1562000c3257600280548062000bf75762000bf662001439565b5b6001900381819060005260206000200160006101000a81549073ffffffffffffffffffffffffffffffffffffffff0219169055905562000db6565b6002600160028054905062000c48919062001258565b8154811062000c5c5762000c5b620013bd565b5b9060005260206000200160009054906101000a900473ffffffffffffffffffffffffffffffffffffffff166002828154811062000c9e5762000c9d620013bd565b5b9060005260206000200160006101000a81548173ffffffffffffffffffffffffffffffffffffffff021916908373ffffffffffffffffffffffffffffffffffffffff160217905550600280548062000cfb5762000cfa62001439565b5b6001900381819060005260206000200160006101000a81549073ffffffffffffffffffffffffffffffffffffffff0219169055905580600160006002848154811062000d4c5762000d4b620013bd565b5b9060005260206000200160009054906101000a900473ffffffffffffffffffffffffffffffffffffffff1673ffffffffffffffffffffffffffffffffffffffff1673ffffffffffffffffffffffffffffffffffffffff168152602001908152602001600020819055505b600160008373ffffffffffffffffffffffffffffffffffffffff1673ffffffffffffffffffffffffffffffffffffffff168152602001908152602001600020600090555050565b60006003600081548092919062000e1490620013ec565b9190505550600280549050444260035460405160200162000e38939291906200148d565b6040516020818303038152906040528051906020012060001c62000e5d919062001385565b905090565b61076e80620014d183390190565b600080fd5b600073ffffffffffffffffffffffffffffffffffffffff82169050919050565b600062000ea28262000e75565b9050919050565b600062000eb68262000e95565b9050919050565b62000ec88162000ea9565b811462000ed457600080fd5b50565b60008135905062000ee88162000ebd565b92915050565b60006020828403121562000f075762000f0662000e70565b5b600062000f178482850162000ed7565b91505092915050565b6000819050919050565b62000f358162000f20565b811462000f4157600080fd5b50565b60008135905062000f558162000f2a565b92915050565b60006020828403121562000f745762000f7362000e70565b5b600062000f848482850162000f44565b91505092915050565b600082825260208201905092915050565b7f4e6f2067616d657320617661696c61626c650000000000000000000000000000600082015250565b600062000fd660128362000f8d565b915062000fe38262000f9e565b602082019050919050565b60006020820190508181036000830152620010098162000fc7565b9050919050565b7f546869732067616d652069736e2774206a6f696e61626c650000000000000000600082015250565b60006200104860188362000f8d565b9150620010558262001010565b602082019050919050565b600060208201905081810360008301526200107b8162001039565b9050919050565b6200108d8162000e95565b81146200109957600080fd5b50565b600081519050620010ad8162001082565b92915050565b600060208284031215620010cc57620010cb62000e70565b5b6000620010dc848285016200109c565b91505092915050565b7f596f75206372656174656420746869732067616d650000000000000000000000600082015250565b60006200111d60158362000f8d565b91506200112a82620010e5565b602082019050919050565b6000602082019050818103600083015262001150816200110e565b9050919050565b600081519050620011688162000f2a565b92915050565b60006020828403121562001187576200118662000e70565b5b6000620011978482850162001157565b91505092915050565b620011ab8162000f20565b82525050565b6000602082019050620011c86000830184620011a0565b92915050565b620011d98162000e95565b82525050565b6000602082019050620011f66000830184620011ce565b92915050565b6000604082019050620012136000830185620011ce565b620012226020830184620011a0565b9392505050565b7f4e487b7100000000000000000000000000000000000000000000000000000000600052601160045260246000fd5b6000620012658262000f20565b9150620012728362000f20565b92508282039050818111156200128d576200128c62001229565b5b92915050565b6000819050919050565b6000620012be620012b8620012b28462000e75565b62001293565b62000e75565b9050919050565b6000620012d2826200129d565b9050919050565b6000620012e682620012c5565b9050919050565b620012f881620012d9565b82525050565b6000602082019050620013156000830184620012ed565b92915050565b6000620013288262000f20565b9150620013358362000f20565b925082820190508082111562001350576200134f62001229565b5b92915050565b7f4e487b7100000000000000000000000000000000000000000000000000000000600052601260045260246000fd5b6000620013928262000f20565b91506200139f8362000f20565b925082620013b257620013b162001356565b5b828206905092915050565b7f4e487b7100000000000000000000000000000000000000000000000000000000600052603260045260246000fd5b6000620013f98262000f20565b91507fffffffffffffffffffffffffffffffffffffffffffffffffffffffffffffffff82036200142e576200142d62001229565b5b600182019050919050565b7f4e487b7100000000000000000000000000000000000000000000000000000000600052603160045260246000fd5b6000819050919050565b62001487620014818262000f20565b62001468565b82525050565b60006200149b828662001472565b602082019150620014ad828562001472565b602082019150620014bf828462001472565b60208201915081905094935050505056fe608060405234801561001057600080fd5b5060405161076e38038061076e83398181016040528101906100329190610119565b816000806101000a81548173ffffffffffffffffffffffffffffffffffffffff021916908373ffffffffffffffffffffffffffffffffffffffff160217905550806002819055505050610159565b600080fd5b600073ffffffffffffffffffffffffffffffffffffffff82169050919050565b60006100b082610085565b9050919050565b6100c0816100a5565b81146100cb57600080fd5b50565b6000815190506100dd816100b7565b92915050565b6000819050919050565b6100f6816100e3565b811461010157600080fd5b50565b600081519050610113816100ed565b92915050565b600080604083850312156101305761012f610080565b5b600061013e858286016100ce565b925050602061014f85828601610104565b9150509250929050565b610606806101686000396000f3fe608060405234801561001057600080fd5b50600436106100885760003560e01c8063993eb6451161005b578063993eb645146100f1578063bcffcf411461010d578063c807b0ff1461012b578063ea66144a1461014957610088565b80630a9f85dd1461008d5780632606a10b146100ab5780632d2267fc146100b5578063359de51a146100d3575b600080fd5b610095610165565b6040516100a29190610443565b60405180910390f35b6100b361018b565b005b6100bd61018d565b6040516100ca9190610443565b60405180910390f35b6100db6101b6565b6040516100e89190610477565b60405180910390f35b61010b600480360381019061010691906104c3565b6101c0565b005b610115610204565b6040516101229190610443565b60405180910390f35b610133610228565b6040516101409190610477565b60405180910390f35b610163600480360381019061015e9190610526565b61022e565b005b600160009054906101000a900473ffffffffffffffffffffffffffffffffffffffff1681565b565b60008060009054906101000a900473ffffffffffffffffffffffffffffffffffffffff16905090565b6000600254905090565b80600160006101000a81548173ffffffffffffffffffffffffffffffffffffffff021916908373ffffffffffffffffffffffffffffffffffffffff16021790555050565b60008054906101000a900473ffffffffffffffffffffffffffffffffffffffff1681565b60025481565b6000801b600360003373ffffffffffffffffffffffffffffffffffffffff1673ffffffffffffffffffffffffffffffffffffffff16815260200190815260200160002054146102b2576040517f08c379a00000000000000000000000000000000000000000000000000000000081526004016102a9906105b0565b60405180910390fd5b80600360003373ffffffffffffffffffffffffffffffffffffffff1673ffffffffffffffffffffffffffffffffffffffff168152602001908152602001600020819055506000801b600360008060009054906101000a900473ffffffffffffffffffffffffffffffffffffffff1673ffffffffffffffffffffffffffffffffffffffff1673ffffffffffffffffffffffffffffffffffffffff16815260200190815260200160002054141580156103cd57506000801b60036000600160009054906101000a900473ffffffffffffffffffffffffffffffffffffffff1673ffffffffffffffffffffffffffffffffffffffff1673ffffffffffffffffffffffffffffffffffffffff1681526020019081526020016000205414155b156103ff577f4cf2e2dcdeacb2322843921968cb0e6a97a686594cb0a4f29abb65a7ed65195260405160405180910390a15b50565b600073ffffffffffffffffffffffffffffffffffffffff82169050919050565b600061042d82610402565b9050919050565b61043d81610422565b82525050565b60006020820190506104586000830184610434565b92915050565b6000819050919050565b6104718161045e565b82525050565b600060208201905061048c6000830184610468565b92915050565b600080fd5b6104a081610422565b81146104ab57600080fd5b50565b6000813590506104bd81610497565b92915050565b6000602082840312156104d9576104d8610492565b5b60006104e7848285016104ae565b91505092915050565b6000819050919050565b610503816104f0565b811461050e57600080fd5b50565b600081359050610520816104fa565b92915050565b60006020828403121561053c5761053b610492565b5b600061054a84828501610511565b91505092915050565b600082825260208201905092915050565b7f426f61726420616c726561647920636f6d6d6974746564000000000000000000600082015250565b600061059a601783610553565b91506105a582610564565b602082019050919050565b600060208201905081810360008301526105c98161058d565b905091905056fea264697066735822122099271f9e7dc4661299211e5718cfa4ab9a35a4bc48829dfdfe1eaa0f8a88b0c164736f6c63430008130033a2646970667358221220682f4bde32071f5b79277d9395a9e47b2d59b2804d71b4e7183e1bfedcb6728b64736f6c63430008130033",
  "immutableReferences": {},
  "source": "// SPDX-License-Identifier: MIT\npragma solidity >=0.8.0 <0.9.0;\n\nimport \"./Battleship.sol\";\n\ncontract HandleGames {\n    // ---- Local variables\n    // maps a game with its joinable status\n    mapping(Battleship => bool) private joinableGames;\n    // maps a game with its corresponding index\n    mapping(Battleship => uint256) private gamesIndex;\n    // array with the addresses of the joinable games\n    Battleship[] private gamesArray;\n    // nonce used in the random function\n    uint256 private nonce;\n\n    // ---- Events\n    // emitted when a game is created\n    event GameCreated(Battleship gameId, address indexed from);\n    // emitted when a player joins a game\n    event GameJoined(Battleship indexed gameId, address indexed by);\n    // emitted when a game isn't found\n    event GameNotFound(address indexed player);\n    // emitted to give a game's info\n    event GameInfo(\n        address indexed sender,\n        Battleship indexed gameId,\n        address indexed creator,\n        uint256 bet\n    );\n\n    // ---- Modifiers\n    // requirements for a game to be joinable\n    modifier joinable(Battleship game) {\n        require(joinableGames[game] == true, \"This game isn't joinable\");\n        require(msg.sender != game.playerOne(), \"You created this game\");\n        _;\n    }\n\n    // checks if there are available games\n    modifier gamesAvailable() {\n        require(gamesArray.length > 0, \"No games available\");\n        _;\n    }\n\n    // ---- External functions\n    // creates a new game\n    function createGame(uint256 bet) external {\n        Battleship newGame = new Battleship(msg.sender, bet);\n        joinableGames[newGame] = true;\n        gamesArray.push(newGame);\n        gamesIndex[newGame] = gamesArray.length - 1;\n        emit GameCreated(newGame, msg.sender);\n    }\n\n    // joins a game by its ID\n    function joinGame(Battleship game) external joinable(game) {\n        game.addPlayerTwo(msg.sender);\n        removeGame(game);\n        emit GameJoined(game, msg.sender);\n    }\n\n    // returns a game's relevant information\n    function getGameInfo(\n        Battleship game\n    ) external gamesAvailable joinable(game) {\n        emit GameInfo(\n            msg.sender,\n            game,\n            game.getGameCreator(),\n            game.getGameBet()\n        );\n    }\n\n    // joins a random game from the list of joinable games\n    function getRandomGame() external gamesAvailable {\n        uint256 index = random();\n        bool found = false;\n        for (uint256 i = 0; i < gamesArray.length; i++) {\n            Battleship game = gamesArray[(index + i) % gamesArray.length];\n            if (game.playerOne() != msg.sender) {\n                found = true;\n                emit GameInfo(\n                    msg.sender,\n                    game,\n                    game.getGameCreator(),\n                    game.getGameBet()\n                );\n                (game, msg.sender);\n                break;\n            }\n        }\n        if (!found) {\n            emit GameNotFound(msg.sender);\n        }\n    }\n\n    // ---- Internal functions\n    // removes a game from the list of joinable games\n    function removeGame(Battleship game) internal {\n        delete joinableGames[game];\n        uint256 index = gamesIndex[game];\n        if (index == gamesArray.length - 1 || gamesArray.length == 1) {\n            gamesArray.pop();\n        } else {\n            gamesArray[index] = gamesArray[gamesArray.length - 1];\n            gamesArray.pop();\n            gamesIndex[gamesArray[index]] = index;\n        }\n        delete gamesIndex[game];\n    }\n\n    // returns a random value of gamesArray.lenght\n    function random() internal returns (uint256) {\n        nonce++;\n        return\n            uint256(\n                keccak256(\n                    abi.encodePacked(block.prevrandao, block.timestamp, nonce)\n                )\n            ) % gamesArray.length;\n    }\n}\n",
  "sourcePath": "/home/asel/Documents/GitHub/ethereum-battleship/contracts/HandleGames.sol",
  "compiler": {
    "name": "solc",
    "version": "0.8.19+commit.7dd6d404.Emscripten.clang"
  },
  "schemaVersion": "3.4.14",
  "updatedAt": "2023-08-13T22:01:34.927Z",
  "networkType": "ethereum",
  "devdoc": {
    "kind": "dev",
    "methods": {},
    "version": 1
  },
  "userdoc": {
    "kind": "user",
    "methods": {},
    "version": 1
  }
}