{
  "contractName": "HandleGames",
  "abi": [
    {
      "anonymous": false,
      "inputs": [
        {
          "indexed": false,
          "internalType": "contract Battleship",
          "name": "gameId",
          "type": "address"
        },
        {
          "indexed": true,
          "internalType": "address",
          "name": "from",
          "type": "address"
        }
      ],
      "name": "GameCreated",
      "type": "event"
    },
    {
      "anonymous": false,
      "inputs": [
        {
          "indexed": true,
          "internalType": "contract Battleship",
          "name": "gameId",
          "type": "address"
        },
        {
          "indexed": true,
          "internalType": "address",
          "name": "by",
          "type": "address"
        }
      ],
      "name": "GameJoined",
      "type": "event"
    },
    {
      "anonymous": false,
      "inputs": [
        {
          "indexed": true,
          "internalType": "address",
          "name": "player",
          "type": "address"
        }
      ],
      "name": "GameNotFound",
      "type": "event"
    },
    {
      "inputs": [],
      "name": "createGame",
      "outputs": [],
      "stateMutability": "nonpayable",
      "type": "function"
    },
    {
      "inputs": [
        {
          "internalType": "contract Battleship",
          "name": "game",
          "type": "address"
        }
      ],
      "name": "joinIdGame",
      "outputs": [],
      "stateMutability": "nonpayable",
      "type": "function"
    },
    {
      "inputs": [],
      "name": "joinRandomGame",
      "outputs": [],
      "stateMutability": "nonpayable",
      "type": "function"
    }
  ],
  "bytecode": "0x608060405234801561001057600080fd5b5061127e806100206000396000f3fe608060405234801561001057600080fd5b50600436106100415760003560e01c80630fbc1f3314610046578063342ca184146100625780637255d7291461006c575b600080fd5b610060600480360381019061005b9190610a91565b610076565b005b61006a6102b7565b005b610074610554565b005b80600115156000808373ffffffffffffffffffffffffffffffffffffffff1673ffffffffffffffffffffffffffffffffffffffff16815260200190815260200160002060009054906101000a900460ff16151514610109576040517f08c379a000000000000000000000000000000000000000000000000000000000815260040161010090610b1b565b60405180910390fd5b8073ffffffffffffffffffffffffffffffffffffffff1663bcffcf416040518163ffffffff1660e01b8152600401602060405180830381865afa158015610154573d6000803e3d6000fd5b505050506040513d601f19601f820116820180604052508101906101789190610b67565b73ffffffffffffffffffffffffffffffffffffffff163373ffffffffffffffffffffffffffffffffffffffff16036101e5576040517f08c379a00000000000000000000000000000000000000000000000000000000081526004016101dc90610be0565b60405180910390fd5b8173ffffffffffffffffffffffffffffffffffffffff1663993eb645336040518263ffffffff1660e01b815260040161021e9190610c0f565b600060405180830381600087803b15801561023857600080fd5b505af115801561024c573d6000803e3d6000fd5b50505050610259826106ec565b3373ffffffffffffffffffffffffffffffffffffffff168273ffffffffffffffffffffffffffffffffffffffff167fa4082afb15bb2709c549fe93aa02f69fcdc38ce4223337f22c6ea00f09568d9360405160405180910390a35050565b6000600280549050116102ff576040517f08c379a00000000000000000000000000000000000000000000000000000000081526004016102f690610c76565b60405180910390fd5b60006103096109b0565b90506000805b6002805490508110156105065760006002808054905083866103319190610ccf565b61033b9190610d32565b8154811061034c5761034b610d63565b5b9060005260206000200160009054906101000a900473ffffffffffffffffffffffffffffffffffffffff1690503373ffffffffffffffffffffffffffffffffffffffff168173ffffffffffffffffffffffffffffffffffffffff1663bcffcf416040518163ffffffff1660e01b8152600401602060405180830381865afa1580156103db573d6000803e3d6000fd5b505050506040513d601f19601f820116820180604052508101906103ff9190610b67565b73ffffffffffffffffffffffffffffffffffffffff16146104f257600192508073ffffffffffffffffffffffffffffffffffffffff1663993eb645336040518263ffffffff1660e01b81526004016104579190610c0f565b600060405180830381600087803b15801561047157600080fd5b505af1158015610485573d6000803e3d6000fd5b50505050610492816106ec565b3373ffffffffffffffffffffffffffffffffffffffff168173ffffffffffffffffffffffffffffffffffffffff167fa4082afb15bb2709c549fe93aa02f69fcdc38ce4223337f22c6ea00f09568d9360405160405180910390a350610506565b5080806104fe90610d92565b91505061030f565b5080610550573373ffffffffffffffffffffffffffffffffffffffff167f49199f41bb40e86675040503d7925080ba5b98335cbb07c84262ba9277440e4260405160405180910390a25b5050565b60003360405161056390610a0f565b61056d9190610c0f565b604051809103906000f080158015610589573d6000803e3d6000fd5b50905060016000808373ffffffffffffffffffffffffffffffffffffffff1673ffffffffffffffffffffffffffffffffffffffff16815260200190815260200160002060006101000a81548160ff0219169083151502179055506002819080600181540180825580915050600190039060005260206000200160009091909190916101000a81548173ffffffffffffffffffffffffffffffffffffffff021916908373ffffffffffffffffffffffffffffffffffffffff16021790555060016002805490506106589190610dda565b600160008373ffffffffffffffffffffffffffffffffffffffff1673ffffffffffffffffffffffffffffffffffffffff168152602001908152602001600020819055503373ffffffffffffffffffffffffffffffffffffffff167fb60d84e37a6658effce28870b1d123cb86f86409df5888679310c0f276e1f5d2826040516106e19190610e6d565b60405180910390a250565b6000808273ffffffffffffffffffffffffffffffffffffffff1673ffffffffffffffffffffffffffffffffffffffff16815260200190815260200160002060006101000a81549060ff02191690556000600160008373ffffffffffffffffffffffffffffffffffffffff1673ffffffffffffffffffffffffffffffffffffffff16815260200190815260200160002054905060016002805490506107909190610dda565b8114806107a257506001600280549050145b156107f35760028054806107b9576107b8610e88565b5b6001900381819060005260206000200160006101000a81549073ffffffffffffffffffffffffffffffffffffffff02191690559055610969565b600260016002805490506108079190610dda565b8154811061081857610817610d63565b5b9060005260206000200160009054906101000a900473ffffffffffffffffffffffffffffffffffffffff166002828154811061085757610856610d63565b5b9060005260206000200160006101000a81548173ffffffffffffffffffffffffffffffffffffffff021916908373ffffffffffffffffffffffffffffffffffffffff16021790555060028054806108b1576108b0610e88565b5b6001900381819060005260206000200160006101000a81549073ffffffffffffffffffffffffffffffffffffffff021916905590558060016000600284815481106108ff576108fe610d63565b5b9060005260206000200160009054906101000a900473ffffffffffffffffffffffffffffffffffffffff1673ffffffffffffffffffffffffffffffffffffffff1673ffffffffffffffffffffffffffffffffffffffff168152602001908152602001600020819055505b600160008373ffffffffffffffffffffffffffffffffffffffff1673ffffffffffffffffffffffffffffffffffffffff168152602001908152602001600020600090555050565b6000600360008154809291906109c590610d92565b919050555060028054905044426003546040516020016109e793929190610ed8565b6040516020818303038152906040528051906020012060001c610a0a9190610d32565b905090565b61033380610f1683390190565b600080fd5b600073ffffffffffffffffffffffffffffffffffffffff82169050919050565b6000610a4c82610a21565b9050919050565b6000610a5e82610a41565b9050919050565b610a6e81610a53565b8114610a7957600080fd5b50565b600081359050610a8b81610a65565b92915050565b600060208284031215610aa757610aa6610a1c565b5b6000610ab584828501610a7c565b91505092915050565b600082825260208201905092915050565b7f546869732067616d652069736e2774206a6f696e61626c650000000000000000600082015250565b6000610b05601883610abe565b9150610b1082610acf565b602082019050919050565b60006020820190508181036000830152610b3481610af8565b9050919050565b610b4481610a41565b8114610b4f57600080fd5b50565b600081519050610b6181610b3b565b92915050565b600060208284031215610b7d57610b7c610a1c565b5b6000610b8b84828501610b52565b91505092915050565b7f596f75206372656174656420746869732067616d650000000000000000000000600082015250565b6000610bca601583610abe565b9150610bd582610b94565b602082019050919050565b60006020820190508181036000830152610bf981610bbd565b9050919050565b610c0981610a41565b82525050565b6000602082019050610c246000830184610c00565b92915050565b7f4e6f2067616d657320617661696c61626c650000000000000000000000000000600082015250565b6000610c60601283610abe565b9150610c6b82610c2a565b602082019050919050565b60006020820190508181036000830152610c8f81610c53565b9050919050565b6000819050919050565b7f4e487b7100000000000000000000000000000000000000000000000000000000600052601160045260246000fd5b6000610cda82610c96565b9150610ce583610c96565b9250828201905080821115610cfd57610cfc610ca0565b5b92915050565b7f4e487b7100000000000000000000000000000000000000000000000000000000600052601260045260246000fd5b6000610d3d82610c96565b9150610d4883610c96565b925082610d5857610d57610d03565b5b828206905092915050565b7f4e487b7100000000000000000000000000000000000000000000000000000000600052603260045260246000fd5b6000610d9d82610c96565b91507fffffffffffffffffffffffffffffffffffffffffffffffffffffffffffffffff8203610dcf57610dce610ca0565b5b600182019050919050565b6000610de582610c96565b9150610df083610c96565b9250828203905081811115610e0857610e07610ca0565b5b92915050565b6000819050919050565b6000610e33610e2e610e2984610a21565b610e0e565b610a21565b9050919050565b6000610e4582610e18565b9050919050565b6000610e5782610e3a565b9050919050565b610e6781610e4c565b82525050565b6000602082019050610e826000830184610e5e565b92915050565b7f4e487b7100000000000000000000000000000000000000000000000000000000600052603160045260246000fd5b6000819050919050565b610ed2610ecd82610c96565b610eb7565b82525050565b6000610ee48286610ec1565b602082019150610ef48285610ec1565b602082019150610f048284610ec1565b60208201915081905094935050505056fe608060405234801561001057600080fd5b50604051610333380380610333833981810160405281019061003291906100db565b806000806101000a81548173ffffffffffffffffffffffffffffffffffffffff021916908373ffffffffffffffffffffffffffffffffffffffff16021790555050610108565b600080fd5b600073ffffffffffffffffffffffffffffffffffffffff82169050919050565b60006100a88261007d565b9050919050565b6100b88161009d565b81146100c357600080fd5b50565b6000815190506100d5816100af565b92915050565b6000602082840312156100f1576100f0610078565b5b60006100ff848285016100c6565b91505092915050565b61021c806101176000396000f3fe608060405234801561001057600080fd5b50600436106100415760003560e01c80630a9f85dd14610046578063993eb64514610064578063bcffcf4114610080575b600080fd5b61004e61009e565b60405161005b919061016d565b60405180910390f35b61007e600480360381019061007991906101b9565b6100c4565b005b610088610108565b604051610095919061016d565b60405180910390f35b600160009054906101000a900473ffffffffffffffffffffffffffffffffffffffff1681565b80600160006101000a81548173ffffffffffffffffffffffffffffffffffffffff021916908373ffffffffffffffffffffffffffffffffffffffff16021790555050565b60008054906101000a900473ffffffffffffffffffffffffffffffffffffffff1681565b600073ffffffffffffffffffffffffffffffffffffffff82169050919050565b60006101578261012c565b9050919050565b6101678161014c565b82525050565b6000602082019050610182600083018461015e565b92915050565b600080fd5b6101968161014c565b81146101a157600080fd5b50565b6000813590506101b38161018d565b92915050565b6000602082840312156101cf576101ce610188565b5b60006101dd848285016101a4565b9150509291505056fea2646970667358221220f1563512c347907c99c91e7c8d5e84158295c43fb2016b1868a2ceef5343ef3964736f6c63430008130033a2646970667358221220232b8a3ee920a86bf0fa9ddadf251629480a158d23335e81f09fcbc45891a4b664736f6c63430008130033",
  "immutableReferences": {},
  "source": "// SPDX-License-Identifier: MIT\npragma solidity >=0.8.0 <0.9.0;\n\nimport \"./Battleship.sol\";\n\ncontract HandleGames {\n\n  // ---- Local variables\n  // maps a game with its joinable status\n  mapping(Battleship => bool) private joinableGames;\n  // maps a game with its corresponding index\n  mapping(Battleship => uint256) private gamesIndex;\n  // array with the addresses of the joinable games\n  Battleship[] private gamesArray;\n  // nonce used in the random function\n  uint256 private nonce;\n\n  // ---- Events\n  // emitted when a game is created\n  event GameCreated(Battleship gameId, address indexed from);\n  // emitted when a player joins a game\n  event GameJoined(Battleship indexed gameId, address indexed by);\n  // emitted when a game isn't found\n  event GameNotFound(address indexed player);\n\n  // ---- Modifiers\n  // requirements for a game to be joinable\n  modifier joinable(Battleship game) {\n    require(joinableGames[game] == true, \"This game isn't joinable\");\n    require(msg.sender != game.playerOne(), \"You created this game\");\n    _;\n  }\n  \n  // checks if there are available games\n  modifier gamesAvailable() {\n    require(gamesArray.length > 0, \"No games available\");\n    _;\n  }\n\n  // ---- External functions\n  // creates a new game\n  function createGame() external {\n    Battleship newGame = new Battleship(msg.sender);\n    joinableGames[newGame] = true;\n    gamesArray.push(newGame);\n    gamesIndex[newGame] = gamesArray.length - 1;\n    emit GameCreated(newGame, msg.sender);\n  }\n\n  // joins a game by its ID\n  function joinIdGame(Battleship game) external joinable(game) {\n    game.addPlayerTwo(msg.sender);\n    removeGame(game);\n    emit GameJoined(game, msg.sender);\n  }\n\n  // joins a random game from the list of joinable games\n  function joinRandomGame() external gamesAvailable() {\n    uint256 index = random();\n    bool found = false;\n    for(uint256 i = 0; i < gamesArray.length; i++) {\n      Battleship game = gamesArray[(index + i) % gamesArray.length];\n      if(game.playerOne() != msg.sender) {\n        found = true;\n        game.addPlayerTwo(msg.sender);\n        removeGame(game);\n        emit GameJoined(game, msg.sender);\n        break;\n      }\n    }\n    if(!found) {\n      emit GameNotFound(msg.sender);\n    }\n  }\n\n  // ---- Internal functions\n  // removes a game from the list of joinable games\n  function removeGame(Battleship game) internal {\n    delete joinableGames[game];\n    uint256 index = gamesIndex[game];\n    if(index == gamesArray.length - 1 || gamesArray.length == 1) {\n      gamesArray.pop();\n    } else {\n      gamesArray[index] = gamesArray[gamesArray.length - 1];\n      gamesArray.pop();\n      gamesIndex[gamesArray[index]] = index;\n    }\n    delete gamesIndex[game];\n  }\n\n  // returns a random value of gamesArray.lenght\n  function random() internal returns (uint256) {\n    nonce++;\n    return uint256(keccak256(abi.encodePacked(block.prevrandao, block.timestamp, nonce))) % gamesArray.length;\n  }\n}\n",
  "sourcePath": "/home/asel/Documents/GitHub/ethereum-battleship/contracts/HandleGames.sol",
  "compiler": {
    "name": "solc",
    "version": "0.8.19+commit.7dd6d404.Emscripten.clang"
  },
  "schemaVersion": "3.4.14",
  "updatedAt": "2023-08-08T15:24:07.064Z",
  "networkType": "ethereum",
  "devdoc": {
    "kind": "dev",
    "methods": {},
    "version": 1
  },
  "userdoc": {
    "kind": "user",
    "methods": {},
    "version": 1
  }
}